:100000000C9401010C94981D0C94C51D0C942901AD
:100010000C9429010C9429010C9429010C942901B8
:100020000C9429010C9429010C9429010C94C60B01
:100030000C9429010C9429010C9429010C94290198
:100040000C94F21D0C9429010C94AB1F0C94F91F15
:100050000C9429010C947C0B0C9429010C9429011B
:100060000C9429010C9429010000000024002700B1
:100070002A0000000000250028002B0000000000DE
:1000800023002600290004040404040404040202DA
:100090000202020203030303030301020408102007
:1000A0004080010204081020010204081020000012
:1000B0000007000201000003040600000000000029
:1000C0000000494E46494E4954594E414E000020C9
:1000D000410000C84200401C4620BCBE4CCA1B0E5A
:1000E0005AAEC59D74CDCCCC3D0AD7233C17B7D1B1
:1000F0003877CC2B329595E6241FB14F0A00407A11
:1001000010F35A00A0724E18090010A5D4E80000A0
:10011000E87648170000E40B54020000CA9A3B003E
:100120000000E1F505000080969800000040420FB5
:10013000000000A08601000000102700000000E879
:1001400003000000006400000000000A000000003E
:10015000000100000000002C76D888DC674F0823DF
:10016000DFC1DFAE59E1B1B796E5E3E453C63AE645
:1001700051997696E8E6C28426EB898C9B62ED4025
:100180007C6FFCEFBC9C9F40F2BAA56FA5F4900574
:100190005A2AF75C936B6CF9676DC11BFCE0E40DA8
:1001A00047FEF520E6B500D0ED902E03009435779C
:1001B000050080841E080000204E0A000000C80CC4
:1001C000333333330F986E12831141EF8D2114892D
:1001D0003BE65516CFFEE6DB18D1844B381BF77C87
:1001E0001D901DA4BBE424203284725E228100C9CC
:1001F000F124ECA1E53D270085159C1B5C219D1891
:10020000A31B11241FBECFEFD8E0DEBFCDBF14E08B
:10021000A0E0B1E0EEECF8E502C005900D92AA3145
:10022000B107D9F717E0AAE1B4E001C01D92A73EDB
:10023000B107E1F711E0CEEFD1E004C02297FE0153
:100240000E94CB25C83FD107C9F70E940F230C9409
:100250005A2C0C9400002EE533E0FC0131832083FE
:1002600008952EE533E0FC013183208308952EE5C7
:1002700033E0FC013183208308952EE533E0FC0157
:100280003183208308959C012C5F3F4FC90108955D
:1002900084E008958AE208959C012C5F3F4FC901D4
:1002A000089582E008958AE208959C012C5F3F4FF3
:1002B000C901089582E008958AE208952EE533E0A9
:1002C000FC01318320830C941F232EE533E0FC01D5
:1002D000318320830C941F232EE533E0FC0131830E
:1002E00020830C941F232EE533E0FC01318320830F
:1002F0000C941F236BE771E08EEB97E00E940C23B8
:1003000068E871E08EEB97E00E940C2381E008958D
:100310001F93CF93DF93C091FE05D0910A061091F1
:10032000160660912704709128044AE050E08EEB95
:1003300097E00E948B2266E871E08EEB97E00E94C6
:100340000C234AE050E0612F70E08EEB97E00E94B2
:10035000F92266E871E08EEB97E00E940C234AE0F8
:1003600050E06D2F70E08EEB97E00E94F92266E876
:1003700071E08EEB97E00E940C234AE050E06C2F76
:1003800070E08EEB97E00E94F9228EEB97E00E94DE
:10039000DC2181E0DF91CF911F910895CF92DF9210
:1003A000EF92FF92CF93DF93C0906805D0906905DC
:1003B000EE24D7FCE094FE2C8091400490914104FF
:1003C000AA2797FDA095BA2FA7019601281B390BE4
:1003D0004A0B5B0BA4ECB9E00E945C25A7019601D7
:1003E0000E948B2524523A4F85E0829FE001839F33
:1003F000D00D1124D0934604C0934504C09032041C
:10040000D0903304E0903404F09035046FE871E04C
:100410008EEB97E00E940C2366E871E08EEB97E08C
:100420000E940C232AE030E0B701A6018EEB97E092
:100430000E947C2266E871E08EEB97E00E940C231C
:100440004AE050E0BE018EEB97E00E94F9228EEB6D
:1004500097E00E94DC2181E0DF91CF91FF90EF9047
:10046000DF90CF90089561E083EF95E00E94E11B5B
:1004700061E08FEF95E00E94E11B60ED77E080E0A6
:1004800090E00E947A1E60E083EF95E00E94E11BFD
:1004900060E08FEF95E00E94E11B81E00895FC0190
:1004A000808191810E942C278093C90680E0089565
:1004B000CF93DF93FC01808191810E942C27EC0176
:1004C000BC0177278FEF95E00E94E41B61E0CF3FEE
:1004D00009F460E08FEF95E00E94E11B81E0DF917D
:1004E000CF910895CF93C0E20EC0EC2FF0E0EE0F55
:1004F000FF1FE85BF94F608171814AE050E08EEBAD
:1005000097E00E949C22C15080F781E0CF9108952E
:10051000CF93DF93FC01C081D1816CE372E0CE0107
:100520000E948927009729F48BE096E00E94DA1B4D
:1005300014C063E172E0CE010E948927009729F47C
:100540008BE096E00E94DE1B08C0CE010E942C27A3
:10055000BC018BE096E00E94E41B81E0DF91CF912B
:1005600008958091250490912604892B09F497C061
:100570008091270490912804892B41F480912504CF
:1005800090912604909328048093270420912704B7
:10059000309128048091250490912604820F931FA6
:1005A00096958795909328048093270410922604AB
:1005B0001092250480911006882319F080910B0673
:1005C00001C080E08093110680910406882319F011
:1005D0008091FF0501C080E0809305068091F805B9
:1005E000882319F08091F30501C080E08093F9051C
:1005F00085B1897F85B95B9880911D0490911E0417
:10060000A0911F04B0912004892B8A2B8B2B21F001
:1006100080911C0481112AC08091C8068F5F80934D
:10062000C8068436E1F51092C806809121049091A5
:100630002204A0912304B09124040196A11DB11DB0
:100640008093210490932204A0932304B093240464
:1006500081389145A140B10510F11092210410920A
:1006600022041092230410922404089580911D0402
:1006700090911E04A0911F04B09120048093210446
:1006800090932204A0932304B093240410921D0499
:1006900010921E0410921F0410922004BDCF0895E2
:1006A0000F931F93CF93DF93EC0180E2E1EEF6E02E
:1006B000DF011D928A95E9F76A857B8583E991E0E0
:1006C0000E948927009761F46C817D8180E090E031
:1006D0000E94302401EE16E022E046E00E94CF2581
:1006E0006A857B8586E991E00E948927009741F41D
:1006F0004AE050E061EE76E08C819D810E94CE2739
:100700006A857B8589E991E00E948927009751F4E9
:100710006C817D8180E090E02AE030E041EE56E09F
:100720000E94EF2781EE96E0DF91CF911F910F910C
:1007300008950F931F93CF93DF93EC0180E2E1EED6
:10074000F6E0DF011D928A95E9F76A857B8583E9EA
:1007500091E00E948927009771F46C817D81882740
:1007600077FD8095982F0E94322401EE16E022E05A
:1007700046E00E94CF256A857B8586E991E00E944C
:100780008927009741F44AE050E061EE76E08C81E1
:100790009D810E94CE276A857B8589E991E00E9430
:1007A0008927009761F46C817D81882777FD80958A
:1007B000982F2AE030E041EE56E00E94EF2781EECC
:1007C00096E0DF91CF911F910F9108950F931F93A2
:1007D000CF93DF93EC0180E2E1EEF6E0DF011D92C2
:1007E0008A95E9F76C857D8583E991E00E948927E8
:1007F000009761F46C817D818E819F810E943024FD
:1008000001EE16E022E046E00E94CF256C857D8552
:1008100086E991E00E948927009741F44AE050E080
:1008200061EE76E08C819D810E94CE276C857D856E
:1008300089E991E00E948927009751F46C817D81BC
:100840008E819F812AE030E041EE56E00E94EF2742
:1008500081EE96E0DF91CF911F910F910895FC01F9
:10086000808191810E942C2780937601882311F04A
:100870002F9A01C02F9881E0089542E050E06DE981
:1008800071E0FC01808191810E9499279C0161E0C7
:1008900080E1232B59F40E94DB1E60E080E10E947E
:1008A000471F60E080E10E94DB1E06C00E94DB1E45
:1008B00061E080E10E94471F81E00895FF920F935D
:1008C0001F93CF93DF93EC018B0188819981DC0129
:1008D000ED91FC910480F581E02D0995F82E888139
:1008E0009981DC01ED91FC91B8016F5F7F4F04802D
:1008F000F581E02D0995382F20E02F29C901DF91DE
:10090000CF911F910F91FF900895CF92DF92EF92B8
:10091000FF92CF93DF93C0912704D0912804C09019
:100920003204D0903304E0903404F090350460EA4F
:1009300071E08EEB97E00E940C2366E871E08EEB8D
:1009400097E00E940C232AE030E0B701A6018EEB6D
:1009500097E00E947C2266E871E08EEB97E00E94AF
:100960000C239E01A3ECB0E00E94492528E436E068
:1009700040E050E00E94AD2569017A014AE050E074
:10098000B6018EEB97E00E948B228EEB97E00E94DF
:10099000DC2181E0DF91CF91FF90EF90DF90CF904D
:1009A00008950F931F93CF93DF938C01FC01C081B7
:1009B000D18143E050E06EE273E0CE010E949927BE
:1009C000009799F4F801828193810E944A27AB0134
:1009D000BC0140931D0450931E0460931F04709348
:1009E000200481E080931C0444C043E050E065EAA9
:1009F00071E0CE010E949927009749F440912104AB
:100A00005091220460912304709124042CC043E08F
:100A100050E069EA71E0CE010E949927009791F4B5
:100A2000F801828193810E942C27AA2797FDA09527
:100A3000BA2F8093770190937801A0937901B093B6
:100A40007A0117C043E050E06EEA71E0CE010E94E7
:100A50009927009771F44091770150917801609146
:100A6000790170917A012AE030E08EEB97E00E94E4
:100A70007C2281E0DF91CF911F910F910895EF9239
:100A8000FF920F931F93CF93DF93EC01F62E888193
:100A90009981DC01ED91FC910680F781E02D462FD4
:100AA00060E070E0099588819981DC01ED91FC910D
:100AB0000680F781E02D4F2D61E070E00995888177
:100AC0009981DC01ED91FC918E010E5B1F4FD801E5
:100AD0006D917C91615071090680F781E02D4F2D59
:100AE000099588819981DC01ED91FC91D8016D9186
:100AF0007C91625071090680F781E02D4F2D099598
:100B000088819981DC01ED91FC910680F781E02DCF
:100B100046E062E070E0099588819981DC01ED9101
:100B2000FC910680F781E02D40E063E070E00995DC
:100B300088819981DC01ED91FC91D8014C91435061
:100B40000680F781E02D64E070E009958881998145
:100B5000DC01ED91FC91D8012D913C91235031099C
:100B60000680F781E02D432F65E070E009958881CC
:100B70009981DC01ED91FC910680F781E02D40E048
:100B800066E070E0099536E0E32EF12C0EC0888116
:100B90009981DC01ED91FC910680F781E02D40E028
:100BA000B7010995BFEFEB1AFB0AF801808191812B
:100BB0000297E816F90658F3DF91CF911F910F9134
:100BC000FF90EF900895FF920F931F93CF93DF93C1
:100BD000EC01CB01F22E798368838E010E5B1F4FEF
:100BE000D8014D935C93FE01EC5BFF4F11821082A4
:100BF000FE01EA5BFF4F1082DB01ED91FC91048066
:100C0000F581E02D60E070E009958F112DC088819D
:100C10009981DC01ED91FC910480F581E02D61E08A
:100C200070E009958F1120C088819981DC01ED91D8
:100C3000FC91D8016D917C91615071090480F5811E
:100C4000E02D09958F1110C088819981DC01ED910B
:100C5000FC91D8016D917C91625071090480F581FD
:100C6000E02D09958F1541F06F2DCE010E943F05B3
:100C7000CA5BDF4F81E08883DF91CF911F910F9195
:100C8000FF9008956AE28CEA95E00E943F0581E0BA
:100C900008953F924F925F926F927F928F929F92B0
:100CA000AF92BF92CF92DF92EF92FF920F931F937A
:100CB000CF93DF93CDB7DEB72A970FB6F894DEBF98
:100CC0000FBECDBF7C014B01DC018D919C91DC01FD
:100CD000ED91FC910480F581E02D62E070E00995D2
:100CE000182FF70180819181DC01ED91FC91048046
:100CF000F581E02D63E070E00995B82EA12CA12AC2
:100D000046E0442E512C5AE0352ECC24C394D12CED
:100D1000CC0EDD1E24C0F601832D11928A95E9F7D1
:100D2000360101C02801D7018D919C9182010F5F8E
:100D30001F4FDC01ED91FC910480F581E02DB201A3
:100D40000995F30181933F018111ECCFB601C401F4
:100D50000E948927009741F0F5E04F0E511C4A147C
:100D60005B04CCF200E010E0C8012A960FB6F894BC
:100D7000DEBF0FBECDBFDF91CF911F910F91FF90CE
:100D8000EF90DF90CF90BF90AF909F908F907F902B
:100D90006F905F904F903F9008957F928F929F92B7
:100DA000AF92BF92CF92DF92EF92FF920F931F9379
:100DB000CF93DF93EC016B017A0188819981DC018B
:100DC000ED91FC910480F581E02D62E070E00995E1
:100DD000182F88819981DC01ED91FC910480F581C7
:100DE000E02D63E070E00995B82EA12CA12A8501C1
:100DF00088819981DC01ED91FC910480F581E02DE1
:100E000064E070E00995782E88819981DC01ED918C
:100E1000FC910480F581E02D65E070E00995982E45
:100E2000812C872810C088819981B8010F5F1F4FDE
:100E3000DC01ED91FC91D601A20FB31F0680F78172
:100E4000E02D4C910995202F2A1930E0F6010190F0
:100E50000020E9F73197EC19FD09E217F30718F7BD
:100E6000D701ED91FC910680F781E02DC70109952E
:100E700090E00197881A990A88819981DC01ED91A7
:100E8000FC910680F781E02D482DB80109958881F5
:100E90009981DC01ED91FC91B8016F5F7F4F068075
:100EA000F781E02D492D0995B1E08B1A91088881D1
:100EB0009981DC01ED91FC910680F781E02D482DB0
:100EC00064E070E0099588819981DC01ED91FC91E5
:100ED0000680F781E02D492D65E070E00995E881F5
:100EE000F9810190F081E02DC680D780D701ED9186
:100EF000FC910680F781E02DC7010995B8016E5F6E
:100F00007F4F482F88819981F6010995E881F98101
:100F10000190F081E02DC680D780D701ED91FC9142
:100F20000084F185E02DC70109957801B4E0EB0E4E
:100F3000F11CB8016D5F7F4F482F88819981F601C0
:100F4000099588819981DC01ED91FC910680F781FA
:100F5000E02D4E2D62E070E0099588819981DC01D9
:100F6000ED91FC910680F781E02D4F2D63E070E05C
:100F70000995C801DF91CF911F910F91FF90EF90DC
:100F8000DF90CF90BF90AF909F908F907F9008950B
:100F90006F927F928F929F92AF92BF92CF92DF9289
:100FA000EF92FF920F931F93CF93DF931F92CDB7D2
:100FB000DEB78C017B016A01612C712C5A0182E041
:100FC000A80EB11C25C0D801ED91FC910190F081D3
:100FD000E02D86809780D701ED91FC910480F5810A
:100FE000E02DC7010995860D971DFC014081B601D2
:100FF000C80149830E945E04BC01660D771D4981CA
:10100000D8018D919C91F4010995FFEF6F1A7F0A29
:10101000D8018D919C91DC01ED91FC910480F581CA
:10102000E02DB501099590E06816790664F20F90FD
:10103000DF91CF911F910F91FF90EF90DF90CF90B4
:10104000BF90AF909F908F907F906F9008956F9218
:101050007F928F929F92AF92BF92CF92DF92EF9248
:10106000FF920F931F93CF93DF93EC017B016A01F3
:101070000E9449068C01009759F4A601B701CE01E0
:101080000E94CD068C01AC01B601CE010E94C807BA
:10109000DE01AC5BBF4F8D919C9111970196FC01D5
:1010A000EE0FFF1FEC0FFD1FD182C0828D939C932A
:1010B000E12CF12C380182E0680E711C22C0D601AF
:1010C000ED91FC910480F581E02DC60109954C015C
:1010D0008E0C9F1CE881F9810190F081E02DA480A5
:1010E000B580B801CE010E945E04BC016E0D7F1D6B
:1010F00088819981F5010995D4018C93BFEFEB1A92
:10110000FB0A88819981DC01ED91FC910480F581D5
:10111000E02DB301099590E0E816F90684F2C801C4
:10112000DF91CF911F910F91FF90EF90DF90CF90C3
:10113000BF90AF909F908F907F906F900895CF93C6
:10114000DF93EC01CB010E9428270E9404247D83B9
:101150006C8348855985BE018E819F81DF91CF9137
:101160000C94C807CF93DF93EC01CB010E94282792
:101170000E94FF237D836C8348855985BE018E8143
:101180009F81DF91CF910C94C807CF93DF93EC013F
:10119000CB010E9428270E9404246C837D838E83C8
:1011A0009F834A855B85BE0188859985DF91CF91B4
:1011B0000C94C807AF92BF92CF92DF92EF92FF924A
:1011C0000F931F93CF93DF935B01FC01EC5BFF4F09
:1011D000C080D1807C0100E010E00FC0F701C28127
:1011E000D3816A817B81C5010E948927F2E0EF0EDD
:1011F000F11C009739F00F5F1F4F0C151D0571F79B
:10120000C0E0D0E0CE01DF91CF911F910F91FF9010
:10121000EF90DF90CF90BF90AF9008950F931F9302
:10122000CF93DF93EC010881198146E050E063EB36
:1012300071E0C8010E949927009741F480913E0413
:1012400090913F040E94771BBC011CC0B8018CEA3E
:1012500095E00E94DA080097D9F0DC01ED91FC914D
:101260000284F385E02D09958C01688179818EEBEC
:1012700097E00E940C2366E871E08EEB97E00E94F5
:101280000C23B8018EEB97E00E940C2381E001C093
:1012900080E0DF91CF911F910F9108950F931F93DD
:1012A000CF93DF938C01DC01CD91DC9146E050E0DF
:1012B00063EB71E0CE010E949927009751F4F80189
:1012C0006281738180913E0490913F040E94681B6B
:1012D00034C0BE018CEA95E00E94DA08EC01009768
:1012E00071F1E881F981D80112966D917C91139783
:1012F0000484F585E02D0995E881F9810284F38560
:10130000E02DCE010995EC01F801008111816AEB15
:1013100071E08EEB97E00E940C23B8018EEB97E012
:101320000E940C2366E871E08EEB97E00E940C238C
:10133000BE018EEB97E00E940C2381E001C080E0AB
:10134000DF91CF911F910F910895AF92BF92CF92ED
:10135000DF92EF92FF920F931F93CF93DF93EC01F5
:1013600000E010E07C0184E4E80EF11C30C08881CC
:101370009981DC01ED91FC910284F385E02D0995C2
:101380006C01E881F981A280B3806DEB71E08EEB96
:1013900097E00E940C23B5018EEB97E00E940C238E
:1013A00066E871E08EEB97E00E940C23B6018EEBAD
:1013B00097E00E940C2362E272E08EEB97E00E94BD
:1013C0000C238EEB97E00E94DC210F5F1F4F2296CB
:1013D000F701808191810817190748F2DF91CF91B9
:1013E0001F910F91FF90EF90DF90CF90BF90AF9043
:1013F00008958EEB97E00E94DC218CEA95E00E9434
:10140000A50981E008952F923F924F925F926F92CB
:101410007F928F929F92AF92BF92CF92DF92EF9284
:10142000FF920F931F93CF93DF9300D000D0CDB7DF
:10143000DEB71C015B018A01DB01A41BB50B2D018A
:10144000662457FC6094762C2091A4053091A50564
:101450000E945525D10150966D937D938D939C9359
:10146000539714968D919D910D90BC91A02D892B31
:101470008A2B8B2B09F4F8C0F10180859185A28518
:10148000B3850097A105B10521F1C484D584E68414
:10149000F784C80ED91EEA1EFB1E0E94461E6C155C
:1014A0007D058E059F05A8F0D10118961D921D920D
:1014B0001D921C921B97F1011482158216821782CD
:1014C000D3C0832F02C0282F892FD1012C931196CE
:1014D0008C93F101408151812091980530919905BB
:1014E000429FC001439F900D529F900D112465E0D3
:1014F00070E00E9477254B01A12CB12C848A958A3B
:10150000A68AB78AA281B381A01BB10B20918C055A
:1015100030918D050E9455259B01AC0184819581F8
:10152000A681B781892B8A2B8B2B29F062E070E092
:1015300080E090E004C061E070E080E090E00E9414
:1015400067256B017C01D10158966D937D938D9336
:101550009C935B975C964D905D906D907C905F97AF
:1015600050968D919D910D90BC91A02D89839A8369
:10157000AB83BC8366EC71E08EEB97E00E940C239A
:101580002AE030E049815A816B817C818EEB97E0C3
:101590000E94B92266E871E08EEB97E00E940C236E
:1015A0002AE030E0B501A4018EEB97E00E94B92259
:1015B00066E871E08EEB97E00E940C232AE030E0B1
:1015C000B701A6018EEB97E00E94B92266E871E0B0
:1015D0008EEB97E00E940C232AE030E0B301A201D9
:1015E0008EEB97E00E94B92262E272E08EEB97E008
:1015F0000E940C238EEB97E00E94DC21F101138303
:10160000028380899189A289B38944895589668931
:101610007789840F951FA61FB71F408D518D628D4E
:10162000738D840F951FA61FB71F448D558D668D32
:10163000778D840F951FA61FB71FB7FD12C00097A7
:10164000F1E0AF07B10524F08FEF9FEFA0E0B0E02D
:10165000F6E0B595A79597958795FA95D1F79C01F2
:1016600033C020E030E030C0C501E4E096958795B6
:10167000EA95E1F7A81AB90AA016B10608F029CF31
:10168000809174059091750545E0489F9001499FB0
:10169000300D1124D1018D919C91AA2797FDA09521
:1016A000BA2F840D951DA61DB71DB7FF03C080E09E
:1016B00090E0DC01A90160E070E0481759076A0773
:1016C0007B070CF4FECEFFCEC9010F900F900F9058
:1016D0000F90DF91CF911F910F91FF90EF90DF90CE
:1016E000CF90BF90AF909F908F907F906F905F90C2
:1016F0004F903F902F9008951F920F920FB60F9228
:1017000011242F933F934F938F939F93AF93BF9346
:10171000EF93FF9320917C00E09147063091780091
:101720004091790020FF14C0AE2FAF71B0E0AA0F36
:10173000BB1FA85BB94F942F80E0832B8D939C93A4
:10174000EF5FE0934706287F246020937C0010C061
:10175000EF71F0E0EE0FFF1FE857F94F942F80E094
:10176000832B91838083822F887F836080937C008A
:10177000FF91EF91BF91AF919F918F914F913F91C9
:101780002F910F900FBE0F901F9018951F920F92E0
:101790000FB60F9211242F933F934F938F939F93E4
:1017A00080912504909126040196909326048093BD
:1017B000250420911106222339F020910C06309146
:1017C0000D068217930718F540E0209105062223A5
:1017D00039F0209100063091010682179307F0F44A
:1017E0002091F905222339F02091F4053091F50577
:1017F00082179307E8F425B1242725B98C3291404C
:10180000F1F480917A00806480937A0018C020916E
:10181000110621502093110644E0D7CF2BB138E0B8
:1018200023272BB920910506215020930506D8CFF8
:1018300042602091F90521502093F905DCCF9F915A
:101840008F914F913F912F910F900FBE0F901F904E
:1018500018958F929F92AF92BF92CF92DF92EF92A4
:10186000FF920F931F93CF93DF938C01C0912704B6
:10187000D09128044C01A12CB12CC501B4010E94C7
:1018800030242EEA37E449E555E40E94E6240E941C
:1018900004242AE096958795779567952A95D1F740
:1018A0006B01EE24D7FCE094FE2C9801D8010E9435
:1018B00049259B01AC01AFEFB8E00E945C2534E103
:1018C00096958795779567953A95D1F7C61AD70A71
:1018D000E80AF90A8CE5C81A89E0D80AE108F10893
:1018E000A7019601C501B4010E94672520E034E0FC
:1018F00040E050E00E94AD2526573A4F4F4F5F4FD2
:10190000DE010E945C2528E436E040E050E00E94C1
:10191000AD25C901DF91CF911F910F91FF90EF90FD
:10192000DF90CF90BF90AF909F908F900895CF930E
:10193000DF93C0914004D0914104BE01882777FD18
:101940008095982F0E94322420E030E0A9010E9467
:10195000932318160CF00CC010920D0610920C0672
:1019600061E080915C0590915D05C817D9070CF086
:1019700060E08BE096E0DF91CF910C94E11B0E9438
:10198000290C8035910510F480E090E0F894BC01BA
:101990008BE096E00E94E41B78940895CF92DF924A
:1019A000EF92FF92882319F0E8E8F6E002C0E8E43D
:1019B000F6E0462F415FF89451E220E030E004C0A9
:1019C00081919191280F391F5150D1F77894A0EF50
:1019D000B5E50E944925242F30E06B017C0104C04D
:1019E000F694E794D794C7944A95D2F721503109D9
:1019F000DC01CB0104C0B695A795979587952A95EC
:101A0000D2F780FF05C08FEFC81AD80AE80AF80A93
:101A1000C601FF90EF90DF90CF9008954F925F92B4
:101A20006F927F928F929F92AF92BF92CF92DF92EE
:101A3000EF92FF9280914004909141048436910589
:101A40008CF460E08BE096E0FF90EF90DF90CF9019
:101A5000BF90AF909F908F907F906F905F904F90CE
:101A60000C94E11B85E694E00E941E1D882341F141
:101A700020917404309175044091400450914104C8
:101A8000609168057091690585E494E00E94030AFD
:101A90009093CB068093CA06209138053091390582
:101AA000232B41F00E94BF0C61E08BE096E00E9486
:101AB000E11B06C060E070E08BE096E00E94E41B52
:101AC0008091380590913905892B09F462C061E055
:101AD00080917601811160E080E00E94CE0C9093AD
:101AE000410480934004A0916805B0916905A81B4A
:101AF000B90B2091A4053091A5050E94552560934E
:101B00005504709356048093570490935804C090E2
:101B10005904D0905A04E0905B04F0905C04C60E27
:101B2000D71EE81EF91E40915D0450915E0460913D
:101B30005F0470916004C40ED51EE61EF71E40912E
:101B40006104509162046091630470916404C40E56
:101B5000D51EE61EF71EF7FC14C0D701C601C1143E
:101B6000D10421E0E206F10424F08FEF9FEFA0E022
:101B7000B0E046E0B595A795979587954A95D1F73A
:101B800002C080E090E09093CB068093CA060E944A
:101B9000BF0C8091380590913905892B99F480917B
:101BA000CA069091CB0625E0289FB001299F700DB1
:101BB000112485E694E00E94511D682F8BE096E089
:101BC0000E94E11B87E396E00E940819882309F42C
:101BD00078C0E090A404F090A504609198047091FE
:101BE00099046E197F09882777FD8095982F0E94A8
:101BF00032244B015C0187E396E00E940E1A2B0110
:101C00003C01B701882777FD8095982F0E943224E8
:101C10006B017C01C301B2010E9430242B013C0105
:101C200060918C0470918D0480E090E00E943024DB
:101C300020E030E04AE754E40E94E6249B01AC0136
:101C4000C301B2010E9497239B01AC01C501B401FD
:101C50000E94E6249B01AC01C701B6010E942F231C
:101C60000E94042480E090E00E94302420E030E0D4
:101C700040E854E40E94E62420E030E048EC52E4DE
:101C80000E9497236B017C0120E030EC4FE754E485
:101C90007D2D9F2D0E94E224181644F06C2D7D2D81
:101CA0008E2D9F2D0E940424CB0102C08FEF93E064
:101CB0000E94290CF894BC018FEF95E00E94E41B70
:101CC0007894FF90EF90DF90CF90BF90AF909F906F
:101CD0008F907F906F905F904F9008958F929F921A
:101CE000AF92BF92CF92DF92EF92FF921F93CF936A
:101CF000DF936B017C01AB01BC0187E396E00E949E
:101D00002219B701A60187E196E00E94221987E314
:101D100096E00E940819182F809150059091510566
:101D2000892B19F1111125C1C0E026C087E396E087
:101D30000E940E1A2091BC043091BD044091C80449
:101D40005091C904240F351F2C9FA0012D9F500DC9
:101D50003C9F500D11244A01A12CB12CC1E0681503
:101D600079058A059B0520F01EC1C0E0112321F0F2
:101D70006C2F6095617001C060E08FEF95E00E946C
:101D8000E11B112351F0C11102C061E007C0809135
:101D9000440590914505892BC1F360E083EF95E000
:101DA0000E94E11BB701A60187E396E00E94D319C8
:101DB000892B09F460C00E94461E60934904709309
:101DC0004A0480934B0490934C0410924D0410925B
:101DD0004E0410924F04109250042091EC04309164
:101DE000ED04AFEFBFEF0E9449250E94322420E0AE
:101DF00030E048EC52E40E9497230E94FF23609356
:101E00006104709362048093630490936404C092AD
:101E1000CC06D092CD06E092CE06F092CF0680900E
:101E2000320490903304A0903404B09035046BECED
:101E300071E08EEB97E00E940C2366E871E08EEB78
:101E400097E00E940C232AE030E0B501A4018EEB5C
:101E500097E00E947C2266E871E08EEB97E00E949A
:101E60000C2361E272E08EEB97E00E940C238EEB74
:101E700097E00E94DC2187E396E00E94CF19892B2E
:101E800009F46AC08091490490914A04A0914B04DE
:101E9000B0914C04892B8A2B8B2BB1F00E94461EEB
:101EA00060934D0470934E0480934F0490935004BC
:101EB00080EC94EDA1E0B0E0809351049093520443
:101EC000A0935304B09354041092610410926204DE
:101ED00010926304109264048091CC069091CD0618
:101EE000A091CE06B091CF06C81AD90AEA0AFB0A19
:101EF0008090320490903304A0903404B090350464
:101F00006BEC71E08EEB97E00E940C2366E871E0C9
:101F10008EEB97E00E940C232AE030E0B501A4018B
:101F20008EEB97E00E947C2266E871E08EEB97E0F2
:101F30000E940C232AE030E0B701A6018EEB97E067
:101F40000E947C2262E272E08EEB97E00E940C23FA
:101F50008EEB97E00E94DC2187E396E00E94CF1988
:101F6000892B19F587E196E00E94CF19892BE9F4B6
:101F700039C087E396E00E940E1A2091C804309180
:101F8000C904C8EED3E02C9FA0012D9F500D3C9FAB
:101F9000500D11244A01A12CB12C86169706A806D3
:101FA000B90608F4C3CEC0E0E3CE6FEC71E08EEB6F
:101FB00097E00E940C238EEB97E00E94DC2187E3E0
:101FC00096E00E94121987E196E0DF91CF911F9170
:101FD000FF90EF90DF90CF90BF90AF909F908F9049
:101FE0000C941219DF91CF911F91FF90EF90DF9029
:101FF000CF90BF90AF909F908F900895F894A0E8F5
:10200000B0E01C92E1E8F0E010821092850010929E
:102010008400B0938900A0938800808188608083C9
:1020200082E080936F00808181608083789408953E
:1020300083EC80937C00EAE7F0E080818460808319
:1020400080818260808380818160808380818068DC
:102050008083808188608083808180648083279AE8
:102060002F980895CF92DF92EF92FF920F931F93D4
:10207000CF9340E051EE60E070E08EEB97E00E947D
:1020800034200E94181061E080E10E94DB1E61E0B4
:1020900080E10E94471F88E090E00E9422237C019B
:1020A00000E011EE20E030E043E150E06FE070E04E
:1020B0000E942F1AF0923F04E0923E048091D404D3
:1020C0009091D5048A9701F168EE73E080E090E08A
:1020D0000E947A1E80913E0490913F040E94061B4C
:1020E000882391F08AE290E09093D5048093D40401
:1020F0004091D8045091D90460ED74E08091D604E9
:102100009091D7040E94C80760E082E00E94DB1E25
:1021100041E050E061EB72E080E00E94781D0E9497
:10212000FE0F8AE080930B0660E070E08BE096E0A3
:102130000E94E41BC8ECC093FF0560E070E08FEFE5
:1021400095E00E94E41BC093F30560E070E083EF2C
:1021500095E00E94E41B40E166E171E082E494E0D6
:102160000E94EF1B85E694E00E94E51C87E396E061
:102170000E94121987E196E00E94121987E296E008
:102180000E941219C0903204D0903304E0903404BD
:10219000F09035046FE871E08EEB97E00E940C231D
:1021A00066E871E08EEB97E00E940C232AE030E0B5
:1021B000B701A6018EEB97E00E947C2266E871E0F1
:1021C0008EEB97E00E940C2366EE71E08EEB97E0B9
:1021D0000E940C238EEB97E00E94DC2121E080918D
:1021E000140590911505892B09F020E0209329040E
:1021F000222349F0CF911F910F91FF90EF90DF9034
:10220000CF900C940E0DCF911F910F91FF90EF90F6
:10221000DF90CF9008954F925F926F927F928F924E
:102220009F92AF92BF92CF92DF92EF92FF92CF93A5
:10223000DF930E94461E6B017C01AB01BC0187E26B
:1022400096E00E94221985E694E00E94F51C809198
:102250002904882321F0C701B6010E946E0E8091E7
:102260003A0490913B04A0913C04B0913D04019646
:10227000A11DB11D80933A0490933B04A0933C04AC
:10228000B0933D0468EE73E085E694E00E94211D62
:10229000882309F4A3C061E080917601811160E098
:1022A00080E00E94CE0C909341048093400461E052
:1022B00081E00E94CE0C5C0180904004909041042B
:1022C000C0916805D0916905409032045090330464
:1022D000609034047090350465EF71E08EEB97E008
:1022E0000E940C2366E871E08EEB97E00E940C23BD
:1022F0002AE030E0B301A2018EEB97E00E947C223D
:1023000066E871E08EEB97E00E940C234AE050E013
:10231000BE018EEB97E00E94F92266E871E08EEB39
:1023200097E00E940C234AE050E0B4018EEB97E066
:102330000E94F92266E871E08EEB97E00E940C2380
:102340004AE050E0B5018EEB97E00E948B2262E2FA
:1023500072E08EEB97E00E940C238EEB97E00E94D8
:10236000DC218091320490913304A0913404B09127
:102370003504892B8A2B8B2B61F48091400490913A
:1023800041048090680590906905881599050CF4C2
:10239000C5C110923A0410923B0410923C04109272
:1023A0003D040E94461E6093360470933704809368
:1023B0003804909339048091320490913304A091B1
:1023C0003404B09135040196A11DB11D80933204EF
:1023D00090933304A0933404B093350487E296E0DD
:1023E0000E94CF19892B09F459C080903204909033
:1023F0003304A0903404B090350469EF71E08EEBA3
:1024000097E00E940C2366E871E08EEB97E00E9453
:102410000C232AE030E0B501A4018EEB97E00E9486
:102420007C2266E871E08EEB97E00E940C236DEF52
:1024300071E08EEB97E00E940C238EEB97E00E94F8
:10244000DC2187E296E00E9412191092290460E0D4
:102450008BE096E00E94E11B809032049090330460
:10246000A0903404B090350467E172E08EEB97E001
:102470000E940C2366E871E08EEB97E00E940C232B
:102480002AE030E0B501A4018EEB97E00E947C22A7
:1024900066E871E08EEB97E00E940C23B701A6017D
:1024A00087E296E00E94D319892B09F473C081E07A
:1024B0008093290410922A0410922B0410922C0469
:1024C00010922D0410922E0410922F0410923004BA
:1024D000109231048091400490914104C0906805AD
:1024E000D09069058C159D0524F5EE24D7FCE09469
:1024F000FE2CAA2797FDA095BA2FA7019601281BAD
:10250000390B4A0B5B0BA0917405B0917505AC5D5E
:10251000B5400E945C25A70196010E948B2524529C
:102520003A4F220F331F220F331F3093460420935C
:10253000450461E08BE096E00E94E11BC09032040C
:10254000D0903304E0903404F090350469EF71E0EA
:102550008EEB97E00E940C2366E871E08EEB97E02B
:102560000E940C232AE030E0B701A6018EEB97E031
:102570000E947C2266E871E08EEB97E00E940C23BB
:1025800066E272E08EEB97E00E940C238EEB97E000
:102590000E94DC2180911C04882381F18091290410
:1025A00081112CC080912C0590912D05892B31F142
:1025B00080912A0490912B04A0912C04B0912D04B9
:1025C000892B8A2B8B2BD1F48091060590910705DE
:1025D000A0910805B09109050097A105B10571F01A
:1025E00040912104509122046091230470912404AD
:1025F00084179507A607B70709F4B5C080911C0496
:10260000882381F180912904882361F1809120053C
:1026100090912105892B31F180912E0490912F0406
:10262000A0913004B0913104892B8A2B8B2BD1F4EB
:102630008091F8049091F904A091FA04B091FB0400
:102640000097A105B10571F0409121045091220439
:10265000609123047091240484179507A607B70797
:1026600009F4CBC040912A0450912B0460912C04B2
:1026700070912D044115510561057105B1F08091EE
:102680002904811112C08091210490912204A0910B
:102690002304B0912404841B950BA60BB70B803147
:1026A0009E40A105B10508F0F2C080912904811176
:1026B0000CC080912A0490912B04A0912C04B0911D
:1026C0002D04892B8A2B8B2BB9F080912E049091AD
:1026D0002F04A0913004B0913104892B8A2B8B2BCD
:1026E00059F487E196E00E94081981110DC180918B
:1026F000C906811109C105C182E494E0DF91CF913F
:10270000FF90EF90DF90CF90BF90AF909F908F9011
:102710007F906F905F904F900C94821CAA2497FC3E
:10272000A094BA2CAA2797FDA095BA2FA5019401D1
:10273000281B390B4A0B5B0BA0917405B0917505F2
:10274000AC5DB5400E945C25A50194010E948B25DB
:1027500024523A4F220F331F220F331F3093460467
:102760002093450416CE8091210490912204A091DB
:102770002304B091240480932A0490932B04A09303
:102780002C04B0932D0410922E0410922F0410925A
:1027900030041092310461E08BE096E00E94E11B6E
:1027A000C0903204D0903304E0903404F0903504AB
:1027B00069EF71E08EEB97E00E940C2366E871E010
:1027C0008EEB97E00E940C232AE030E0B701A601CF
:1027D0008EEB97E00E947C2266E871E08EEB97E03A
:1027E0000E940C236FE372E08EEB97E00E940C23B3
:1027F0008EEB97E00E94DC2101CF80912104909123
:102800002204A0912304B091240480932E04909379
:102810002F04A0933004B093310410922A04109234
:102820002B0410922C0410922D0460E08BE096E0B3
:102830000E94E11BC0903204D0903304E090340435
:10284000F090350469EF71E08EEB97E00E940C2365
:1028500066E871E08EEB97E00E940C232AE030E0FE
:10286000B701A6018EEB97E00E947C2266E871E03A
:102870008EEB97E00E940C236FE372E08EEB97E003
:102880000E940C238EEB97E00E94DC21EBCE10928D
:102890002A0410922B0410922C0410922D0460E054
:1028A0008BE096E00E94E11BC0903204D09033048C
:1028B000E0903404F090350469EF71E08EEB97E01E
:1028C0000E940C2366E871E08EEB97E00E940C23D7
:1028D0002AE030E0B701A6018EEB97E00E947C224F
:1028E00066E871E08EEB97E00E940C2368E472E0EA
:1028F0008EEB97E00E940C238EEB97E00E94DC2188
:10290000D4CE0E940E0DF8CE0E94970CF5CEAF9259
:10291000BF92CF92DF92EF92FF920F931F93CF93CC
:10292000DF93EC015A01C80144E953E0598348831D
:10293000BD82AC821F830E837B836A833B872A8799
:102940008E01AE010E942708998788872C813D81DE
:10295000F701408151812417350730F0F60140819D
:1029600051814217530790F4BD82AC82AC01B8018B
:102970008E819F81DF91CF911F910F91FF90EF90FA
:10298000DF90CF90BF90AF900C94C807DF91CF91AC
:102990001F910F91FF90EF90DF90CF90BF90AF907D
:1029A0000895AF92BF92CF92DF92EF92FF920F9372
:1029B0001F93CF93DF93EC015A01C80140E753E026
:1029C00059834883BD82AC821F830E837B836A83D5
:1029D0003B872A878E01AE010E9427089987888746
:1029E0002C813D81F701408151812417350734F056
:1029F000F601408151814217530794F4BD82AC82A5
:102A0000AC01B8018E819F81DF91CF911F910F9111
:102A1000FF90EF90DF90CF90BF90AF900C94C807DD
:102A2000DF91CF911F910F91FF90EF90DF90CF90AA
:102A3000BF90AF9008954F925F926F927F929F9256
:102A4000AF92BF92CF92DF92EF92FF920F931F93BC
:102A5000CF93DF93EC0129013A01C70122E833E06B
:102A6000398328834C825D826E827F82F986E88674
:102A70007B836A831D870C879C2EFD2EAE010E94EE
:102A800027089B878A870C811D812E813F81F60153
:102A9000408151816281738104171507260737072A
:102AA00050F0F501408151816281738140175107D7
:102AB00062077307D0F44C825D826E827F82AC0124
:102AC000692D7F2D88859985DF91CF911F910F9179
:102AD000FF90EF90DF90CF90BF90AF909F907F904E
:102AE0006F905F904F900C94C807DF91CF911F912A
:102AF0000F91FF90EF90DF90CF90BF90AF909F909D
:102B00007F906F905F904F9008954F925F926F9279
:102B10007F928F929F92AF92BF92CF92DF92EF926D
:102B2000FF920F931F93CF93DF93CDB7DEB72C9710
:102B30000FB6F894DEBF0FBECDBF41E068E087E37B
:102B400096E00E94A71941E064E087E296E00E94C7
:102B5000A71941E065E087E196E00E94A7196AE0C5
:102B60008BE096E00E94AA1B63E08FEF95E00E9445
:102B7000AA1B69E083EF95E00E94AA1B28E540E0CC
:102B800054E061E077E08CEA95E00E94E305812C57
:102B90007DE7972E9C868B861A861986EBE0CE2ED3
:102BA000D12CCC0EDD1EF9E0EF2EF12CEC0EFD1E2B
:102BB0000CEA15E026E931E049E150E064E772E013
:102BC00080EA95E00E9487149C868B861A86198677
:102BD000ABE0CA2ED12CCC0EDD1EB9E0EB2EF12CD1
:102BE000EC0EFD1E26E931E043E050E069E772E0BB
:102BF00084E995E00E9487149C868B861A86198644
:102C00008BE0C82ED12CCC0EDD1E99E0E92EF12CE4
:102C1000EC0EFD1E26E931E040E850E06EE772E080
:102C200088E895E00E9487149C868B861A86198610
:102C30002BE0C22ED12CCC0EDD1E39E0E32EF12C80
:102C4000EC0EFD1E26E931E045E050E063E872E05D
:102C50008CE795E00E9487149C868B861A861986DD
:102C60004BE0C42ED12CCC0EDD1E59E0E52EF12C0C
:102C7000EC0EFD1E26E931E046EA5EE06AE872E00D
:102C800080E795E00E9487149C868B861A861986B9
:102C90006BE0C62ED12CCC0EDD1E79E0E72EF12C98
:102CA000EC0EFD1E26E931E044E757E261E972E0EF
:102CB00084E695E00E94D1149C868B861A8619863C
:102CC000EBE0CE2ED12CCC0EDD1EF9E0EF2EF12C58
:102CD000EC0EFD1E26E931E044ED50E367E972E0B9
:102CE00088E595E00E94D1149C868B861A86198609
:102CF000ABE0CA2ED12CCC0EDD1EB9E0EB2EF12CB0
:102D0000EC0EFD1E26E931E040E050E06EE972E095
:102D10008CE495E00E9487149C868B861A8619861F
:102D20008BE0C82ED12CCC0EDD1E99E0E92EF12CC3
:102D3000EC0EFD1E26E931E040E050E064EA72E06E
:102D400080E495E00E9487149C868B861A861986FB
:102D50002BE0C22ED12CCC0EDD1E39E0E32EF12C5F
:102D6000EC0EFD1E26E931E041E050E06AEA72E037
:102D700084E395E00E9487149C868B861A861986C8
:102D80004BE0C42ED12CCC0EDD1E59E0E52EF12CEB
:102D9000EC0EFD1E26E931E040E050E063EB72E00E
:102DA00088E295E00E9487149C868B861A86198695
:102DB0006BE0C62ED12CCC0EDD1E79E0E72EF12C77
:102DC000EC0EFD1E26E931E040E050E06BEB72E0D6
:102DD0008CE195E00E9487149C868B861A86198662
:102DE000EBE0CE2ED12CCC0EDD1EF9E0EF2EF12C37
:102DF000EC0EFD1E26E931E040E050E063EC72E0AD
:102E000080E195E00E948714A0E84A2EA1E55A2EA1
:102E100066246394712C4D825E826F82788619825B
:102E20001A821B821C82B5E0AB2EB12CAC0EBD1EEB
:102E3000CC24C394D12CCC0EDD1E780109E911E01D
:102E400020E030E0A9016AEC72E082E095E00E94A7
:102E50001B154D825E826F82788619821A821B82D0
:102E60001C8295E0A92EB12CAC0EBD1ECC24C394BF
:102E7000D12CCC0EDD1E20E030E0A90160ED72E027
:102E800084EF94E00E941B159C868B861A86198617
:102E90003BE0C32ED12CCC0EDD1E49E0E42EF12CFC
:102EA000EC0EFD1E0CEA15E026E931E041E250E0AF
:102EB00067ED72E088EE94E00E9487149C868B8612
:102EC0001A8619865BE0C52ED12CCC0EDD1E69E07A
:102ED000E62EF12CEC0EFD1E26E931E040E050E03C
:102EE0006EED72E08CED94E00E9487149C868B86D8
:102EF0001A8619867BE0C72ED12CCC0EDD1EE9E0A8
:102F0000EE2EF12CEC0EFD1E26E931E040E050E003
:102F100067EE72E080ED94E00E9487149C868B86B9
:102F20001A861986FBE0CF2ED12CCC0EDD1EA9E02F
:102F3000EA2EF12CEC0EFD1E26E931E042E050E0D5
:102F40006DEE72E084EC94E00E9487149C868B8680
:102F50001A861986BBE0CB2ED12CCC0EDD1E89E063
:102F6000E82EF12CEC0EFD1E26E931E042E050E0A7
:102F700064EF72E088EB94E00E9487149C868B8655
:102F80001A8619869BE0C92ED12CCC0EDD1E29E0B5
:102F9000E22EF12CEC0EFD1E26E931E048EE53E066
:102FA0006AEF72E08CEA94E00E9487149C868B861C
:102FB0001A8619863BE0C32ED12CCC0EDD1E49E0CB
:102FC000E42EF12CEC0EFD1E26E931E044E650E043
:102FD0006FEF72E080EA94E00E9487149C868B86F3
:102FE0001A8619865BE0C52ED12CCC0EDD1E69E059
:102FF000E62EF12CEC0EFD1E26E931E044E650E011
:1030000063E073E084E994E00E9487149C868B86D9
:103010001A8619867BE0C72ED12CCC0EDD1EE9E086
:10302000EE2EF12CEC0EFD1E26E931E049E150E0D8
:1030300067E073E088E894E00E9487149C868B86A2
:103040001A861986FBE0CF2ED12CCC0EDD1EA9E00E
:10305000EA2EF12CEC0EFD1E26E931E040E050E0B6
:103060006BE073E08CE794E00E94D1149C868B8621
:103070001A861986BBE0CB2ED12CCC0EDD1E89E042
:10308000E82EF12CEC0EFD1E26E931E048EE53E06F
:1030900060E173E080E794E00E94871460E774E0E9
:1030A00085E694E00E94CE1C10925D0410925E04AE
:1030B00010925F04109260046091980570919905D8
:1030C0008CE49DE10E94772570934604609345044B
:1030D00080ED97E090934804809347041092490450
:1030E00010924A0410924B0410924C0410924D041A
:1030F00010924E0410924F041092500410926104EA
:103100001092620410926304109264042C960FB61D
:10311000F894DEBF0FBECDBFDF91CF911F910F910D
:10312000FF90EF90DF90CF90BF90AF909F908F90E7
:103130007F906F905F904F9008958EE593E090930D
:1031400071048093700490937D0480937C04909329
:1031500089048093880490939504809394049093B9
:10316000A1048093A0049093AD048093AC04909349
:10317000B9048093B8049093C5048093C4049093D9
:10318000D1048093D0049093DD048093DC04909369
:10319000E9048093E8049093F5048093F4049093F9
:1031A0000305809302059093110580931005909379
:1031B0001D0580931C059093290580932805909305
:1031C0003505809334059093410580934005909395
:1031D0004D0580934C059093590580935805909325
:1031E00065058093640590937105809370059093B5
:1031F0007D0580937C059093890580938805909345
:103200009505809394059093A1058093A00508955A
:10321000FC018081833020F081E09181933008F4BB
:1032200080E00895FC0111821082148615861686AE
:1032300017861086118612861386148215821682CE
:1032400017820895CF92DF92FF920F931F93CF932F
:10325000DF9300D000D0CDB7DEB76C01DC01129651
:103260008C9149835A836B837C830E947A1FFF244D
:10327000F39449815A816B817C81892B09F4F12C6B
:10328000F6018381F8122FC00485158526853785C0
:10329000011511052105310509F44BC0DB01CA01F7
:1032A000801B910BA20BB30B83339105A105B105D4
:1032B00008F43FC0C60149835A836B837C830E9414
:1032C0000819182FC6010E94121949815A816B8171
:1032D0007C81112371F1D60118964D935D936D9306
:1032E0007C931B9726C0F6014487558766877787AE
:1032F000F3828081811108C09181911117C04483AC
:1033000055836683778312C0FF2031F08F3F89F0A9
:103310008F5FF60180830DC0D60111968C911197B5
:103320008F3F39F08F5F11968C9303C0F110F0CF6F
:10333000F3CF8F2D90E00F900F900F900F90DF91B3
:10334000CF911F910F91FF90DF90CF9008950F9331
:103350001F93CF93DF931F92CDB7DEB78C01862FDB
:10336000F801628360E049830E94DB1E49814423A7
:1033700029F061E0F80182810E94471FF801138261
:10338000C8010E9412190E94461EAB01BC01C8016F
:103390000F90DF91CF911F910F910C942219FC0196
:1033A000808591850895EF92FF920F931F93CF939D
:1033B000DF9300D000D0CDB7DEB77C0149835A83BC
:1033C0006B837C830E94081949815A816B817C81BF
:1033D0008823B9F0F7010085118522853385012BFB
:1033E000022B032B71F484819581A681B781481B40
:1033F000590B6A0B7B0B81E04C335105610571055C
:1034000008F080E090E00F900F900F900F90DF9108
:10341000CF911F910F91FF90EF9008950F931F93FD
:10342000CF93DF93EC010E940819811105C0088534
:1034300019852A853B8504C00E94461E8B019C018C
:103440008C819D81AE81BF81081B190B2A0B3B0B20
:10345000B801C901DF91CF911F910F9108950F938A
:103460001F93CF93DF93EC01842F798368834A8382
:103470005B830C831D832E833F8361E00E94DB1EF0
:1034800060E08A810E94471F61E088810E94DB1E04
:1034900061E08881DF91CF911F910F910C94471FBC
:1034A000CF93DF93EC0160E088810E94471F62E3C5
:1034B00070E080E090E00E947A1E61E088810E94C6
:1034C000471F64EF71E080E090E0DF91CF910C94B2
:1034D0007A1E1F93CF93DF93EC01162F8EEB97E0AC
:1034E0000E940C2161E0111101C060E08A810E94FC
:1034F000471FCE010E94501A111105C04C815D81F9
:103500006E817F8104C040E056E960E070E08EEBA0
:1035100097E00E94342064E670E080E090E0DF9164
:10352000CF911F910C947A1ECF93DF93EB0162EA47
:1035300073E08EEB97E00E940C23BE018EEB97E0C8
:103540000E940C2364EE73E08EEB97E00E940C2344
:103550008EEB97E00E940C2164E670E080E090E042
:10356000DF91CF910C947A1E04C08EEB97E00E94FD
:10357000E3208EEB97E00E94B22018161906ACF3F8
:103580000895CF92DF92EF92FF92CF930E94461E52
:103590006B017C011092E0060EC08EEB97E00E945A
:1035A000B220892B41F0C091E006C031B0F003C0D9
:1035B0008F5F8093E0060E94461E6C197D098E097C
:1035C0009F096C3D75408105910538F3E091E00657
:1035D000F0E0E053F94F108213C08EEB97E00E94A9
:1035E000E320EC2FF0E0E053F94F80838091E00678
:1035F000E82FF0E0E053F94F90819923E1F2D8CF22
:10360000CF91FF90EF90DF90CF900895CF93DF930D
:10361000EC0161E00E94691A66EA73E080ED96E0D1
:103620000E9492276C817D818E819F812AE030E00B
:1036300045ED56E00E94EF276CEA73E080ED96E0DE
:103640000E947E2760ED76E0CE010E94941A61EB25
:1036500073E0CE010E94941A68EB73E0CE010E94E1
:10366000941A60EC73E0CE010E94941A6AEC73E045
:10367000CE010E94941A68ED73E0CE010E94941A64
:10368000CE010E94B41A62EE73E08EEB97E00E94C6
:103690000C238EEB97E00E940C21CE010E94C11AF0
:1036A00060E0CE010E94691A8091E006823060F0ED
:1036B00042E050E063E272E080ED96E00E949927DC
:1036C0009C0181E0232B09F080E0DF91CF910895E8
:1036D000CF93DF93EC0161E00E94691ACE010E9452
:1036E000C11A60E0CE01DF91CF910C94691A80ED90
:1036F00096E008952BEE33E0FC013183208308959A
:103700002BEE33E0FC013183208308952BEE33E070
:10371000FC01318320830C941F232BEE33E0FC014A
:10372000318320830C941F2380EE97E00C94252393
:1037300080EE97E00C942A2387EF93E090930207A2
:103740008093010708958BEE93E090930207809396
:1037500001070895CF93DF93EC01862F6F831886BE
:103760001D821A82198291E0988321E030E03C8327
:103770002B83683038F0962F9850963030F425E23D
:1037800030E005C02BE230E002C028E230E03A87AA
:103790002987982F883020F09850963008F096505E
:1037A0009B8761E00E94DB1E60E08F81DF91CF91FB
:1037B0000C94471F21E0FC0125830895FC0115822C
:1037C0000895FC0165830895FC0172836183818102
:1037D00092812081820F911D948383830895FC013F
:1037E00071836083428308958F929F92AF92BF92BC
:1037F000CF92DF92EF92FF920F931F93CF93DF93BD
:10380000CDB7DEB72A970FB6F894DEBF0FBECDBF97
:103810007C01CB0166E871E00E9479275C018E0192
:103820000F5F1F4F66E871E080E090E00E9479270B
:10383000D8018D939D938D01892BA1F7F70182808B
:10384000912C00E010E0C12CD12C45C0D701ED91A6
:10385000FC91E00FF11F60817181C5010E948927F1
:103860009C01C8010696232B91F565E074E08EEB70
:1038700097E00E940C23B5018EEB97E00E940C2389
:1038800066E871E08EEB97E00E940C23D701ED9182
:10389000FC91E00FF11F0480F581E02DCE0101962F
:1038A0000995882319F066E871E002C06FEF73E0B4
:1038B0008EEB97E00E940C2363E272E08EEB97E0C0
:1038C0000E940C238EEB97E00E94DC2108C0BFEF22
:1038D000CB1ADB0A8C01C814D9040CF4B7CF2A9692
:1038E0000FB6F894DEBF0FBECDBFDF91CF911F9111
:1038F0000F91FF90EF90DF90CF90BF90AF909F908F
:103900008F900895FF920F931F93CF93DF93EC0155
:1039100005E017E080E2F82E8EEB97E00E94B220DF
:10392000892BB1F18EEB97E00E94E3208823A1F36D
:1039300020910307309104078A30E1F424303105E7
:103940007CF044E050E065E074E085E097E00E94A0
:103950009927009729F469E077E0CE010E94F41BD3
:10396000F8018F2D11928A95E9F7109204071092B1
:103970000307D2CF2F3131057CF6F901EB5FF84F09
:1039800080832F5F3F4F3093040720930307C4CFFA
:10399000DF91CF911F910F91FF900895FC017183EA
:1039A0006083168217821086118612821382148217
:1039B000158212860E94461E609325077093260783
:1039C00080932707909328070895CF93DF93EC0106
:1039D0000E94461E6E837F83888799876A837B83D4
:1039E0008C839D83DF91CF9108950F931F93CF9385
:1039F000DF93EC010E94461E0E811F8128853985C8
:103A0000601B710B820B930BE881F9810481158196
:103A100020E030E0061717072807390748F481E04F
:103A20008A870E94461E6E837F838887998701C09C
:103A30001A86DF91CF911F910F910895FC01828525
:103A40000895CF92DF92EF92FF920F931F938B0115
:103A50000E94461EC0902507D0902607E0902707B9
:103A6000F09028076C197D098E099F0920E030E04D
:103A7000601771078207930760F00E94461E6093EB
:103A8000250770932607809327079093280781E0E6
:103A900001C080E01F910F91FF90EF90DF90CF90D9
:103AA0000895CF92DF92EF92FF920F931F93CF93DF
:103AB000DF93EC018B010E94461ECE80DF80E884FC
:103AC000F9846C197D098E099F0920E030E041E0FE
:103AD000601771078207930708F040E0842FDF9199
:103AE000CF911F910F91FF90EF90DF90CF900895AD
:103AF0008230E8F4E82FF0E0EE0FFF1FE75DF84FAB
:103B000071836083813041F0809169008C7F842BC8
:103B100080936900E89A089580916900440F551FC9
:103B2000440F551F837F842B80936900E99A089581
:103B30001F920F920FB60F9211242F933F934F9322
:103B40005F936F937F938F939F93AF93BF93EF9305
:103B5000FF938091290790912A07892B29F0E09102
:103B60002907F0912A070995FF91EF91BF91AF9135
:103B70009F918F917F916F915F914F913F912F9185
:103B80000F900FBE0F901F9018951F920F920FB6B7
:103B90000F9211242F933F934F935F936F937F93D3
:103BA0008F939F93AF93BF93EF93FF9380912B07D6
:103BB00090912C07892B29F0E0912B07F0912C078D
:103BC0000995FF91EF91BF91AF919F918F917F9157
:103BD0006F915F914F913F912F910F900FBE0F907A
:103BE0001F9018951F920F920FB60F9211242F93CA
:103BF0003F934F935F936F937F938F939F93AF9375
:103C0000BF93209131073091320740913307509193
:103C1000340770913507DA01C9010296A11DB11D63
:103C2000672F6A5F6D3730F06D57DA01C90103966F
:103C3000A11DB11D60933507809331079093320722
:103C4000A0933307B093340780912D0790912E07EE
:103C5000A0912F07B09130070196A11DB11D80934F
:103C60002D0790932E07A0932F07B0933007BF9195
:103C7000AF919F918F917F916F915F914F913F9104
:103C80002F910F900FBE0F901F9018958FB7F8943B
:103C9000209131073091320740913307509134071A
:103CA0008FBFB901CA0108959FB7F89420912D07DD
:103CB00030912E0740912F075091300786B5A89B71
:103CC00006C08F3F21F02F5F3F4F4F4F5F4F9FBF89
:103CD000542F432F322F2227280F311D411D511DF4
:103CE00083E0220F331F441F551F8A95D1F7B90176
:103CF000CA010895EF92FF920F931F93CF93DF9322
:103D00007B018C010E94541EEB010EC00E94541EC8
:103D10006C1B7D0B685E7340C8F30894E108F108E2
:103D200001091109C851DC4FE114F1040105110525
:103D300069F7DF91CF911F910F91FF90EF90089558
:103D4000789484B5826084BD84B5816084BD85B576
:103D5000826085BD85B5816085BDEEE6F0E080813D
:103D600081608083E1E8F0E010828081826080835E
:103D7000808181608083E0E8F0E0808181608083E1
:103D8000E1EBF0E0808184608083E0EBF0E0808113
:103D900081608083EAE7F0E08081846080838081B5
:103DA000826080838081816080838081806880835D
:103DB0001092C1000895CF93DF93482F50E0CA01BD
:103DC00086569F4FFC0134914A575F4FFA01849108
:103DD000882369F190E0880F991FFC01E859FF4F93
:103DE000A591B491FC01EE58FF4FC591D491662383
:103DF00051F42FB7F8948C91932F909589238C933D
:103E0000888189230BC0623061F42FB7F8948C91BC
:103E1000932F909589238C938881832B88832FBF40
:103E200006C09FB7F8948C91832B8C939FBFDF9132
:103E3000CF910895833071F0843028F48130A1F05F
:103E4000823021F514C08630B1F08730D1F0843053
:103E5000E9F404C0809180008F7703C080918000D6
:103E60008F7D80938000089584B58F7702C084B5DC
:103E70008F7D84BD08958091B0008F778093B000CE
:103E800008958091B0008F7D8093B0000895FF92D7
:103E90000F931F93F62E482F50E0CA0182559F4F73
:103EA000FC012491CA0186569F4FFC0114914A5788
:103EB0005F4FFA0104910023C9F0222319F0822FE9
:103EC0000E941A1FE02FF0E0EE0FFF1FEE58FF4F89
:103ED000A591B4919FB7F894FF2021F48C9110958F
:103EE000812302C08C91812B8C939FBF1F910F91D6
:103EF000FF9008950F931F93482F50E0CA018255F9
:103F00009F4FFC012491CA0186569F4FFC010491EA
:103F10004A575F4FFA011491112319F420E030E061
:103F200015C0222319F0822F0E941A1F812F90E0C2
:103F3000880F991F84589F4FFC01A591B4918C91D3
:103F400020E030E0802311F021E030E0C9011F9132
:103F50000F91089508951F920F920FB60F9211249A
:103F60002F933F934F938F939F93EF93FF93809162
:103F7000C00082FD1DC04091C6002091760730919F
:103F800077072F5F3F4F2F733070809178079091A4
:103F900079072817390771F0E0917607F0917707D4
:103FA000EA5CF84F4083309377072093760702C08E
:103FB0008091C600FF91EF919F918F914F913F911A
:103FC0002F910F900FBE0F901F901895E091CA0788
:103FD000F091CB07E05CFF4F81919191208131817D
:103FE000821B930B8F739070892B11F00E94AA1F74
:103FF00008951F920F920FB60F9211242F933F93A3
:104000008F939F93EF93FF932091BA073091BB0753
:104010008091BC079091BD072817390731F4809132
:10402000C1008F7D8093C10014C0E091BC07F09166
:10403000BD07E658F84F20818091BC079091BD07DD
:1040400001968F7390709093BD078093BC07209367
:10405000C600FF91EF919F918F913F912F910F900B
:104060000FBE0F901F901895AF92BF92DF92EF9204
:10407000FF920F931F93CF93DF93EC017A018B0193
:10408000DD24D39491E0A92EB12CEC89FD89DD20AB
:1040900069F0C50108A002C0880F991F0A94E2F7D1
:1040A000808360E874E88EE190E005C0108260E4EF
:1040B00072E48FE090E0A80197010E948B252150C7
:1040C000304040405040569547953795279580E1C0
:1040D0002030380720F0DD2011F0DD24D6CFE8892C
:1040E000F9893083EA89FB89208319A2EE89FF8947
:1040F000408121E030E0C9010C8C02C0880F991F7B
:104100000A94E2F7482B4083EE89FF894081C90178
:104110000D8C02C0880F991F0A94E2F7482B408348
:10412000EE89FF894081C9010E8C02C0880F991F5A
:104130000A94E2F7482B4083EE89FF8980810F8C37
:1041400002C0220F331F0A94E2F720952823208310
:10415000DF91CF911F910F91FF90EF90DF90BF9073
:10416000AF900895DC011C96ED91FC911D97E05CE9
:10417000FF4F2191319180819181281B390B2F7341
:104180003070C9010895DC011C96ED91FC911D97DA
:10419000E05CFF4F20813181E054F040DF01AE5BF5
:1041A000BF4F8D919C9111972817390719F42FEF64
:1041B0003FEF07C08D919C91E80FF91F8081282F58
:1041C00030E0C9010895DC011C96ED91FC911D972A
:1041D000E05CFF4F20813181E054F040DF01AE5BB5
:1041E000BF4F8D919C9111972817390719F42FEF24
:1041F0003FEF10C08D919C911197E80FF91F20811E
:104200008D919C91119701968F73907011969C934C
:104210008E9330E0C9010895DC0191968C919197BD
:10422000882339F05496ED91FC915597808186FF53
:10423000F9CF91961C920895CF93DF93EC01EE8510
:10424000FF85E05CFF4F20813181E054F0402F5F1B
:104250003F4F2F733070DF01AE5BBF4F8D919C914C
:10426000119728173907D1F3E05CFF4F80819181C6
:10427000E054F040E80FF91F6083EE85FF85E05CB5
:10428000FF4F31832083EE89FF89208181E090E018
:104290000F8C02C0880F991F0A94E2F7282B208305
:1042A00081E089A3EC89FD8980818064808381E03D
:1042B00090E0DF91CF9108951092C1071092C0074E
:1042C00088EE93E0A0E0B0E08093C2079093C3072C
:1042D000A093C407B093C5078EE094E09093BF0706
:1042E0008093BE0786E397E09093CB078093CA073D
:1042F0008AE797E09093CD078093CC0785EC90E018
:104300009093CF078093CE0784EC90E09093D107F1
:104310008093D00780EC90E09093D3078093D207EE
:1043200081EC90E09093D5078093D40782EC90E0E5
:104330009093D7078093D60786EC90E09093D907A7
:104340008093D80784E08093DA0783E08093DB07CB
:1043500087E08093DC0785E08093DD0781E0809330
:10436000DE070895CF92DF92EF92FF920F931F9393
:10437000CF93DF937C016B018A01C0E0D0E00FC0D6
:10438000D6016D916D01D701ED91FC910190F08105
:10439000E02DC7010995C80FD91F01501040011524
:1043A000110571F7CE01DF91CF911F910F91FF9011
:1043B000EF90DF90CF900895EF92FF920F931F93AD
:1043C0008C01DC01ED91FC910190F081E02D6DE01C
:1043D00009957C01D801ED91FC910190F081E02DCF
:1043E000C8016AE009959C012E0D3F1DC9011F916E
:1043F0000F91FF90EF900895CF93DF93EC0161153B
:10440000710519F420E030E00FC0DB010D900020B1
:10441000E9F71197A61BB70BE881F9810280F381B8
:10442000E02DAD0109959C01C901DF91CF9108955F
:104430004F925F927F928F929F92AF92BF92CF9254
:10444000DF92EF92FF920F931F93DF93CF93CDB73D
:10445000DEB7A1970FB6F894DEBF0FBECDBF2C011B
:10446000742ECB01223008F42AE019A231E2C32EC7
:10447000D12CCC0EDD1E822E9924AA24BB24672DBC
:10448000752FA50194010E948B2579018A01C8012D
:10449000B701A50194010E946725472D461B08948A
:1044A000C108D1084A3010F4405D01C0495CF601F2
:1044B0004083E114F1040105110521F07E2C5F2DEC
:1044C000C801DDCFC201B6010E94FC21A1960FB642
:1044D000F894DEBF0FBECDBFCF91DF911F910F913A
:1044E000FF90EF90DF90CF90BF90AF909F908F9014
:1044F0007F905F904F900895DC012115310541F4C4
:10450000ED91FC910190F081E02D642F09950895C3
:104510000E9418220895EF92FF920F931F939A0121
:104520007B0100E010E0B801A7010E947C221F91EE
:104530000F91FF90EF900895CF92DF92EF92FF924C
:104540000F931F936C017B019A0100E010E0B8010A
:10455000A7010E947C228C01C6010E94DC21080F69
:10456000191FC8011F910F91FF90EF90DF90CF901E
:104570000895CF92DF92EF92FF920F931F93CF9304
:10458000DF93EC016A017B012115310541F4E881DB
:10459000F9810190F081E02D642F09951FC02A3028
:1045A0003105D1F477FF17C0E881F9810190F081DE
:1045B000E02D6DE209958C0144275527BA014C196D
:1045C0005D096E097F09CE012AE00E941822980138
:1045D000280F391F04C02AE00E9418229C01C9013B
:1045E000DF91CF911F910F91FF90EF90DF90CF90CF
:1045F0000895EF92FF920F931F937B019A0100277A
:10460000F7FC0095102FB801A7010E94B9221F9155
:104610000F91FF90EF9008950E94FC210895CF9391
:10462000DF930E94A01E0E943210C6EEDFE10E94BE
:104630000B112097E1F30E94E61FF9CF08950E9425
:104640008B2608950E94F0250895CB01642F0E94C7
:1046500048280895CB010E94402808955058BB2750
:10466000AA270ED075C166D130F06BD120F031F49D
:104670009F3F11F41EF45BC10EF4E095E7FB51C1BE
:10468000E92F77D180F3BA1762077307840795077C
:1046900018F071F49EF58FC10EF4E0950B2EBA2F31
:1046A000A02D0B01B90190010C01CA01A001112438
:1046B000FF27591B99F0593F50F4503E68F11A16E4
:1046C000F040A22F232F342F4427585FF3CF469575
:1046D00037952795A795F0405395C9F77EF41F1697
:1046E000BA0B620B730B840BBAF09150A1F0FF0F61
:1046F000BB1F661F771F881FC2F70EC0BA0F621F4D
:10470000731F841F48F4879577956795B795F7953C
:104710009E3F08F0B3CF9395880F08F09927EE0FCE
:10472000979587950895D9D008F481E008950CD025
:104730000FC107D140F0FED030F021F45F3F19F0F7
:10474000F0C0511139C1F3C014D198F39923C9F3C2
:104750005523B1F3951B550BBB27AA276217730787
:10476000840738F09F5F5F4F220F331F441FAA1F3B
:10477000A9F333D00E2E3AF0E0E830D091505040FB
:10478000E695001CCAF729D0FE2F27D0660F771FA9
:10479000881FBB1F261737074807AB07B0E809F08B
:1047A000BB0B802DBF01FF2793585F4F2AF09E3F20
:1047B000510568F0B6C000C15F3FECF3983EDCF3F2
:1047C000869577956795B795F7959F5FC9F7880F99
:1047D000911D9695879597F90895E1E0660F771FEB
:1047E000881FBB1F621773078407BA0720F0621B7C
:1047F000730B840BBA0BEE1F88F7E095089504D075
:104800006894B111D9C00895BCD088F09F5790F03A
:10481000B92F9927B751A0F0D1F0660F771F881FE5
:10482000991F1AF0BA95C9F712C0B13081F0C3D000
:10483000B1E00895C0C0672F782F8827B85F39F09E
:10484000B93FCCF3869577956795B395D9F73EF444
:1048500090958095709561957F4F8F4F9F4F0895EC
:10486000E89409C097FB3EF490958095709561950A
:104870007F4F8F4F9F4F9923A9F0F92F96E9BB27C0
:104880009395F695879577956795B795F111F8CF3C
:10489000FAF4BB0F11F460FF1BC06F5F7F4F8F4FA7
:1048A0009F4F16C0882311F096E911C0772321F09D
:1048B0009EE8872F762F05C0662371F096E8862F35
:1048C00070E060E02AF09A95660F771F881FDAF78C
:1048D000880F9695879597F90895990F0008550FB9
:1048E000AA0BE0E8FEEF16161706E807F907C0F076
:1048F00012161306E407F50798F0621B730B840B7E
:10490000950B39F40A2661F0232B242B252B21F457
:1049100008950A2609F4A140A6958FEF811D811DF7
:10492000089597F99F6780E870E060E008959FEF31
:1049300080EC089500240A94161617061806090636
:10494000089500240A941216130614060506089505
:10495000092E0394000C11F4882352F0BB0F40F48D
:10496000BF2B11F460FF04C06F5F7F4F8F4F9F4FCD
:10497000089557FD9058440F551F59F05F3F71F04F
:104980004795880F97FB991F61F09F3F79F08795B6
:104990000895121613061406551FF2CF4695F1DF3F
:1049A00008C0161617061806991FF1CF86957105CF
:1049B000610508940895E894BB2766277727CB0103
:1049C00097F908958ADF08F48FEF08950BD0C0CFD0
:1049D000B1DF28F0B6DF18F0952309F0A2CFA7CFFA
:1049E0001124EACFC6DFA0F3959FD1F3950F50E0D5
:1049F000551F629FF001729FBB27F00DB11D639F91
:104A0000AA27F00DB11DAA1F649F6627B00DA11D36
:104A1000661F829F2227B00DA11D621F739FB00DDC
:104A2000A11D621F839FA00D611D221F749F33274C
:104A3000A00D611D231F849F600D211D822F762FE5
:104A40006A2F11249F5750408AF0E1F088234AF0E2
:104A5000EE0FFF1FBB1F661F771F881F915050402E
:104A6000A9F79E3F510570F05CCFA6CF5F3FECF3F6
:104A7000983EDCF3869577956795B795F795E7951A
:104A80009F5FC1F7FE2B880F911D9695879597F92B
:104A90000895A29FB001B39FC001A39F01D0B29F10
:104AA000700D811D1124911D08950E944925B7FFA5
:104AB0000895821B930B08950E944925A59F900D90
:104AC000B49F900DA49F800D911D11240895DB01CA
:104AD0008F939F930E945C25BF91AF91A29F800D01
:104AE000911DA39F900DB29F900D11240895AA1BB4
:104AF000BB1B51E107C0AA1FBB1FA617B70710F0C9
:104B0000A61BB70B881F991F5A95A9F780959095FA
:104B1000BC01CD010895A1E21A2EAA1BBB1BFD0109
:104B20000DC0AA1FBB1FEE1FFF1FA217B307E4078C
:104B3000F50720F0A21BB30BE40BF50B661F771FE4
:104B4000881F991F1A9469F76095709580959095C4
:104B50009B01AC01BD01CF010895052E97FB16F412
:104B6000009407D057FD0DD00E948B2507FC09D07B
:104B70007EF490958095709561957F4F8F4F9F4FF4
:104B8000089550954095309521953F4F4F4F5F4F79
:104B90000895EE0FFF1F0590F491E02D0994EF9218
:104BA0000F931F93CF93C02F47FF02C034E101C082
:104BB00034E0E42FFF27E7FDF095F7FF03C0F19500
:104BC000E195F109E32E022F2E2F4C2F512F0E9439
:104BD00056288C2F912FCF911F910F91EF90089510
:104BE0000F931F93CF93DF938230910510F482E0EF
:104BF00090E0E091E307F091E40720E030E0C0E0CE
:104C0000D0E023C04081518148175907A8F04817C8
:104C1000590761F482819381209719F09B838A83DD
:104C20002EC09093E4078093E30729C02115310536
:104C300029F04217530710F0A90102C0BE01DF019D
:104C400002811381EF019A01F8013097D9F62115FD
:104C5000310509F1281B390B2430310590F41296E7
:104C60008D919C9113976115710521F0FB01938340
:104C7000828304C09093E4078093E307FD0132969A
:104C800044C0FD01E20FF31F81939193225031093B
:104C90002D933C933AC02091E1073091E207232BFA
:104CA00041F420911201309113013093E2072093D7
:104CB000E10720911001309111012115310541F4D6
:104CC0002DB73EB74091140150911501241B350BAF
:104CD000E091E107F091E207E217F307A0F42E1B41
:104CE0003F0B2817390778F0AC014E5F5F4F241750
:104CF000350748F04E0F5F1F5093E2074093E107DE
:104D00008193919302C0E0E0F0E0CF01DF91CF9179
:104D10001F910F910895EF92FF920F931F93CF93DE
:104D2000DF93009709F48FC0DC01129713961C9251
:104D30001E921297E090E307F090E407E114F1046B
:104D400089F42D913C911197280F391F8091E1072B
:104D50009091E2078217930789F5B093E207A09339
:104D6000E10771C0E70120E030E001C0EA01CA17A5
:104D7000DB0738F44A815B819E0141155105B1F78B
:104D800022C0BC0162507109FB01D383C283008140
:104D90001181AC01400F511F4C175D0761F4488130
:104DA0005981400F511F4E5F5F4F518340834A81AD
:104DB0005B81538342832115310529F4B093E407C5
:104DC000A093E30740C0F901B383A283E90169918D
:104DD0007991C60FD71FAC17BD0779F4DC015E913E
:104DE0004E91460F571F4E5F5F4F5183408312967F
:104DF0008D919C91139793838283A0E0B0E002C0D1
:104E0000D7017C01F701828193810097C9F7C7011F
:104E1000029620813181820F931F2091E10730910A
:104E2000E2072817390779F4109729F41092E4075C
:104E30001092E30704C013961C921E921297F092F0
:104E4000E207E092E107CDB7DEB7E6E00C944B2C29
:104E5000662777270C94D329FC0188279927E894A3
:104E600021912032E9F3293010F02E30C8F32B3293
:104E700041F02D3239F4689404C00E943828820F22
:104E8000911D219120532A30C0F31EF490958195F5
:104E90009F4F08951F93FC0199278827BC01E89430
:104EA00011911032E9F3193010F01E30C8F31B32A3
:104EB00051F01D3249F4689406C00E942328610F06
:104EC000711D811D911D119110531A30B0F33EF4E4
:104ED00090958095709561957F4F8F4F9F4F1F9153
:104EE0000895911185C4803219F089508550D0F70A
:104EF00008954AE154E00E94A7270895FB01DC01D0
:104F00000D900020E9F7119701900D920020E1F734
:104F10000895FB01DC018D91019080190110D9F3F6
:104F2000990B0895FB01DC0101900D920020E1F73F
:104F30000895FB01DC014150504030F08D9101900B
:104F4000801919F40020B9F7881B990B0895FA010C
:104F5000A191B081009719F41097E1F0CD01DC0127
:104F6000CD010D90002011F4C00113C0FB0121916F
:104F7000222319F02015D9F7F3CFFB012191201539
:104F800019F41E92119606C02223C1F70D9000203D
:104F9000A1F7D001FA01A193B0830895FB019F010D
:104FA000E8944230C4F04532B4F44A3029F497FB17
:104FB0001EF4909581959F4F642F77270E94772547
:104FC000805D8A330CF0895D8193CB010097A1F756
:104FD00016F45DE251931082C9010C94132CFA016E
:104FE000CF93FF93EF93223044F1253234F5C22F53
:104FF000E894CA3049F497FB3EF4909580957095FB
:1050000061957F4F8F4F9F4F2C2F33274427552774
:10501000FF93EF930E948B25EF91FF91605D6A33C0
:105020000CF0695D6193B901CA0160507040804025
:10503000904051F716F4CDE2C19310828F919F9169
:10504000CF910C94132C592F482F372F262F660FF2
:10505000771F881F991F660F771F881F991F620F80
:10506000731F841F951F660F771F881F991F089550
:105070007AE0979F902D879F802D910D11240895A0
:10508000F999FECF92BD81BDF89A992780B5089510
:10509000262FF999FECF1FBA92BD81BD20BD0FB654
:1050A000F894FA9AF99A0FBE019608956F927F923A
:1050B0009F92AF92BF92CF92DF92EF92FF920F93A7
:1050C0001F93CF93DF93CDB7DEB729970FB6F89430
:1050D000DEBF0FBECDBF6A01B22E102F0C3318F405
:1050E000F02EF39402C05CE3F52E0F2D27E0AE0105
:1050F0004F5F5F4F0E94202B7981272F297021302D
:1051000031F0E1FC06C0E0FE06C060E205C06DE2E1
:1051100003C06BE201C060E073FF3DC0662311F085
:1051200084E001C083E08B1510F4B81A01C0B12CE3
:10513000E4FC0BC08B2DF60190E202C091938150EC
:105140008111FCCFCB0CD11CB12C662319F0D601F8
:105150006D936D01E2FE0AC08EE4F601808391E456
:1051600091838283F3E0CF0ED11C0CC08EE6D60172
:105170008C9391E611969C93119712968C93B3E0C1
:10518000CB0ED11C8B2DF60190E202C09193815081
:105190008111FCCF40C072FF45C0662311F084E04E
:1051A00001C083E08B1510F4B81A01C0B12CE4FCE7
:1051B0000BC08B2DF60190E202C0919381508111BA
:1051C000FCCFCB0CD11CB12C662319F0F6016193F6
:1051D0006F01E2FE0EC089E4D6018C938EE4119635
:1051E0008C93119786E412968C93B3E0CB0ED11C6E
:1051F0000AC089E6F60180838EE6818386E6828393
:10520000F3E0CF0ED11C8B2DF60190E202C09193FA
:1052100081508111FCCFF601EB0DF11D10822EEFB4
:105220003FEFACC0A1E0611101C0A0E04A2F50E007
:105230001816190624F49C012F5F3F4F02C021E08D
:1052400030E0240F351F112329F0412F50E04F5F2C
:105250005F4F02C040E050E0420F531F2B2D30E063
:105260004217530714F4B41A01C0B12C3E2D30710B
:10527000E4FC0DC0E3FC0BC02B2DF60140E202C0A4
:10528000419321502111FCCFCB0CD11CB12CAA236E
:1052900019F0D6016D936D0131110BC02B2DF60164
:1052A00030E302C0319321502111FCCFCB0CD11C33
:1052B000B12CF80E0A8140E1A42EA72274FF03C08E
:1052C000013309F4FA941F142CF42F2D293018F00F
:1052D00028E001C021E0AC0197FF02C040E050E0AF
:1052E00060E070E03EE2932EFC01E21BF1099F01B9
:1052F000DC01A41BB50BFE013196EA0FFB1FA12FA9
:10530000B0E0662477246A1A7B0A4F3F1FEF5107EB
:1053100019F4D6019D926D018417950754F0241756
:1053200035073CF47F01E60EF71ED70111961C915C
:1053300001C010E3415051096F5F7F4F461557057B
:1053400024F0D6011D936D01E0CF4817590739F4B9
:10535000063320F4053319F4A11001C011E3F6015E
:1053600011938B2DDF0190E202C09D93815081113A
:10537000FCCFEB0DF11D108220E030E0C901299631
:105380000FB6F894DEBF0FBECDBFDF91CF911F9156
:105390000F91FF90EF90DF90CF90BF90AF909F90D4
:1053A0007F906F900895A0E0B0E0E9EDF9E20C94F1
:1053B000292C7B016115710521F0DB018C9311967D
:1053C0009C93EC01C9908E018C2D90E00E94712776
:1053D000892BC1F7BDE2CB1206C0FE01C1908F013F
:1053E000DD24D39407C0FBE2CF1203C0DE01CD90D1
:1053F0008D01D12CE801219743E050E062EC70E090
:10540000CE010E94FB2B892BC9F4E801229645E0CE
:1054100050E065EC70E0CE010E94FB2B892B11F46B
:10542000E8012796E114F10419F0F701D183C08354
:10543000812C912C90E8D110F3C0F7C043E050E0EC
:105440006AEC70E0CE010E94FB2B892B51F4E11431
:10545000F10409F4E7C00E5F1F4FD7010D931C93B1
:10546000E1C060E070E0CB01C0E0D0E0EC2DE053A3
:10547000EA3020F5FD2DF2602D2D2870D2FE04C0FB
:10548000211122C0219620C021112197A5E0B0E072
:105490009B01AC010E945C25660F771F881F991F36
:1054A0006E0F711D811D911D6839B9E97B078B074E
:1054B000B9E19B0748F0FD2DF66006C0EE3F49F4C8
:1054C000D3FC43C0FD2DF860D801CD908D01DF2EB7
:1054D000CDCFE53311F0E531C1F5F801A081AD3252
:1054E00019F4F0E1DF2A07C0AB3229F00F5F1F4F3C
:1054F00021E030E006C0F801A1810E5F1F4F22E0DD
:1055000030E0A053AA3018F0021B130B1EC0F801A4
:1055100020E030E020384CE034075CF4A901440F6F
:10552000551F440F551F240F351F220F331F2A0FFD
:10553000311DA191A0538F01AA3060F3D4FE03C0A6
:10554000319521953109C20FD31FD1FE08C0E11456
:10555000F10429F001501109D7010D931C930E9409
:1055600030242D2D2370233019F04B015C0105C030
:10557000DC01CB01B0584C015D0120E030E0A90115
:10558000682D792D8A2D9B2D0E949323882309F461
:1055900044C0D7FF06C0D195C195D10909EF10E0ED
:1055A00002C001EE10E06801B8E1CB1AD10890E228
:1055B000E92EF12C13C0F80185919591A591B49134
:1055C000282F392F4A2F5B2F682D792D8A2D9B2D5F
:1055D0000E94E6244B015C01CE19DF09CE15DF05E0
:1055E00054F704501109F594E7940C151D05B1F713
:1055F000B401C501282F220F292F221F2F3F39F078
:1056000020E030E0A9010E949323811106C082E2CC
:1056100090E09093E6078093E5079A2D8B2D06C0C6
:105620008FEF04C0812C912C90EC8FE79C01682DAA
:10563000792D832F922FCDB7DEB7ECE00C94452C5B
:10564000283008F027E03327DA01990F311D87FD54
:10565000916000966105710539F432602E5F3D93CB
:1056600030E32A95E1F708959F3F30F080387105C7
:10567000610509F03C5F3C5F3D93913008F0806824
:10568000911DDF93CF931F930F93FF92EF92192FEA
:10569000987F9695E92F96959695E90FFF27E95AF9
:1056A000FE4F99273327EE24FF24A701E701059039
:1056B0000894079428F4360FE71EF81E491F511D61
:1056C000660F771F881F991F0694A1F7059007940E
:1056D00028F4E70EF81E491F561FC11D770F881FBB
:1056E000991F661F0694A1F70590079428F4F80EF9
:1056F000491F561FC71FD11D880F991F661F771F8F
:105700000694A1F70590079420F4490F561FC71F70
:10571000D81F990F661F771F881F0694A9F78491D9
:105720001095177041F0D695C79557954795F79402
:10573000E7941A95C1F7EDEFF0E068941590159194
:1057400035916591959105907FE27395E118F10A85
:10575000430B560BC90BD009C0F7E10CF11E431FD8
:10576000561FC91FD01D7EF4703311F48A95E6CF01
:10577000E894015030F0080F0AF40027021708F4EB
:10578000202F2395022F7A3328F079E37D932A95F1
:10579000E9F710C07D932A9589F606949795679549
:1057A000379517951794E118F10A430B560BC90B5F
:1057B000D00998F023957E9173957A3308F070E3C1
:1057C0007C932013B8F77E9170617D9330F08395C0
:1057D00071E37D9370E32A95E1F71124EF90FF9038
:1057E0000F911F91CF91DF91992787FD9095089593
:1057F000992788270895FB01DC014150504088F02B
:105800008D9181341CF08B350CF4805E6591613490
:105810001CF06B350CF4605E861B611171F3990B03
:105820000895881BFCCFDC01FC01672F7191772361
:10583000E1F7329704C07C916D9370836291AE174B
:10584000BF07C8F308952F923F924F925F926F92D5
:105850007F928F929F92AF92BF92CF92DF92EF9200
:10586000FF920F931F93CF93DF93CDB7DEB7CA1B81
:10587000DB0B0FB6F894DEBF0FBECDBF09942A88AC
:10588000398848885F846E847D848C849B84AA8454
:10589000B984C884DF80EE80FD800C811B81AA81E1
:1058A000B981CE0FD11D0FB6F894DEBF0FBECDBFAC
:1058B000ED01089512E0CEEFD1E004C0FE010E9498
:0E58C000CB252296C230D107C9F7F894FFCF4E
:1058CE006E616E00696E66006F7666002E000000D7
:1058DE000000E7072000160300007A011C030000F9
:1058EE00F9092103000042062803010088029A02EA
:1058FE0001004F022E0302004E09A50101000E0900
:10590E002C0301003D04320300008801390301001D
:10591E0058023E030200D10444030000CE014A03A4
:10592E00000033024F0300007202A0010000850444
:10593E00560301002F0401905F01006D65436F66F1
:10594E006665652056342000706362205637006409
:10595E00626700256600256400256C6400656E0094
:10596E00706F6C790067657400746D727300746D7E
:10597E0072670062746E616D6500735F00636D64C3
:10598E002067657420007069642000736874006479
:10599E00626720427574746F6E2072656C656173F8
:1059AE0065640041540046696E69736865642073CE
:1059BE006574757000746D7000696E6600506F7757
:1059CE00657220627574746F6E2073776974636884
:1059DE006564206F66660070696420302030203068
:1059EE002030204F4B00506F7765722062757474B3
:1059FE006F6E207377697463686564206F6E0057ED
:105A0E00616B65642075700057616B65642C206254
:105A1E0075742077656E7420746F20736C65657075
:105A2E0020616761696E206166746572203120683D
:105A3E006F7572007064317000706431690070644B
:105A4E003164007064316C636B00706431696D7821
:105A5E0000746D70737000746D7073746D00706986
:105A6E006E626C007069766C7600746D70636E7425
:105A7E006E7300746D72776E626C00746D72736EFD
:105A8E00626C00746D7270777200746D726F6E005E
:105A9E00746D726F666600746D7070617000636E07
:105AAE007467726E647200627473747000706973DE
:105ABE007472740070697072640067726E64007044
:105ACE007031007070320070707400733263720047
