:100000000C946F010C9442210C9469210C9497017B
:100010000C9497010C9497010C947E140C94970106
:100020000C9497010C9497010C9497010C945E0D1D
:100030000C9497010C9497010C9497010C949701E0
:100040000C9490210C9497010C945E240C949024B1
:100050000C9497010C9497010C9497010C949701C0
:100060000C9497010C949701746D722057616B6525
:10007000642C206275742077656E7420746F207311
:100080006C65657020616761696E20616674657278
:10009000203120686F757200746D7220536875741A
:1000A000206F666600706964203020302030203078
:1000B00000746D722053687574206F6666206475D5
:1000C0006520746F20696E61637469766974790064
:1000D000706964203020302030203000746D722030
:1000E00057616B65642075700057445420666972CF
:1000F0006564006462672046696E697368656420A0
:100100007365747570007069642030203020302071
:100110003000706964203020302030203000706959
:10012000642036353533352030203020300070697A
:100130006420302030203020300070696420363553
:100140003533362030203020300000000008000217
:10015000010000030407000000000000000001028D
:100160000408102040800102040810200102040845
:100170001020040404040404040402020202020223
:1001800003030303030300000000230026002900EB
:1001900000000000250028002B00000000002400C3
:1001A00027002A004E414E494E495459494E46CDEA
:1001B000CCCC3D0AD7233C17B7D13877CC2B32951E
:1001C00095E6241FB14F0A000020410000C84200FC
:1001D000401C4620BCBE4CCA1B0E5AAEC59D7400C6
:1001E000407A10F35A00A0724E18090010A5D4E806
:1001F0000000E87648170000E40B54020000CA9A99
:100200003B000000E1F505000080969800000040EA
:10021000420F000000A0860100000010270000002F
:1002200000E803000000006400000000000A000075
:100230000000000100000000002C76D888DC674F29
:100240000823DFC1DFAE59E1B1B796E5E3E453C659
:100250003AE651997696E8E6C28426EB898C9B6251
:10026000ED407C6FFCEFBC9C9F40F2BAA56FA5F4FB
:1002700090055A2AF75C936B6CF9676DC11BFCE023
:10028000E40D47FEF520E6B500D0ED902E03009476
:100290003577050080841E080000204E0A0000000B
:1002A000C80C333333330F986E12831141EF8D2115
:1002B00014893BE65516CFFEE6DB18D1844B381B7C
:1002C000F77C1D901DA4BBE424203284725E228141
:1002D00000C9F124ECA1E53D27002C18C02411240D
:1002E0001FBECFEFD8E0DEBFCDBF13E0A0E0B1E08E
:1002F000ECECF2E602C005900D92A23CB107D9F7F2
:1003000028E0A2ECB3E001C01D92A930B207E1F7EA
:1003100011E0CFE6D1E004C02197FE010E94182928
:10032000CD36D107C9F70E942E260C9464310C9467
:1003300000000496089584E008958AE208950496E2
:10034000089582E008958AE208950496089582E06F
:1003500008958AE2089561E871E086E697E00E94D8
:100360004F256CE871E086E697E00E944F2581E01A
:100370000895CF93DF93C0919206D091930663E9DD
:1003800071E086E697E00E944F254AE050E0BE010A
:1003900086E697E00E9415266DE971E086E697E013
:1003A0000E944F2586E697E0DF91CF910C94582567
:1003B00060911604709117044AE050E086E697E0D9
:1003C0000E94152686E697E00E94582581E0089550
:1003D000CF93DF93C091CC03D091CD0361EA71E05C
:1003E00086E697E00E944F254AE050E0BE0186E68F
:1003F00097E00E9415266DE971E086E697E00E947D
:100400004F2586E697E0DF91CF910C9458250F9306
:100410001F93CF93DF93EC0180E1E7E2F7E0DF0188
:100420001D928A95E9F76A857B8582EB91E00E94AF
:10043000AC2C892B61F46C817D818E819F810E941F
:100440005A2707E217E022E046E00E941E296A854B
:100450007B8585EB91E00E94AC2C892B39F44AE036
:1004600067E277E08C819D810E94F12C6A857B8513
:1004700088EB91E00E94AC2C892B49F46C817D8142
:100480008E819F812AE047E257E00E94FC2C87E2A0
:1004900097E0DF91CF911F910F9108950F931F93D4
:1004A000CF93DF93EC0180E1E7E2F7E0DF011D92FB
:1004B0008A95E9F76885798582EB91E00E94AC2CFA
:1004C000892B71F46C817D81072E000C880B990BB0
:1004D0000E945C2707E217E022E046E00E941E2906
:1004E0006885798585EB91E00E94AC2C892B39F4E5
:1004F0004AE067E277E08C819D810E94F12C68855B
:10050000798588EB91E00E94AC2C892B59F46C81A1
:100510007D81072E000C880B990B2AE047E257E0FB
:100520000E94FC2C87E297E0DF91CF911F910F9101
:1005300008950F931F93CF93DF93EC0180E1E7E2DF
:10054000F7E0DF011D928A95E9F76885798582EBEE
:1005500091E00E94AC2C892B61F46C817D8180E05C
:1005600090E00E945A2707E217E022E046E00E944E
:100570001E296885798585EB91E00E94AC2C892B3A
:1005800039F44AE067E277E08C819D810E94F12C8A
:100590006885798588EB91E00E94AC2C892B49F421
:1005A0006C817D8180E090E02AE047E257E00E9484
:1005B000FC2C87E297E0DF91CF911F910F91089576
:1005C000FC01808191810E944E2C80930A0480E07E
:1005D0000895CF92DF92EF92FF92CF93DF93C09175
:1005E0001604D0911704C090A304D090A404E09006
:1005F000A504F090A6046CEB71E086E697E00E94FB
:100600004F256AE871E086E697E00E944F252AE0D0
:1006100030E0B701A60186E697E00E9401266AE86D
:1006200071E086E697E00E944F259E01A3ECB0E0C2
:100630000E94E32828E436E040E050E00E94C4280D
:10064000CA01B9014AE050E086E697E00E9415260B
:1006500086E697E00E94582581E0DF91CF91FF90D8
:10066000EF90DF90CF9008958F929F92AF92BF92BC
:10067000CF92DF92EF92FF92C090D403D090D50337
:10068000E090D603F090D7038091D8039091D903DE
:10069000A091DA03B091DB03C81AD90AEA0AFB0A6F
:1006A0008090A3049090A404A090A504B090A60408
:1006B00061EC71E086E697E00E944F256AE871E000
:1006C00086E697E00E944F252AE030E0B501A401BC
:1006D00086E697E00E9401266AE871E086E697E0E8
:1006E0000E944F252AE030E0B701A60186E697E098
:1006F0000E9401266DE971E086E697E00E944F2591
:1007000086E697E0FF90EF90DF90CF90BF90AF909C
:100710009F908F900C9458258F929F92AF92BF928A
:10072000CF92DF92EF92FF92C090FC05D090FD0532
:100730000D2C000CEE08FF088091B3049091B404D6
:10074000092E000CAA0BBB0BA7019601281B390B25
:100750004A0B5B0BA4ECB9E00E94F928A7019601B3
:100760000E94A22824523A4F4F4F5F4FA5E0B0E0BD
:100770000E94F9286B017C016093B8047093B9045E
:100780008093BA049093BB048090A3049090A40437
:10079000A090A504B090A60465EC71E086E697E011
:1007A0000E944F256AE871E086E697E00E944F2597
:1007B0002AE030E0B501A40186E697E00E94012618
:1007C0006AE871E086E697E00E944F252AE030E073
:1007D000B701A60186E697E00E94B02586E697E07D
:1007E0000E94582581E0FF90EF90DF90CF90BF905E
:1007F000AF909F908F9008954F925F926F927F92EB
:100800008F929F92AF92BF92CF92DF92EF92FF9220
:10081000CF93DF9300D000D0CDB7DEB728EB34E024
:10082000D9015E968D919D910D90BC91A02D8983EB
:100830009A83AB83BC83F901C28CD38CE48CF58C96
:1008400086889788A08CB18C428853886488758884
:1008500069EC71E086E697E00E944F252AE030E0DF
:10086000B301A20186E697E00E94B0256AE871E034
:1008700086E697E00E944F252AE030E0B501A4010A
:1008800086E697E00E94B0256AE871E086E697E088
:100890000E944F252AE030E0B701A60186E697E0E6
:1008A0000E94B0256AE871E086E697E00E944F2535
:1008B0002AE030E049815A816B817C8186E697E0AD
:1008C0000E94B0256DE971E086E697E00E944F2511
:1008D00086E697E00F900F900F900F90DF91CF91E9
:1008E000FF90EF90DF90CF90BF90AF909F908F9050
:1008F0007F906F905F904F900C945825CF93C0E2FB
:10090000C15078F0EC2FF0E0EE0FFF1FE65AFB4FDE
:10091000608171814AE050E086E697E00E941B26E4
:10092000EFCF81E0CF9108953F924F925F926F9207
:100930007F928F929F92AF92BF92CF92DF92EF926F
:10094000FF920F931F93CF93DF9380910A0481113D
:10095000ACC0E8EFF5E0A480B5808090C90390902A
:10096000CA03C0915A04D0915B04009116041091FF
:10097000170430900604E090B104F090B204C090E7
:10098000B304D090B4044090A3045090A4046090A9
:10099000A5047090A6046EEC71E086E697E00E94D4
:1009A0004F256AE871E086E697E00E944F252AE02D
:1009B00030E0B301A20186E697E00E9401266AE8D2
:1009C00071E086E697E00E944F254AE050E0B501CD
:1009D00086E697E00E9415266AE871E086E697E0D1
:1009E0000E944F254AE050E0B60186E697E00E945B
:1009F000FA256AE871E086E697E00E944F254AE012
:100A000050E0B70186E697E00E94FA256AE871E0B7
:100A100086E697E00E944F254AE050E0632D86E687
:100A200097E00E940E266AE871E086E697E00E9451
:100A30004F254AE050E0B80186E697E00E9415266F
:100A40006AE871E086E697E00E944F254AE050E0B0
:100A5000BE0186E697E00E9415266AE871E086E608
:100A600097E00E944F254AE050E0B40186E697E007
:100A70000E9415266DE971E086E697E00E944F25F9
:100A800086E697E0DF91CF911F910F91FF90EF9055
:100A9000DF90CF90BF90AF909F908F907F906F909E
:100AA0005F904F903F900C945825EEEEF5E053CFB9
:100AB0008091140490911504499708F4ACC080917A
:100AC000160490911704892B41F48091140490919D
:100AD0001504909317048093160480911604909146
:100AE00017042091140430911504820F931F9695DA
:100AF0008795909317048093160480910704809340
:100B000006041092070410921504109214048091A8
:100B1000CF06882309F460C08091CC068093D0066C
:100B20008091D406882309F459C08091D10680931E
:100B3000D5068091CA06882309F452C08091C70661
:100B40008093CB0685B1897F85B95B9880910C0431
:100B500090910D04A0910E04B0910F04892B8A2B63
:100B60008B2B21F080910B0481113CC080910504F6
:100B70008F5F809305042091660190E030E0220FA2
:100B8000331F8217930711F510920504809110040A
:100B900090911104A0911204B09113040196A11D2B
:100BA000B11D8093100490931104A0931204B0938C
:100BB000130481389145A140B10540F01092100412
:100BC00010921104109212041092130480910804E0
:100BD0008F5F80930804089580E0A0CF80E0A7CFC6
:100BE00080E0AECF80910C0490910D04A0910E0492
:100BF000B0910F048093100490931104A0931204F9
:100C0000B093130410920C0410920D0410920E0471
:100C100010920F04ABCF089542E050E062ED71E016
:100C2000FC01808191810E94BC2C61E0892B81F4C0
:100C300080E10E94A92260E080E10E94E52260E05C
:100C400080E10E94A92281E08093E20381E008957F
:100C500080E10E94A92261E080E10E94E5221092D9
:100C6000E203F4CFEF92FF921F93CF93DF937C01C7
:100C7000EB01DC018D919C91DC01ED91FC910480F4
:100C8000F581E02D0995182FF70180819181BE0132
:100C90006F5F7F4FDC01ED91FC910480F581E02DC9
:100CA0000995212F30E0F901F82BCF01DF91CF9189
:100CB0001F91FF90EF900895FC0140815181FB014D
:100CC000208131814217530738F081E090E02417EA
:100CD000350720F080E008958FEF9FEF0895CF93C0
:100CE00080E090E00E941731C82F65ED71E086E644
:100CF00097E00E944F256C2F70E04AE050E086E6B6
:100D000097E00E94FA256DE971E086E697E00E947F
:100D10004F2586E697E0CF910C9458250F931F93AB
:100D2000CF93DF938C01FC01C081D18143E050E07F
:100D30006AE273E0CE010E94BC2C892BB1F4F80169
:100D4000828193810E946C2C60930C0470930D043B
:100D500080930E0490930F0481E080930B0481E054
:100D6000DF91CF911F910F91089543E050E063EE22
:100D700071E0CE010E94BC2C892B79F440911004C3
:100D80005091110460911204709113042AE030E034
:100D900086E697E00E940126E2CF43E050E067EE4E
:100DA00071E0CE010E94BC2C892B91F4F801828164
:100DB00093810E944E2C092E000CAA0BBB0B809332
:100DC000670190936801A0936901B0936A01C7CF4E
:100DD00043E050E06CEE71E0CE010E94BC2C892B08
:100DE00009F0BDCF409167015091680160916901A0
:100DF00070916A01CBCFEF92FF920F931F93CF9325
:100E0000DF93EC01F62E88819981DC01ED91FC9154
:100E10000680F781E02D462F61E070E0099588811A
:100E20009981DC01ED91FC910680F781E02D4F2D39
:100E300062E070E00995888199818E010E5A1F4FFA
:100E4000F8016081718161507109DC01ED91FC91C3
:100E50000680F781E02D4F2D099588819981F80151
:100E60006081718162507109DC01ED91FC91068015
:100E7000F781E02D4F2D099588819981DC01ED9155
:100E8000FC910680F781E02D47E063E070E0099572
:100E900088819981DC01ED91FC910680F781E02D3C
:100EA00040E064E070E0099588819981F801408113
:100EB0004350DC01ED91FC910680F781E02D65E067
:100EC00070E0099588819981F80120813181235052
:100ED0003109DC01ED91FC910680F781E02D432F73
:100EE00066E070E0099588819981DC01ED91FC91C3
:100EF0000680F781E02D40E067E070E0099587E02B
:100F0000E82EF12CF801808191810297E816F9060C
:100F100078F488819981DC01ED91FC910680F7815C
:100F2000E02D40E0B7010995BFEFEB1AFB0AEACFCD
:100F3000DF91CF911F910F91FF90EF900895CF9285
:100F4000DF92EF92FF921F93CF93DF93EC01CB01DF
:100F5000122F798368837E0122E5E20EF11CD7010E
:100F60004D935C93FE01EC5AFF4F118210826E018B
:100F7000B6E5CB0ED11CF6011082DB01ED91FC91A0
:100F80000480F581E02D61E070E0099518132DC013
:100F900088819981DC01ED91FC910480F581E02D3F
:100FA00062E070E00995181320C088819981F701EB
:100FB0006081718161507109DC01ED91FC910480C7
:100FC000F581E02D0995181310C088819981F701EA
:100FD0006081718162507109DC01ED91FC910480A6
:100FE000F581E02D0995181739F0612FCE010E9487
:100FF000FB0681E0F6018083DF91CF911F91FF9086
:10100000EF90DF90CF9008953F924F925F926F9252
:101010007F928F929F92AF92BF92CF92DF92EF9288
:10102000FF920F931F93CF93DF93CDB7DEB72A972D
:101030000FB6F894DEBF0FBECDBF6C014B01DC01D3
:101040008D919C91DC01ED91FC910480F581E02D66
:1010500063E070E00995482EF60180819181DC0102
:10106000ED91FC910480F581E02D64E070E009953C
:10107000512C582A07E010E08AE0382EFE01319604
:101080005F01041515052CF5D501E32D1D92EA9598
:10109000E9F73501D6018D919C917801BFEFEB1AEC
:1010A000FB0ADC01ED91FC910480F581E02DB80193
:1010B0000995F30181933F01811109C0B501C40174
:1010C0000E94AC2C892B39F00B5F1F4FDACF8701C0
:1010D000E1CFE12CF12CC7012A960FB6F894DEBFC0
:1010E0000FBECDBFDF91CF911F910F91FF90EF9079
:1010F000DF90CF90BF90AF909F908F907F906F9038
:101100005F904F903F9008956F927F928F929F9241
:10111000AF92BF92CF92DF92EF92FF920F931F9305
:10112000CF93DF93EC015B017A0188819981DC0127
:10113000ED91FC910480F581E02D63E070E009956C
:10114000C82E88819981DC01ED91FC910480F581A4
:10115000E02D64E070E00995D12CD82A86018881C1
:101160009981DC01ED91FC910480F581E02D65E031
:1011700070E00995682E88819981DC01ED91FC91E0
:101180000480F581E02D66E070E00995712C782AE5
:10119000202F2C1930E0F50101900020E9F731975C
:1011A000EA19FB09C80101964C01E217F30780F028
:1011B000888199812A0D3B1DDC01ED91FC9106800F
:1011C000F781E02DD9014C91B80109958401E0CF58
:1011D000D701ED91FC910280F381E02DC7010995C3
:1011E00090E00197681A790A88819981DC01ED9174
:1011F000FC910680F781E02D462DB8010995888184
:101200009981DC01ED91FC910680F781E02D472D5D
:10121000B4010995B1E06B1A710888819981DC01EC
:10122000ED91FC910680F781E02D462D65E070E0A0
:10123000099588819981DC01ED91FC910680F78107
:10124000E02D472D66E070E00995E881F981019075
:10125000F081E02DC680D780D701ED91FC9102800E
:10126000F381E02DC7010995B8016E5F7F4F482FCC
:1012700088819981F6010995E881F9810190F081D1
:10128000E02DC680D780D701ED91FC910480F581D7
:10129000E02DC70109957801B4E0EB0EF11CB8010F
:1012A0006D5F7F4F482F88819981F601099588816C
:1012B0009981DC01ED91FC910680F781E02D4E2DA6
:1012C00063E070E0099588819981DC01ED91FC91E2
:1012D0000680F781E02D4F2D64E070E00995C8018C
:1012E000DF91CF911F910F91FF90EF90DF90CF9002
:1012F000BF90AF909F908F907F906F9008957F9256
:101300008F929F92AF92BF92CF92DF92EF92FF9215
:101310000F931F93CF93DF938C016B017A01C0E091
:10132000D0E05A0182E0A80EB11CD8018D919C91A9
:10133000DC01ED91FC910480F581E02DB50109956A
:1013400090E0C817D9071CF5D801ED91FC910190E8
:10135000F081E02D86809780D601ED91FC9101907F
:10136000F081E02DC60109958C0F9D1FFC01708056
:10137000B701C8010E943206BE01680F791F472DD0
:10138000D8018D919C91F40109952196CECFDF91E2
:10139000CF911F910F91FF90EF90DF90CF90BF9072
:1013A000AF909F908F907F900895CF93DF93EC0143
:1013B000CB010E944A2C0E942B276C837D838E8355
:1013C0009F8348855985BE018EE396E0DF91CF91DA
:1013D0000C947F09CF93DF93EC01CB010E944A2C40
:1013E0000E9424277D836C834E815F81BE018EE342
:1013F00096E0DF91CF910C947F09CF93DF93EC01BE
:10140000CB010E944A2C0E942B277D836C834E8146
:101410005F81BE018EE396E0DF91CF910C947F094E
:101420006F927F928F929F92AF92BF92CF92DF92F4
:10143000EF92FF920F931F93CF93DF93EC017B0109
:101440006A010E9404088C01892B59F4A601B70196
:10145000CE010E9484088C01AC01B601CE010E942D
:101460007F09FE01EC5AFF4F8081918101969183A3
:101470008083880F991FFE01E80FF91FD182C08277
:10148000E12CF12C480182E0880E911C8881998121
:10149000DC01ED91FC910480F581E02DB40109950A
:1014A00090E0E816F9061CF5D601ED91FC9101904B
:1014B000F081E02DC60109953C016E0C7F1CE8818E
:1014C000F9810190F081E02DA480B580B801CE01B2
:1014D0000E943206B701680F791F88819981F50152
:1014E0000995D3018C93BFEFEB1AFB0ACFCFC8014C
:1014F000DF91CF911F910F91FF90EF90DF90CF90F0
:10150000BF90AF909F908F907F906F900895AF9213
:10151000BF92CF92DF92EF92FF920F931F93CF93E0
:10152000DF936B01FC01EC5AFF4FE080F180EC018E
:101530002296A12CB12CAE14BF0471F0099119911F
:10154000F80162817381C6010E94AC2C892B31F0B5
:10155000FFEFAF1ABF0AEFCF00E010E0C801DF9144
:10156000CF911F910F91FF90EF90DF90CF90BF90A0
:10157000AF9008950F931F93CF93DF93EC010881F1
:10158000198146E050E061EF71E0C8010E94BC2C77
:10159000892B99F48091AF049091B004009739F0B1
:1015A0000E94581EBC0186E697E00E944F2581E00C
:1015B000DF91CF911F910F910895B8018EE396E0CE
:1015C0000E94870A0097B1F0DC01ED91FC91068042
:1015D000F781E02D09958C016881798186E697E095
:1015E0000E944F256AE871E086E697E00E944F2549
:1015F000B801D9CF80E0DCCF0F931F93CF93DF9357
:10160000EC018B0188819981892BF1F08A819B8182
:10161000892BE9F08C819D81892BE1F482E090E0B7
:10162000880F991FFE01E80FF91F118300836E8157
:10163000C8010E94841F6F817885C801DF91CF9116
:101640001F910F910C94871F80E090E0E9CF81E01B
:1016500090E0E6CFDF91CF911F910F910895EF9227
:10166000FF920F931F93CF93DF93EC016E838C0156
:101670007C0186E0E80EF11CF801819191918F01C7
:10168000009719F06E810E94841F0E151F05A1F7A7
:10169000DF91CF911F910F91FF90EF900895EF92FE
:1016A000FF920F931F93CF93DF93EC0178876F83A3
:1016B0008C017C0186E0E80EF11CF801819191918A
:1016C0008F01009721F06F8178850E94871F0E158A
:1016D0001F0599F7DF91CF911F910F91FF90EF9028
:1016E0000895EF92FF921F93CF93DF93162FFC0183
:1016F0006187EC017C01F6E0EF0EF11C8991999174
:10170000009719F0612F0E94811FCE15DF05B1F7F8
:10171000DF91CF911F91FF90EF900895CF93DF93CA
:10172000FC01C081D18161E772E0CE010E94AC2C46
:10173000892B49F461E08DEB96E00E94710B81E00A
:10174000DF91CF91089567E772E0CE010E94AC2C43
:10175000892B11F460E0EFCFCE010E944E2CBC012A
:101760008DEB96E00E944F0BEACFCF93DF93FC0105
:10177000808191810E944E2CEC01DD27BE0189EA17
:1017800096E00E944F0B61E0CF3FD1050CF060E086
:1017900089EA96E00E94710B81E0DF91CF91089574
:1017A00061E083EB96E00E94710B61E089EA96E0CC
:1017B0000E94710B60ED77E080E090E00E940B22C8
:1017C00060E083EB96E00E94710B60E089EA96E0AE
:1017D0000E94710B81E00895CF93DF93E82FF0E032
:1017E000EE0FFF1FEB58FE4FC081D1816936D1F15A
:1017F00040F4623679F06736E9F180E0DF91CF910D
:101800000895603739F16637E9F06E36B1F780E058
:1018100090E007C0BE018DEB96E00E94FC0A8DEBC4
:1018200096E0ABE6B1E020E0009761F14D915C916C
:1018300011978417950731F52F5F12962530A1F780
:1018400081E0DCCFBE0183EB96E00E94FC0A83EBD3
:1018500096E0E7CFBE0189EA96E00E94FC0A89EA99
:1018600096E0DFCFBE018FE996E00E94FC0A8FE987
:1018700096E0D7CFBE0185E996E00E94FC0A85E993
:1018800096E0CFCFED91FC911197AF014A5F5F4F8A
:1018900060817181C617D70711F4118210823296C8
:1018A000E417F507A9F7C8CF0F931F93CF93DF93E2
:1018B000EC010881198146E050E061EF71E0C80158
:1018C0000E94BC2C892B81F48091AF049091B004CC
:1018D000009721F06A817B810E945A1F81E0DF918D
:1018E000CF911F910F910895D8018C918F3669F493
:1018F00011961C9110531A3040F48A819B810E94EA
:101900004E2C682F812F0E94EC0B688179818EE329
:1019100096E00E94870A8C01009761F16A817B81C1
:10192000DC01ED91FC910084F185E02D0995D80151
:10193000ED91FC910680F781E02DC80109958C019D
:101940000990D881C02D68EF71E086E697E00E948B
:101950004F25BE0186E697E00E944F256AE871E0B8
:1019600086E697E00E944F25B80186E697E00E9440
:101970004F25B4CF80E0B3CF4F925F926F927F92AA
:101980008F929F92AF92BF92CF92DF92EF92FF928F
:101990000F931F93CF93DF93EC01FB010091060699
:1019A00010910706E0901006F090110680902E0628
:1019B00090902F06A12CB12C9B01241B350BD80134
:1019C000AE19BF090E94E3289F0140E050E00E9449
:1019D000A2282E0D3F1D411D511DA4E6B0E00E941E
:1019E000F928A50194010E94A22829013A01970132
:1019F000A4E6B0E00E94E328A50194010E94C42857
:101A000062017301C216D306E406F50614F46901F7
:101A10007A019801A4E6B0E00E94E328A5019401B0
:101A20000E94C4282C153D054E055F0514F469017C
:101A30007A01C882D982EA82FB82DF91CF911F911D
:101A40000F91FF90EF90DF90CF90BF90AF909F905D
:101A50008F907F906F905F904F90089580917C0061
:101A6000E0911804209178009091790080FF19C0CE
:101A7000AE2FB0E01196AF71BB27AA0FBB1FA65ABD
:101A8000BB4F30E0392B2D933C93EF5FE09318046C
:101A900090911904992321F0887F846080937C00C1
:101AA0000895EF71F0E0EE0FFF1FE65EFB4F30E0B0
:101AB000392B31832083887F8360F0CF1F920F9270
:101AC0000FB60F9211242F933F934F935F938F93F1
:101AD0009F9320911404309115042F5F3F4F309352
:101AE0001504209314048091D006882339F0809146
:101AF000CD069091CE0628173907A0F58091D5061E
:101B0000882339F08091D2069091D306281739079F
:101B100098F580E09091CB06992339F04091C80662
:101B20005091C9062417350770F595B1892785B9F5
:101B300080910404811104C08091080480FD2AC0B2
:101B40005A9B05C0809107048F5F809307049F9183
:101B50008F915F914F913F912F910F900FBE0F90FA
:101B60001F9018958BB198E089278BB98091D0068A
:101B700081508093D006C2CF8091D506815080934A
:101B8000D50684E0C7CF82609091CB0691509093A8
:101B9000CB06CBCF81E08093040480917A008064EF
:101BA00080937A00CDCF8F929F92AF92BF92CF92C7
:101BB000DF92EF92FF920F931F93CF93DF93EC018D
:101BC00000911604109117044C01A12CB12CC501F1
:101BD000B4010E945A272EEA37E449E555E40E94F1
:101BE00011280E942B276B017C018AE0F694E79470
:101BF000D794C7948A95D1F70D2C000CEE08FF08F6
:101C00009E01DE010E94E3289B01AC01AFEFB8E02A
:101C10000E94F92824E196958795779567952A95EE
:101C2000D1F7C61AD70AE80AF90AA70196012C5576
:101C3000394041095109C501B4010E947E2820E0C4
:101C400034E040E050E00E94C42826573A4F4F4FFE
:101C50005F4FD8010E94F92828E436E040E050E0C8
:101C60000E94C428C901DF91CF911F910F91FF906D
:101C7000EF90DF90CF90BF90AF909F908F9008959E
:101C8000E091E5032E2F30E046E0E49FF0011124BF
:101C9000EA51FC4F9583848311821082C901019619
:101CA00065E070E00E948E288093E503089583E646
:101CB0009EE00E94400E81E008958FE696E00E942B
:101CC000400E81E008950F931F93CF93DF93E0912F
:101CD000E303F0E0EE0FFF1FE05CF94F808191819C
:101CE000DC01ED91FC910680F781E02D0995EC0176
:101CF000E091E303F0E0EE0FFF1FE05CF94F01908D
:101D0000F081E02D028113816BEF71E086E697E0B0
:101D10000E944F25B80186E697E00E944F256AE8A9
:101D200071E086E697E00E944F25BE0186E697E0C7
:101D30000E944F256DE971E086E697E00E944F25ED
:101D400086E697E00E9458258091E3038F5F809399
:101D5000E30390E020919206309193068217930757
:101D600051F41092E30389EB91E0DF91CF911F9141
:101D70000F910C94400E83E69EE0F7CF409112073E
:101D80005091130760911407709115074093CF038A
:101D90005093D0036093D1037093D203882309F446
:101DA0004EC01092D3030E94DA216093BE04709358
:101DB000BF048093C0049093C1041092C204109297
:101DC000C3041092C4041092C50420918005309180
:101DD0008105AFEFBFEF0E94E3280E945C2720E05F
:101DE00030E048EC52E40E94B2260E94242760931F
:101DF000D6047093D7048093D8049093D90480912B
:101E0000120790911307A0911407B09115078093C2
:101E1000D4039093D503A093D603B093D7038093B4
:101E2000D8039093D903A093DA03B093DB03809196
:101E30000A0481114DC084E393E00C94400E60E0ED
:101E400089EA96E00E94710B60E083EB96E00E94C5
:101E5000710B8091BE049091BF04A091C004B09119
:101E6000C104892B8A2B8B2BD1F00E94DA2160933D
:101E7000C2047093C3048093C4049093C50420915A
:101E80001A0630911B06A8EEB3E00E94E328609387
:101E9000C6047093C7048093C8049093C904109239
:101EA000D6041092D7041092D8041092D9048091CD
:101EB000120790911307A0911407B0911507809312
:101EC000D4039093D503A093D603B093D703AFCF99
:101ED00008950F931F93CF93DF93AB01BC018091C3
:101EE000E8059091E905892BD1F0809162059091E8
:101EF00063058C0120E030E004171507260737073B
:101F000070F42091580530915905820F931FA0E07D
:101F1000B0E0D1E0481759076A077B0708F0D0E026
:101F20002091AC053091AD052115310581F0E8EE29
:101F3000F3E02E9FC0012F9F900D3E9F900D112426
:101F4000A0E0B0E084179507A607B70728F1C0E026
:101F5000C093D303D1111CC061E06C2789EA96E0DD
:101F60000E94710BDD2331F08091DE059091DF0539
:101F7000892B81F480910A0481110CC061E06C27E7
:101F800083EB96E0DF91CF911F910F910C94710B31
:101F900060E0E4CF60E0F4CF8091D303813019F0AA
:101FA00080E00E94BE0EC1E0D3CFE091E5032E2F6A
:101FB00030E046E0E49FF0011124EA51FC4F158225
:101FC000148293838283C901019665E070E00E94C8
:101FD0008E288093E50308954091120750911307CE
:101FE00060911407709115074093CF035093D0036D
:101FF0006093D1037093D20380930A04882321F065
:102000008EE191E00C94D50F1092090482E191E0E9
:10201000F9CF409112075091130760911407709106
:1020200015074093CF035093D0036093D10370936F
:10203000D2032091A2053091A305232B39F0811101
:102040002EC081E090919A04911180E080939A04CF
:1020500080919A04811104C086E091E00C94D50F20
:1020600010929B0410929C0410929D0410929E0466
:1020700010929F041092A0041092A1041092A20446
:102080006091FC057091FD054091B3045091B4043A
:102090004617570724F488EB94E00C94BC0C089581
:1020A000CF93A091E403C6E0CA9FD0011124AA51A6
:1020B000BC4F1496ED91FC9115973097B9F00995A6
:1020C0008091E40390E0C89FF001C99FF00D1124B6
:1020D000EA51FC4F15821482019665E070E00E947F
:1020E0008E288093E40381E0CF9108956D917C91D7
:1020F000119761157105D9F086E697E00E944F258A
:102100006DE971E086E697E00E944F2586E697E04C
:102110000E9458258091E40390E0C89FF001C99F78
:10212000F00D1124EA51FC4F11821082D5CF129686
:102130006D917C91139761157105D9F086E697E052
:102140000E942B256DE971E086E697E00E944F25FD
:1021500086E697E00E9458258091E40390E0C89FAE
:10216000F001C99FF00D1124EA51FC4F1382128235
:10217000B3CF80E0B9CF8091E504882311F02F9A86
:1021800008952F980895CF93DF93FC01808191816A
:102190000E944E2CC4E0D5E09D838C834E815F81EC
:1021A000BE018EE396E00E947F098C818093E50456
:1021B0000E94BB1081E0DF91CF9108950E94D30D62
:1021C0008035910510F480E090E0BC018DEB96E045
:1021D0000C944F0B0F931F93CF93DF93D82FC62FE1
:1021E000882309F44AC00AE114E02CE536E042E015
:1021F00050E060E270E0C8010E94A32AF8017096E6
:1022000088E020E030E041915191240F351F8F5F2D
:102210008831C9F74EE04C0FD1110DC0F801808113
:1022200091819093E1038093E00386AD97AD909305
:10223000DF038093DE03A0EFB5E50E94E3288B0166
:102240009C01042E04C036952795179507950A948E
:10225000D2F7415004C096958795779567954A9532
:10226000D2F760FF04C00F5F1F4F2F4F3F4FC801D1
:10227000DF91CF911F910F9108950AE514E0B5CF3A
:102280004F925F926F927F928F929F92AF92BF9286
:10229000CF92DF92EF92FF921F93CF93DF93C09183
:1022A000B304D091B404C436D105A4F460E08DEB3E
:1022B00096E0DF91CF911F91FF90EF90DF90CF904C
:1022C000BF90AF909F908F907F906F905F904F9056
:1022D0000C94710B80910A04882399F18091090470
:1022E00081110CC08091F2059091F3058B529140C1
:1022F000C817D9071CF081E0809309048091090474
:102300008823F9F0E090F205F090F30511E0CE1586
:10231000DF050CF010E060E070E08DEB96E00E94CD
:102320004F0B8091C606181739F0CE15DF0534F42F
:102330008AE391E00E94D50F612FB9CF8EE291E040
:10234000F9CF8AED94E00E94C520882309F448C1A2
:10235000C091B304D091B40480910A0481114BC29E
:10236000E8EFF5E0E480F580D701AC1BBD0B2D0153
:102370000B2E000C6608770820913806309139063C
:102380000E94F2286093CA047093CB048093CC041B
:102390009093CD048091BE049091BF04A091C0049D
:1023A000B091C104892B8A2B8B2B89F18091C204B7
:1023B0009091C304A091C404B091C5040097A105F5
:1023C000B10509F472C08090C6049090C704A09033
:1023D000C804B090C904880E991EAA1EBB1E0E9494
:1023E000DA21681579058A059B0508F45EC010920C
:1023F000C2041092C3041092C4041092C504109237
:10240000BE041092BF041092C0041092C104C70110
:1024100024E0969587952A95E1F7E81AF90AEC16D3
:10242000FD0608F042C080902E0690902F06A12C49
:10243000B12C2091100630911106A4E6B0E00E9464
:10244000E328A50194010E94C4288091B8049091CA
:10245000B904A091BA04B091BB04840D951DA61DCA
:10246000B71D69017A01C816D906EA06FB0614F4FD
:102470006C017D012091060630910706A4E6B0E0CC
:102480000E94E328A50194010E94C4282C153D0553
:102490004E055F0514F469017A01C092B804D09228
:1024A000B904E092BA04F092BB04A0912E06B09158
:1024B0002F062091B8043091B9044091BA0450918C
:1024C000BB040E94F92824E630E040E050E00E947E
:1024D000C42849015A012093CE043093CF0440937D
:1024E000D0045093D104E091BC04F091BD04EC1BE6
:1024F000FD0B2091240630912506DF010E94F22871
:102500009B01AC018091BE049091BF04A091C004D6
:10251000B091C104892B8A2B8B2B09F46FC18F2FAB
:10252000881F8827881F682F70E080E090E06F5F29
:102530007F4F8F4F9F4F0E947E286093D2047093ED
:10254000D3048093D4049093D504D093BD04C09356
:10255000BC04C090CA04D090CB04E090CC04F090AE
:10256000CD04C80CD91CEA1CFB1CC60ED71EE81EE5
:10257000F91E8090D6049090D704A090D804B09013
:10258000D904C80CD91CEA1CFB1CF7FC3CC1C114C3
:10259000D10421E0E206F1042CF0CC24CA94DC2C16
:1025A000E12CF12C56E0F594E794D794C7945A9512
:1025B000D1F7D092DD03C092DC038CEF93E00E9450
:1025C000400E8091D4059091D505892B09F41FC147
:1025D000C6010E94DE1061E08DEB96E00E94710B57
:1025E0008091D4059091D505892B09F46DC0609137
:1025F0005A0470915B0480E090E02091E504211181
:102600000DC128EF3AE240E050E00E947E284AE007
:1026100096958795779567954A95D1F720910A0405
:10262000211101C1E8EFF5E0A481B581A61BB70B2C
:1026300020913806309139060E94F2286093CA042E
:102640007093CB048093CC049093CD04C090CE04BF
:10265000D090CF04E090D004F090D104DC01CB0105
:102660008C0D9D1DAE1DBF1D4091D2045091D30411
:102670006091D4047091D504840F951FA61FB71FD5
:102680004091D6045091D7046091D8047091D90438
:10269000840F951FA61FB71FB7FDC8C0009721E084
:1026A000A207B10524F08FEF9FEFA0E0B0E036E085
:1026B000B595A795979587953A95D1F79093DD03B2
:1026C0008093DC030E94DE108091D4059091D505A3
:1026D000892B99F48091DC039091DD0325E0289FFC
:1026E000B001299F700D11248AED94E00E94F7201B
:1026F000682F8DEB96E00E94710B8EEF96E00E94A2
:10270000351D882309F499C0C0914405D091450531
:1027100060913A0570913B056C1B7D0B072E000CF8
:10272000880B990B0E945C276B017C018EEF96E071
:102730000E94FB1D0E945A274B015C0160913005ED
:102740007091310580E090E00E945A2720E030E04F
:102750004AE754E40E9411289B01AC01C501B40171
:102760000E94B226A70196010E9411286B017C01EC
:10277000BE01DD0F880B990B0E945C279B01AC0109
:10278000C701B6010E9441260E942B2780E090E0FD
:102790000E945A2720E030E040E854E40E941128CB
:1027A00020E030E048EC52E40E94B2266B017C014C
:1027B00020E030EC4FE754E40E940C281816D4F1C6
:1027C000C701B6010E942B27CB010E94D30DBC018B
:1027D00089EA96E0DF91CF911F91FF90EF90DF9013
:1027E000CF90BF90AF909F908F907F906F905F90B1
:1027F0004F900C944F0BEEEEF5E0B4CD61E070E03D
:1028000080E090E098CEC12CD12C7601D2CE60E051
:1028100070E08DEB96E00E944F0BE2CE20EF35E5A5
:1028200040E050E0F2CEEEEEF5E0FECE80E090E04B
:10283000DC0144CF8FEF93E0C8CFDF91CF911F91A0
:10284000FF90EF90DF90CF90BF90AF909F908F90D0
:102850007F906F905F904F900895CF92DF92EF92AC
:10286000FF926B017C01AB01BC018EEF96E00E94F0
:102870006E1DB701A60186ED96E0FF90EF90DF9008
:10288000CF900C946E1DF894A0E8B0E01C92E1E8A3
:10289000F0E010821092850010928400B0938900BD
:1028A000A093880080818860808382E080936F009D
:1028B00080818160808378940895ACE7B0E083ECF8
:1028C0008C93EAE7F0E0808184608083808182607D
:1028D0008083808181608083808180688083808123
:1028E00080648083279A2F988C918B7F83608C9350
:1028F000808180648083279A0C94BB101F920F9272
:102900000FB60F9211242F933F934F935F936F93C2
:102910007F938F939F93AF93BF93EF93FF9360E069
:102920008DEB96E00E94710B60E089EA96E00E94D0
:10293000710B60E083EB96E00E94710B60E08CEC21
:1029400096E00E94811F60E081ED96E00E94811F69
:1029500060E087EC96E00E94811F8AE28093CE03BC
:10296000FF91EF91BF91AF919F918F917F916F9167
:102970005F914F913F912F910F900FBE0F901F903D
:102980001895F894A895E0E6F0E08081886180834E
:102990008EE48083789408950F931F93CF93A89526
:1029A0000E94DA2160931207709313078093140733
:1029B0009093150780910404882321F080917A0078
:1029C00086FF2CC2409112075091130760911407A3
:1029D000709115078AEE96E00E946E1D8AED94E0D4
:1029E0000E949A2080919A04882351F060911207E6
:1029F0007091130780911407909115070E942D1470
:102A00008091AB049091AC04A091AD04B091AE0460
:102A10000196A11DB11D8093AB049093AC04A093CB
:102A2000AD04B093AE048091C80381111CC08091A5
:102A3000120790911307A0911407B09115078131E7
:102A40009742A105B10578F08091E20381110BC096
:102A500081E08093C80361E080E10E94A92261E0E7
:102A600080E10E94E52268EE73E08AED94E00E9426
:102A7000C820C82F882309F48AC061E08091E5044A
:102A8000811160E080E00E94EA109093B40480938A
:102A9000B30480911904882341F061E081E00E9431
:102AA000EA109093B2048093B1048091A3049091B2
:102AB000A404A091A504B091A6040297A105B105B4
:102AC00060F46091FC057091FD054091B304509154
:102AD000B404461757070CF4A6C18091AB0490913B
:102AE000AC049093CA038093C9031092AB04109274
:102AF000AC041092AD041092AE040E94DA216093EF
:102B0000A7047093A8048093A9049093AA048091C9
:102B1000A3049091A404A091A504B091A6040196E9
:102B2000A11DB11D8093A3049093A404A093A504B8
:102B3000B093A604809108048093CB0310920804FC
:102B400090EA980F993018F5843628F48091660041
:102B50008150809366008091CB0390E0853691058B
:102B60002CF0809166008F5F8093660080E090E09B
:102B70000E94173190916600981731F060916600BD
:102B800080E090E00E941F3182E380936601809193
:102B90000B048823E1F180919A04882361F08091ED
:102BA0009F049091A004A091A104B091A204892B4C
:102BB0008A2B8B2B61F18091CA059091CB05892BD3
:102BC00031F180919B0490919C04A0919D04B0915F
:102BD0009E04892B8A2B8B2BD1F4809196059091A2
:102BE0009705A0919805B09199050097A105B105A9
:102BF00071F0409110045091110460911204709191
:102C00001304481759076A077B0709F411C120917B
:102C10001205309113052115310551F180919F0462
:102C20009091A004A091A104B091A204892B8A2BB9
:102C30008B2BF1F4A0E6BAEE0E94E3280091CF03BB
:102C40001091D0032091D1033091D203600F711FF6
:102C5000821F931F009112071091130720911407F0
:102C600030911507601771078207930708F402C1B6
:102C700080910B048823E1F180919A0481110CC0AA
:102C800080919B0490919C04A0919D04B0919E041E
:102C9000892B8A2B8B2B61F18091C0059091C10506
:102CA000892B31F180919F049091A004A091A104FF
:102CB000B091A204892B8A2B8B2BD1F480918A05A9
:102CC00090918B05A0918C05B0918D050097A10581
:102CD000B10571F0409110045091110460911204FB
:102CE0007091130484179507A607B70709F4F0C07D
:102CF00040919B0450919C0460919D0470919E04AE
:102D00004115510561057105B1F080919A04811159
:102D100012C08091100490911104A0911204B091FE
:102D20001304841B950BA60BB70B80319E40A105A5
:102D3000B10508F0F3C080919A0481110DC0809113
:102D40009B0490919C04A0919D04B0919E04892BBA
:102D50008A2B8B2B09F448C080919F049091A0048A
:102D6000A091A104B091A204892B8A2B8B2BE1F5B1
:102D70000E944011CC2321F084E994E00E94400E8F
:102D80004091120750911307609114077091150735
:102D90008091C4039091C503A091C603B091C7036D
:102DA00084179507A607B707C0F40E945010882320
:102DB000A1F08091120790911307A0911407B09190
:102DC00015078C599F4FAF4FBF4F8093C40390930B
:102DD000C503A093C603B093C70385EB94E0CF91DE
:102DE0001F910F910C94262060E08DEB96E00E94DD
:102DF000710B60E083EB96E00E94710B60E089EA62
:102E000096E00E94710B60E08FE996E00E94710BE2
:102E100060E085E996E00E94710BACCF0E942E0D18
:102E200010920404CFCD88EB94E00E94BC0C55CEE8
:102E30008091100490911104A0911204B091130498
:102E400080939B0490939C04A0939D04B0939E0454
:102E500010929F041092A0041092A1041092A20458
:102E600061E08DEB96E00E94710B8CED90E00E948A
:102E7000D50FCDCE1092CF031092D0031092D10374
:102E80001092D2038091100490911104A091120429
:102E9000B091130480939F049093A004A093A10485
:102EA000B093A20410929B0410929C0410929D0473
:102EB00010929E0460E08DEB96E00E94710B80ED15
:102EC00090E00E94D50F81EB90E00E94D50FD0CE0C
:102ED0008091100490911104A0911204B0911304F8
:102EE00080939F049093A004A093A104B093A204A4
:102EF00010929B0410929C0410929D0410929E04C8
:102F000060E08DEB96E00E94710B85EA90E00E94F4
:102F1000D50F88E990E00E94D50FEACE10929B046D
:102F200010929C0410929D0410929E0460E08DEB20
:102F300096E00E94710B88E690E00E94D50FFBCED0
:102F4000AF92BF92CF92DF92EF92FF920F931F93B7
:102F5000CF93DF93EC015A018CEE92E09983888342
:102F60005D834C837B836A8339872887AE01C801E0
:102F70000E94100A9F838E832C813D81F70140813E
:102F800051812417350730F0F601408151814217F5
:102F9000530788F4BD82AC82AC01BE01C801DF9149
:102FA000CF911F910F91FF90EF90DF90CF90BF9046
:102FB000AF900C947F09DF91CF911F910F91FF90FB
:102FC000EF90DF90CF90BF90AF900895AF92BF92F7
:102FD000CF92DF92EF92FF920F931F93CF93DF93E5
:102FE000EC015A018AEF92E0998388835D834C83D8
:102FF0007B836A8339872887AE01C8010E94100A43
:103000009F838E832C813D81F7014081518124175C
:10301000350734F0F60140815181421753078CF493
:10302000BD82AC82AC01BE01C801DF91CF911F917E
:103030000F91FF90EF90DF90CF90BF90AF900C94E6
:103040007F09DF91CF911F910F91FF90EF90DF905B
:10305000CF90BF90AF900895AF92BF92CF92DF9282
:10306000EF92FF920F931F93CF93DF9300D000D086
:10307000CDB7DEB741E068E08EEF96E00E94531DC9
:1030800041E064E08AEE96E00E94531D41E065E075
:1030900086ED96E00E94531D6AE081ED96E00E9465
:1030A000711F63E08CEC96E00E94711F69E087EC71
:1030B00096E00E94711F1092C2061092C1061092F3
:1030C000C0061092BF061092BE061092BD06109266
:1030D000C6061092B8061092B7061092B606109265
:1030E000B5061092B4061092B3061092BC06109268
:1030F000AE061092AD061092AC061092AB0610927E
:10310000AA061092A9061092B2061092A406109276
:10311000A3061092A2061092A1061092A006109289
:103120009F061092A80610929A0610929906109285
:103130009806109297061092960610929506109295
:103140009E0628E540E054E06BE771E08EE396E0F0
:103150000E949F07A12C9DE7B92EBC82AB821A82E8
:103160001982CE0103966C0102977C010EE316E0F2
:1031700025EB31E044E150E064E072E084E396E066
:103180000E94A017BC82AB821A82198225EB31E023
:103190004EE150E069E072E08AE296E00E94A017FA
:1031A000BC82AB821A82198225EB31E040E850E004
:1031B0006EE072E080E296E00E94A017BC82AB82D3
:1031C0001A82198225EB31E048E750E063E172E0B2
:1031D00086E196E00E94A017BC82AB821A82198217
:1031E00025EB31E048EE53E06AE172E08CE096E0D6
:1031F0000E94A017BC82AB821A82198225EB31E0B3
:1032000043E353E361E272E082E096E00E94A0179C
:10321000BC82AB821A82198225EB31E044E757E287
:1032200068E272E088EF95E00E94E617BC82AB820C
:103230001A82198225EB31E044ED50E36EE272E030
:103240008EEE95E00E94E617BC82AB821A8219824C
:1032500025EB31E040E050E065E372E084EE95E07C
:103260000E94A017BC82AB821A82198225EB31E042
:1032700040E050E06BE372E08AED95E00E94A01719
:10328000BC82AB821A82198225EB31E041E050E02A
:1032900061E472E080ED95E00E94A017BC82AB82F1
:1032A0001A82198225EB31E040E050E06AE472E0D6
:1032B00086EC95E00E94A017BC82AB821A8219822C
:1032C00025EB31E040E050E062E572E08CEB95E008
:1032D0000E94A017BC82AB821A82198225EB31E0D2
:1032E00040E050E06AE572E082EB95E00E94A017B2
:1032F000BC82AB821A82198225EB31E040E050E0BB
:1033000061E672E088EA95E00E94A017BC82AB8279
:103310001A82198225EB31E040E050E067E672E066
:103320008EE995E00E94A01788E093E090939305C2
:103330008093920510929605109297051092980529
:10334000109299058EE692E09093950580939405EE
:1033500088EB91E090939D0580939C0542E955E0B0
:103360006EE672E0C8010E94100A90939B0580935C
:103370009A05409196055091970560919805709136
:103380009905413851456140710570F010929605DC
:10339000109297051092980510929905AC0162E978
:1033A00075E0C8010E947F0988E093E0909387054B
:1033B0008093860510928A0510928B0510928C05D9
:1033C00010928D0584E792E090938905809388059B
:1033D00088EB91E0909391058093900546E855E045
:1033E00064E772E08EE396E00E94100A90938F05E6
:1033F00080938E0540918A0550918B0560918C05D4
:1034000070918D05413851456140710578F01092F9
:103410008A0510928B0510928C0510928D05AC01D7
:1034200066E875E08EE396E00E947F09A12C8DE7A7
:10343000B82EBC82AB821A821982CE0103966C012F
:1034400002977C010EE316E025EB31E041E250E00B
:103450006BE772E08CE795E00E94A017BC82AB821C
:103460001A82198225EB31E040E050E062E872E018
:1034700082E795E00E94A017BC82AB821A82198273
:1034800025EB31E040E050E06BE872E088E695E043
:103490000E94A017BC82AB821A82198225EB31E010
:1034A00048EB5BE061E972E08EE595E00E94A017D1
:1034B000BC82AB821A82198225EB31E048EB5BE0DB
:1034C00068E972E084E595E00E94A017BC82AB82B7
:1034D0001A82198225EB31E048EE53E06EE972E082
:1034E0008AE495E00E94A017BC82AB821A821982FE
:1034F00025EB31E044E650E063EA72E080E495E0D9
:103500000E94A017BC82AB821A82198225EB31E09F
:1035100044E650E067EA72E086E395E00E94A01777
:10352000BC82AB821A82198225EB31E049E150E07E
:103530006BEA72E08CE295E00E94A017BC82AB823D
:103540001A82198225EB31E040E050E06FEA72E028
:1035500082E295E00E94E617BC82AB821A82198251
:1035600025EB31E048EE53E064EB72E088E195E052
:103570000E94A017BC82AB821A82198225EB31E02F
:103580004CE350E06AEB72E08EE095E00E94A017F9
:10359000BC82AB821A82198225EB31E041E050E017
:1035A00061EC72E084E095E00E94A017BC82AB82DF
:1035B0001A82198225EB31E040E750E066EC72E0B8
:1035C0008AEF94E00E94A017BC82AB821A82198213
:1035D00025EB31E042E650E069EC72E080EF94E0E8
:1035E0000E94A017BC82AB821A82198225EB31E0BF
:1035F00046E750E06CEC72E086EE94E00E94A01783
:1036000068E175E08AED94E00E9473201092D20484
:103610001092D3041092D4041092D5048CE49DE14E
:10362000A0E0B0E08093B8049093B904A093BA04EA
:10363000B093BB0480ED97E09093BD048093BC04ED
:103640001092BE041092BF041092C0041092C104E4
:103650001092C2041092C3041092C4041092C504C4
:103660001092D6041092D7041092D8041092D90464
:103670000F900F900F900F90DF91CF911F910F91AE
:10368000FF90EF90DF90CF90BF90AF9008958F9212
:103690009F92AF92BF92EF92FF920F931F93CF939F
:1036A000DF93CDB7DEB760970FB6F894DEBF0FBEDD
:1036B000CDBF809108058093E50426E040E051EEFF
:1036C00060E070E086E697E00E9402240E945D14AC
:1036D00061E080E10E94A92261E080E10E94E52290
:1036E00080916C0590916D058A9709F4C4C088E0BB
:1036F00090E00E943D267C0100E011EE20E030E0E9
:1037000043E150E06FE070E00E941E1EF092B004B2
:10371000E092AF0468EE73E080E090E00E940B223C
:103720008091AF049091B0040E94F81E882381F02C
:103730008AE290E090936D0580936C0540916E0550
:1037400050916F0568E675E08EE396E00E947F0970
:1037500080916C0590916D058A9709F48CC026E0E4
:1037600040E855E260E070E086E697E00E940224BF
:1037700068EE73E080E090E00E940B226FEC72E054
:1037800086E697E00E944F2586E697E00E949923FF
:1037900064E670E080E090E00E940B2286E697E00D
:1037A0000E943C23892B29F086E697E00E9456234D
:1037B000F5CF6FED72E086E697E00E944F2586E632
:1037C00097E00E94992364E670E080E090E00E9418
:1037D0000B220E94DA214B015C0110E0E12EF12C5A
:1037E0000E94DA21681979098A099B096C3D7540A4
:1037F00081059105C8F486E697E00E943C23892B59
:1038000079F38FE0E816F1045CF786E697E00E9412
:103810005623E1E0F0E0EC0FFD1FEE0DFF1D80836D
:103820008823E1F21F5FDACF812F90E0E1E0F0E042
:10383000EC0FFD1FE80FF91F108202970CF4E2C095
:1038400042E050E06EE971E0CE0101960E94BC2C8E
:10385000892B09F0D7C08AE290E090936D058093A0
:103860006C0540916E0550916F0568E675E08EE33A
:1038700096E00E947F0926E040E051EE60E070E0B3
:1038800086E697E00E94022460E080E10E94E52243
:1038900060E080E10E94A92260E082E00E94A9220B
:1038A00041E050E068E575E080E00E9422216AE096
:1038B0008DEB96E00E942F0B60E070E08DEB96E0C0
:1038C0000E944F0B68EC83EB96E00E942F0B60E0A8
:1038D00070E083EB96E00E944F0B68EC89EA96E07B
:1038E0000E942F0B60E070E089EA96E00E944F0B87
:1038F0006091FE0480E00E94EC0B6091F40481E092
:103900000E94EC0B6091EA0482E00E94EC0B0E94A2
:10391000431440E166E071E085EB94E00E948B1F68
:103920008AED94E00E948A208EEF96E00E94431D6B
:1039300086ED96E00E94431D8AEE96E00E94431DAC
:1039400069E070E18AEE96E00E942D1D6EEB7EE04C
:103950008EEF96E00E942D1D69E67FE08EEF96E0E7
:103960000E94311D6CEE7FE086ED96E00E942D1DD9
:1039700010929B0410929C0410929D0410929E043D
:1039800010929F041092A0041092A1041092A2041D
:1039900083EF90E00E94D50F8091B6059091B70516
:1039A00021E0009709F020E020939A04892B11F47C
:1039B0000E94401168EE73E080E090E00E940B22CC
:1039C0008091CE038A3221F489EE90E00E94D50FD7
:1039D0001092CE030E94C11480917A0086FDFCCF24
:1039E0000E942E0D20915C0430915D0480E2815094
:1039F00078F0E82FF0E0EE0FFF1FE65AFB4F31831F
:103A00002083F5CF26E040E051EE60E070E0ACCEE0
:103A100080917A00806480937A0061E08091E5046F
:103A2000811160E080E00E94EA109093CD038093C2
:103A3000CC0388EE91E060960FB6F894DEBF0FBE1F
:103A4000CDBFDF91CF911F910F91FF90EF90BF906D
:103A5000AF909F908F900C94400EFC01758364830F
:103A60000895FC01778366830895FC01208130E08E
:103A70002330310534F0218130E081E023303105FD
:103A80000CF480E00895FC0111821082108A118AE2
:103A9000128A138A14861586168617861086118652
:103AA0001286138608951F93CF93DF93EC01862F20
:103AB000142F6A8360E00E94A922112321F061E0A3
:103AC0008A810E94E5221B821D821C821F821E8227
:103AD000CE01DF91CF911F910C94431DAF92BF9205
:103AE000CF92DF92EF92FF920F931F93CF93DF93CA
:103AF000EC016A017B018A810E9413235C0181E051
:103B0000A114B10409F480E09B81082F10E089130F
:103B100032C088899989AA89BB890097A105B10516
:103B2000F1F0A7019601281B390B4A0B5B0B2333DD
:103B300031054105510598F0CE010E94351DB82E82
:103B4000CE010E94431DBB2051F0EC81FD813097D6
:103B500011F080E00995CC86DD86EE86FF86C801EF
:103B6000DF91CF911F910F91FF90EF90DF90CF9059
:103B7000BF90AF900895C88AD98AEA8AFB8A8B835E
:103B8000CE010E94351D882391F088859985AA85EC
:103B9000BB85892B8A2B8B2B51F4EC81FD813097CF
:103BA00011F081E00995C886D986EA86FB86AB28A4
:103BB000E1F088818F3F11F08F5F8883CE010E94F2
:103BC000351D882361F2EE81FF81309741F28885AF
:103BD0009985AA85BB85A7019601281B390B4A0B3D
:103BE0005B0BCA01B9010995BACF89818F3F31F3C7
:103BF0008F5F8983E3CF0F931F93CF93DF93EC0104
:103C00000E94351D088519852A853B8581110DC0C7
:103C10006C857D858E859F85601B710B820B930B58
:103C2000DF91CF911F910F910895609112077091CC
:103C300013078091140790911507EECF0F931F93F0
:103C4000CF93DF93EC01842F798368834A835B836E
:103C50000C831D832E833F8361E00E94A92260E0D4
:103C60008A810E94E52261E088810E94A92261E0A8
:103C70008881DF91CF911F910F910C94E522CF9312
:103C8000DF93EC0160E088810E94E52262E370E04E
:103C900080E090E00E940B2261E088810E94E52292
:103CA00064EF71E080E090E0DF91CF910C940B2203
:103CB00086E197E008951F93CF93DF93EC01162FD1
:103CC00086E697E00E94992361E0111101C060E04F
:103CD0008A810E94E522CE010E943F1E111112C06E
:103CE0004C815D816E817F8126E086E697E00E94AF
:103CF000022464E670E080E090E0DF91CF911F91B4
:103D00000C940B2240E056E960E070E0EDCFCF93D9
:103D1000DF93EB0166E573E086E697E00E944F25AE
:103D2000BE0186E697E00E944F2568E973E086E6CB
:103D300097E00E944F2586E697E00E94992364E66B
:103D400070E080E090E0DF91CF910C940B2286E64A
:103D500097E00E943C23181619062CF486E697E09B
:103D60000E945623F4CF0895CF92DF92EF92FF92F4
:103D7000CF93DF930E94DA216B017C01109226071A
:103D80000E94DA216C197D098E099F096C3D7540EE
:103D90008105910500F586E697E00E943C23892B7A
:103DA00079F3C0912607D0E0CF30D1054CF786E6F5
:103DB00097E00E945623CA5ED84F888380912607D9
:103DC000E82FF0E0EA5EF84F90819923C9F28F5F07
:103DD00080932607D5CFE0912607F0E0EA5EF84F02
:103DE0001082DF91CF91FF90EF90DF90CF900895F8
:103DF000CF93DF93EC0161E00E945B1E6AE573E004
:103E000086E197E00E94B52C6C817D818E819F8137
:103E10002AE04BE157E00E94FC2C60E673E086E16B
:103E200097E00E94A12C66E177E0CE010E94871EF8
:103E300065E673E0CE010E94871E6CE673E0CE015A
:103E40000E94871E64E773E0CE010E94871E6EE722
:103E500073E0CE010E94871E6CE873E0CE010E94E1
:103E6000871ECE010E94A71E66E973E086E697E0F2
:103E70000E944F2586E697E00E949923CE010E947A
:103E8000B41E60E0CE010E945B1E8091260790E088
:103E900002975CF042E050E06EE971E086E197E065
:103EA0000E94BC2C21E0892B09F020E0822FDF91B9
:103EB000CF910895CF93DF93EC0161E00E945B1EE8
:103EC000CE010E94B41E60E0CE01DF91CF910C9430
:103ED0005B1E0895CB010C941731CB01642F0C9419
:103EE0001F31CF93FC01C62F1382128211821082E0
:103EF00061E08C2F0E94A92260E08C2FCF910C945E
:103F0000E522FC0163830895FC0160830895FC01B0
:103F1000728361830895FC017183608342830895F5
:103F20006F927F928F929F92AF92BF92CF92DF92C9
:103F3000EF92FF920F931F93CF93DF93CDB7DEB72E
:103F40002A970FB6F894DEBF0FBECDBF6C01CB0130
:103F50006AE871E00E949C2C5C018E010F5F1F4F8C
:103F6000702E612E6AE871E080E090E00E949C2C47
:103F7000D8018D939D938D01892BA1F7F601828045
:103F8000912C00E010E0E12CF12CE814F9040CF085
:103F900040C0D601ED91FC91E00FF11F608171816D
:103FA000C5010E94AC2C98012A5F3F4F892B09F074
:103FB00048C06DEA73E086E697E00E944F25B501A0
:103FC00086E697E00E944F256AE871E086E697E072
:103FD0000E944F25F60180819181080F191FD80199
:103FE0001496ED91FC911597872D962D09958111C9
:103FF00025C067EA73E086E697E00E944F256EE9E8
:1040000071E086E697E00E944F2586E697E00E94E1
:1040100058252A960FB6F894DEBF0FBECDBFDF91AC
:10402000CF911F910F91FF90EF90DF90CF90BF90B5
:10403000AF909F908F907F906F9008956AE871E0A5
:10404000DACFBFEFEB1AFB0A89019FCFFF920F93E4
:104050001F93CF93DF93EC0109E317E080E2F82E82
:1040600086E697E00E943C23892BB9F186E697E02B
:104070000E9456238823A1F32091370730913807F7
:104080008A30E1F4243031057CF044E050E06DEA00
:1040900073E089E397E00E94BC2C892B29F46DE33F
:1040A00077E0CE010E94901FF8018F2D11928A9522
:1040B000E9F71092380710923707D2CF2F31310528
:1040C0007CF6A9014F5F5F4F509338074093370745
:1040D000275C384FF9018083C3CFDF91CF911F91C7
:1040E0000F91FF900895FC017183608316821782FF
:1040F00010861186128213821482158212860E9403
:10410000DA216093590770935A0780935B07909365
:104110005C070895CF93DF93EC010E94DA216E8350
:104120007F83888799876A837B838C839D83DF91D4
:10413000CF9108950F931F93CF93DF93EC010E94CB
:10414000DA210E811F8128853985AB01BC01401B16
:10415000510B620B730BE881F98184819581A0E09A
:10416000B0E084179507A607B70768F481E08A874F
:104170000E94DA216E837F8388879987DF91CF91B0
:104180001F910F9108951A86F9CFFC018285089539
:104190000F931F93CF93DF93EB010E94DA210091DD
:1041A000590710915A0720915B0730915C07AB01CA
:1041B000BC01401B510B620B730BCE01A0E0B0E0C1
:1041C000481759076A077B0780F00E94DA2160933D
:1041D000590770935A0780935B0790935C0781E0BF
:1041E000DF91CF911F910F91089580E0F9CFCF9289
:1041F000DF92EF92FF920F931F93CF93DF938C0187
:10420000EB010E94DA21F8010681178120853185B2
:104210006B017C01C01AD10AE20AF30AAE0160E028
:1042200070E081E0C416D506E606F70608F080E0E7
:10423000DF91CF911F910F91FF90EF90DF90CF9082
:10424000089508958230E8F4E82FF0E0EE0FFF1FA4
:10425000E358FE4F71836083813041F080916900A3
:104260008C7F482B40936900E89A089580916900FB
:10427000837F440F551F440F551F482B40936900FF
:10428000E99A08951F920F920FB60F9211242F935F
:104290003F934F935F936F937F938F939F93AF93CE
:1042A000BF93EF93FF93E0917D01F0917E0109951B
:1042B000FF91EF91BF91AF919F918F917F916F91FE
:1042C0005F914F913F912F910F900FBE0F901F90D4
:1042D00018951F920F920FB60F9211242F933F93B0
:1042E0004F935F936F937F938F939F93AF93BF93FE
:1042F000EF93FF93E0917F01F09180010995FF9189
:10430000EF91BF91AF919F918F917F916F915F914D
:104310004F913F912F910F900FBE0F901F901895C6
:104320001F920F920FB60F9211242F933F938F93EA
:104330009F93AF93BF9380915E0790915F07A09189
:104340006007B091610730915D0726E0230F2D379C
:1043500058F50296A11DB11D20935D0780935E075D
:1043600090935F07A0936007B09361078091620705
:1043700090916307A0916407B09165070196A11D14
:10438000B11D8093620790936307A0936407B09375
:104390006507BF91AF919F918F913F912F910F90A2
:1043A0000FBE0F901F90189529E8230F0396A11DAB
:1043B000B11DD2CF2FB7F89460915E0770915F075F
:1043C00080916007909161072FBF08953FB7F894DF
:1043D0008091620790916307A0916407B09165078F
:1043E00026B5A89B05C02F3F19F00196A11DB11D50
:1043F0003FBFBA2FA92F982F8827BC01CD01620F8C
:10440000711D811D911D43E0660F771F881F991F45
:104410004A95D1F708958F929F92AF92BF92CF9213
:10442000DF92EF92FF926B017C010E94E6214B012B
:104430005C01C114D104E104F10449F4FF90EF9050
:10444000DF90CF90BF90AF909F908F9008950E9483
:104450003F260E94E621681979098A099B09683E6E
:1044600073408105910528F321E0C21AD108E108C3
:10447000F10888EE880E83E0981EA11CB11CC114BF
:10448000D104E104F10429F7D4CF789484B5826093
:1044900084BD84B5816084BD85B5826085BD85B5E8
:1044A000816085BDEEE6F0E0808181608083E1E897
:1044B000F0E01082808182608083808181608083CF
:1044C000E0E8F0E0808181608083E1EBF0E08081D2
:1044D00084608083E0EBF0E0808181608083EAE7A4
:1044E000F0E080818460808380818260808380812D
:1044F0008E7F80838081806880831092C1000895C0
:10450000833081F028F4813099F08230A9F0089549
:104510008730A9F08830C9F08430B1F480918000F0
:104520008F7D03C0809180008F77809380000895F5
:1045300084B58F7784BD089584B58F7DFBCF80913E
:10454000B0008F778093B00008958091B0008F7D88
:10455000F9CFCF93DF9390E0FC01E25AFE4F249114
:104560008E589E4FFC0184918823C9F090E0880FFB
:10457000991FFC01E656FE4FA591B491FC01E0574E
:10458000FE4FC591D49161110DC09FB7F8948C91E5
:10459000209582238C938881282328839FBFDF91D5
:1045A000CF910895623051F49FB7F8943C91822FD7
:1045B000809583238C93E8812E2BEFCF8FB7F894CF
:1045C000EC912E2B2C938FBFEACF1F93CF93DF93C9
:1045D000162F282F30E0F901E65BFE4F8491F90198
:1045E000E25AFE4FD491F901EE58FE4FC491CC230C
:1045F000A1F081110E948022EC2FF0E0EE0FFF1F4E
:10460000E057FE4FA591B4918FB7F894EC9111113A
:1046100008C0D095DE23DC938FBFDF91CF911F912F
:104620000895DE2BF8CFCF93DF93282F30E0F901E8
:10463000E65BFE4F8491F901E25AFE4FD491F901F5
:10464000EE58FE4FC491CC23A1F081110E9480222C
:10465000EC2FF0E0EE0FFF1FEA57FE4FA591B4914B
:10466000EC91ED2381E090E009F480E0DF91CF91BF
:10467000089580E090E0FACFFC01918D228D892F82
:1046800090E0805C9F4F821B91098F73992708955A
:10469000FC01918D828D981731F0828DE80FF11D0C
:1046A000858D90E008958FEF9FEF0895FC01918D27
:1046B000828D981761F0828DDF01A80FB11D5D9684
:1046C0008C91928D9F5F9F73928F90E008958FEFF2
:1046D0009FEF089586EB94E2892B49F080E090E00B
:1046E000892B29F00E94B62481110C9400000895B2
:1046F000FC01848DDF01A80FB11DA35ABF4F2C917F
:10470000848D90E001968F739927848FA689B7894D
:104710002C93A089B1898C9180648C93938D848D26
:10472000981306C00288F389E02D80818F7D8083F5
:104730000895CF93DF93EC01888D882351F0EA89A7
:10474000FB89808185FD08C0A889B9898C9186FF85
:1047500003C0DF91CF9108950FB607FCF2CF80819F
:1047600085FFEFCFA889B9898C9185FFEACFCE016B
:104770000E947823E4CFEF92FF920F931F93CF9381
:10478000DF93EC01F62E81E0888F9B8D8C8D981342
:1047900005C0E889F989808185FD2CC00B8D10E06A
:1047A0000F5F1F4F0F731127E02E8C8DE8120CC086
:1047B0000FB607FCFACFE889F989808185FFF5CF2C
:1047C000CE010E947823F1CF8B8DFE01E80FF11D01
:1047D000E35AFF4FF0820B8FEA89FB898081806268
:1047E000808381E090E0DF91CF911F910F91FF9046
:1047F000EF900895EE89FF896083E889F9898081C7
:104800008064EECFCF92DF92EF92FF921F93CF930F
:10481000DF93EC016A017B01122F60E874E88EE1FE
:1048200090E0A70196010E94A22821503109410978
:1048300051095695479537952795E889F98982E07A
:104840008083211580E1380798F0E889F989108282
:1048500060E472E48FE090E0A70196010E94A22834
:1048600021503109410951095695479537952795AA
:10487000EC85FD853083EE85FF852083188EEC89DD
:10488000FD891083EA89FB89808180618083EA89C0
:10489000FB89808188608083EA89FB8980818068C8
:1048A0008083EA89FB8980818F7D8083DF91CF912E
:1048B0001F91FF90EF90DF90CF9008951F920F927D
:1048C0000FB60F9211242F938F939F93EF93FF9323
:1048D000E0917607F09177078081E0917C07F09175
:1048E0007D0782FD1BC0908180917F078F5F8F7352
:1048F00020918007821741F0E0917F07F0E0EA59AC
:10490000F84F958F80937F07FF91EF919F918F9143
:104910002F910F900FBE0F901F9018958081F4CFAC
:104920001F920F920FB60F9211242F933F934F9324
:104930005F936F937F938F939F93AF93BF93EF9307
:10494000FF9386E697E00E947823FF91EF91BF9155
:10495000AF919F918F917F916F915F914F913F9117
:104960002F910F900FBE0F901F90189586E697E03D
:104970000E943C2321E0892B09F420E0822F089536
:10498000E6E6F7E01382128288EE93E0A0E0B0E062
:1049900084839583A683B78386EB93E0918380839A
:1049A00085EC90E09587848784EC90E097878687F4
:1049B00080EC90E0918B808B81EC90E0938B828BEC
:1049C00082EC90E0958B848B86EC90E0978B868BC5
:1049D000118E128E138E148E0895CF92DF92EF9265
:1049E000FF920F931F93CF93DF937C016A018B019A
:1049F000C0E0D0E0CC15DD0579F0D8016D918D01D6
:104A0000D701ED91FC910190F081E02DC70109954E
:104A1000892B11F02196EECFCE01DF91CF911F911E
:104A20000F91FF90EF90DF90CF9008956115710581
:104A300079F0FB0101900020E9F73197AF01461BA7
:104A4000570BDC01ED91FC910280F381E02D09947C
:104A500080E090E00895EF92FF920F931F93CF9321
:104A6000DF938C017B01C0E0D0E0F701EC0FFD1F6C
:104A70006491662361F0D801ED91FC910190F08181
:104A8000E02DC8010995892B11F02196EECFCE01BA
:104A9000DF91CF911F910F91FF90EF9008950C94AB
:104AA0001625DC01ED91FC910190F081E02D099437
:104AB00068E973E00C9416258F929F92AF92BF9293
:104AC000CF92DF92EF92FF920F931F93CF93DF93DA
:104AD000CDB7DEB7A1970FB6F894DEBF0FBECDBF3E
:104AE0007C01D42EC52EDB0119A2822F90E0029703
:104AF0000CF42AE08E010F5D1F4F822E912CA12C09
:104B0000B12C6D2D7C2DCD01A50194010E94A22810
:104B1000D22EC32EDA01015011096A307105F4F466
:104B2000605DF8016083232B242B252B51F7B801FE
:104B3000C7010E941625A1960FB6F894DEBF0FBEDE
:104B4000CDBFDF91CF911F910F91FF90EF90DF903C
:104B5000CF90BF90AF909F908F900895695CE1CF08
:104B6000CF92DF92EF92FF920F931F93CF93DF9339
:104B7000EC016A017B012115310579F4E881F981A5
:104B80000190F081E02D642FDF91CF911F910F9163
:104B9000FF90EF90DF90CF9009942A303105E9F42F
:104BA00077FF1AC06DE20E9451258C0144275527DA
:104BB000BA014C195D096E097F092AE0CE010E94F5
:104BC0005C25800F911FDF91CF911F910F91FF9076
:104BD000EF90DF90CF9008952AE0B701A601CE01B3
:104BE000DF91CF911F910F91FF90EF90DF90CF90C9
:104BF0000C945C259A01AB01770F660B770B0C9434
:104C0000B0252115310541F4DC01ED91FC910190B5
:104C1000F081E02D642F09940C945C259A01462FB5
:104C200050E060E070E00C9401269A01AB0160E076
:104C300070E00C9401260F931F93CF93DF93EC0148
:104C40000E9415268C01CE010E945825800F911FCD
:104C5000DF91CF911F910F91089508950E944522F1
:104C60000E942D260E94471BCAE6D3E20E94CC1464
:104C70002097E1F30E946A23F9CF0C943E2908950E
:104C80005058BB27AA270E9458260C94D2270E946E
:104C9000C42738F00E94CB2720F039F49F3F19F445
:104CA00026F40C94C1270EF4E095E7FB0C94BB2787
:104CB000E92F0E94E32758F3BA17620773078407A6
:104CC000950720F079F4A6F50C9405280EF4E095EC
:104CD0000B2EBA2FA02D0B01B90190010C01CA01B6
:104CE000A0011124FF27591B99F0593F50F4503E61
:104CF00068F11A16F040A22F232F342F4427585F53
:104D0000F3CF469537952795A795F0405395C9F76A
:104D10007EF41F16BA0B620B730B840BBAF0915022
:104D2000A1F0FF0FBB1F661F771F881FC2F70EC0C1
:104D3000BA0F621F731F841F48F487957795679594
:104D4000B795F7959E3F08F0B0CF9395880F08F080
:104D50009927EE0F9795879508950E94972708F455
:104D600081E008950E94C6260C94D2270E94CB278A
:104D700058F00E94C42740F029F45F3F29F00C94BA
:104D8000BB2751110C9406280C94C1270E94E327DD
:104D900068F39923B1F3552391F3951B550BBB276A
:104DA000AA2762177307840738F09F5F5F4F220FAF
:104DB000331F441FAA1FA9F335D00E2E3AF0E0E8A6
:104DC00032D091505040E695001CCAF72BD0FE2FF0
:104DD00029D0660F771F881FBB1F26173707480784
:104DE000AB07B0E809F0BB0B802DBF01FF2793583C
:104DF0005F4F3AF09E3F510578F00C94BB270C941E
:104E000006285F3FE4F3983ED4F38695779567953F
:104E1000B795F7959F5FC9F7880F911D9695879570
:104E200097F90895E1E0660F771F881FBB1F62178F
:104E300073078407BA0720F0621B730B840BBA0B4D
:104E4000EE1F88F7E09508950E942B276894B11112
:104E50000C94062808950E94EB2788F09F5798F03D
:104E6000B92F9927B751B0F0E1F0660F771F881F6F
:104E7000991F1AF0BA95C9F714C0B13091F00E9489
:104E80000528B1E008950C940528672F782F88270E
:104E9000B85F39F0B93FCCF3869577956795B395B0
:104EA000D9F73EF490958095709561957F4F8F4F1F
:104EB0009F4F0895E89409C097FB3EF49095809524
:104EC000709561957F4F8F4F9F4F9923A9F0F92FD0
:104ED00096E9BB279395F695879577956795B7954E
:104EE000F111F8CFFAF4BB0F11F460FF1BC06F5F34
:104EF0007F4F8F4F9F4F16C0882311F096E911C046
:104F0000772321F09EE8872F762F05C0662371F066
:104F100096E8862F70E060E02AF09A95660F771F7A
:104F2000881FDAF7880F9695879597F90895990F56
:104F30000008550FAA0BE0E8FEEF16161706E80763
:104F4000F907C0F012161306E407F50798F0621B84
:104F5000730B840B950B39F40A2661F0232B242B59
:104F6000252B21F408950A2609F4A140A6958FEF78
:104F7000811D811D089597F99F6780E870E060E0CA
:104F800008959FEF80EC089500240A9416161706E2
:104F900018060906089500240A941216130614062A
:104FA00005060895092E0394000C11F4882352F08D
:104FB000BB0F40F4BF2B11F460FF04C06F5F7F4F45
:104FC0008F4F9F4F089557FD9058440F551F59F02C
:104FD0005F3F71F04795880F97FB991F61F09F3FE6
:104FE00079F087950895121613061406551FF2CF0F
:104FF0004695F1DF08C0161617061806991FF1CF5F
:1050000086957105610508940895E894BB27662785
:105010007727CB0197F908950E94972708F48FEF1F
:1050200008950E9424280C94D2270E94C42738F0A7
:105030000E94CB2720F0952311F00C94BB270C94F1
:10504000C12711240C9406280E94E32770F3959F32
:10505000C1F3950F50E0551F629FF001729FBB276F
:10506000F00DB11D639FAA27F00DB11DAA1F649F0B
:105070006627B00DA11D661F829F2227B00DA11DBE
:10508000621F739FB00DA11D621F839FA00D611D44
:10509000221F749F3327A00D611D231F849F600D65
:1050A000211D822F762F6A2F11249F5750409AF08E
:1050B000F1F088234AF0EE0FFF1FBB1F661F771F1A
:1050C000881F91505040A9F79E3F510580F00C94E5
:1050D000BB270C9406285F3FE4F3983ED4F38695F3
:1050E00077956795B795F795E7959F5FC1F7FE2B85
:1050F000880F911D9695879597F90895DB018F93F9
:105100009F930E94F928BF91AF91A29F800D911D9E
:10511000A39F900DB29F900D1124089597FB072E29
:1051200016F4009407D077FD09D00E94042907FCEB
:1051300005D03EF4909581959F4F089570956195A7
:105140007F4F0895A1E21A2EAA1BBB1BFD010DC0C3
:10515000AA1FBB1FEE1FFF1FA217B307E407F50727
:1051600020F0A21BB30BE40BF50B661F771F881F03
:10517000991F1A9469F760957095809590959B0199
:10518000AC01BD01CF010895052E97FB1EF40094DC
:105190000E94DB2857FD07D00E94A22807FC03D0FD
:1051A0004EF40C94DB2850954095309521953F4F57
:1051B0004F4F5F4F089590958095709561957F4F03
:1051C0008F4F9F4F0895A29FB001B39FC001A39F2F
:1051D000700D811D1124911DB29F700D811D112430
:1051E000911D08950E94E328B7FF0895821B930B39
:1051F00008950E94E328A59F900DB49F900DA49F51
:10520000800D911D11240895AA1BBB1B51E107C0FD
:10521000AA1FBB1FA617B70710F0A61BB70B881F46
:10522000991F5A95A9F780959095BC01CD010895D5
:10523000EE0FFF1F0590F491E02D0994EF920F936C
:105240001F93CF93DF93E80147FD16C034E0042E8F
:10525000000C550B57FF03C0519541955109E32EA2
:10526000022F242FAE010E94642DCE01DF91CF9139
:105270001F910F91EF90089534E1E9CF0F931F93A1
:10528000CF93DF938230910510F482E090E0E091BB
:105290000508F091060820E030E0A0E0B0E030978B
:1052A00099F42115310509F447C0281B390B243026
:1052B0003105C0F58A819B816115710571F1FB0192
:1052C00093838283FE0111C0408151810281138149
:1052D00048175907F8F04817590799F4109761F0E3
:1052E00012960C93129713961C933296CF01DF916E
:1052F000CF911F910F910895009305081093060810
:10530000F4CF2115310519F04217530718F49A010B
:10531000BD01EF01DF01F801C2CF90930608809331
:105320000508D0CFFE01E20FF31F81939193225025
:10533000310939832883DACF20910308309104089A
:10534000232B41F420910201309103013093040892
:1053500020930308209100013091010121153105AE
:1053600041F42DB73EB74091040150910501241B33
:10537000350BE0910308F0910408E217F307A0F45D
:105380002E1B3F0B2817390778F0AC014E5F5F4F9B
:105390002417350748F04E0F5F1F509304084093C1
:1053A000030881939193A2CFE0E0F0E09FCFCF93E9
:1053B000DF930097D1F0FC01329713821282A09103
:1053C0000508B0910608109799F420813181820F69
:1053D000931F20910308309104082817390709F01A
:1053E00066C0F0930408E0930308DF91CF9108951D
:1053F000ED0120E030E0CE17DF0708F03FC04A8122
:105400005B819E0141155105B9F5E901FB83EA83F2
:1054100049915991C40FD51FEC17FD0761F48081A4
:1054200091810296840F951FE90199838883828177
:1054300093819B838A83E0E0F0E012968D919C91AA
:1054400013970097C9F52D913C911197CD010296C4
:10545000820F931F20910308309104082817390701
:1054600021F6309761F51092060810920508B09366
:105470000408A0930308B9CFEA01BDCFD383C28348
:1054800040815181840F951FC817D90761F44E5F81
:105490005F4F88819981480F591F518340838A81CA
:1054A0009B81938382832115310509F0AECFF09360
:1054B0000608E093050899CFFD01DC01BECF1382F9
:1054C0001282D5CFDC01FB018C9190819D93819359
:1054D0004150510914161506BCF30895A0E0B0E040
:1054E000E4E7FAE20C9437316C01D62FC72F8A011A
:1054F0007901F9010995B80197FF15C08D2F9C2FEF
:10550000F701099597FD08C0B801C601F701099593
:1055100097FD16C0DC2DCD2D8D2F9C2FCDB7DEB77E
:10552000E8E00C9453318D2F9C2FF7010995181644
:10553000190694F3B801C601F701099597FDEACF62
:10554000D02FC12FE9CFAAE0B0E0E9EAFAE20C944B
:105550002D318C016B015A874987390149845A845E
:10556000400E511E27E0C216D10468F549855A85C0
:10557000C49EC001C59E900DD49E900D112468015B
:10558000C80ED91E4C145D0408F080C1720113C00E
:105590005701E985FA85AE1ABF0AB701C501F301C3
:1055A00009951816190654F449855A85B501C7019D
:1055B0000E94622A75010E151F0550F389859A8590
:1055C000480E591EDFCFC6019695879529853A85E5
:1055D000829F7001839FF00C929FF00C1124E00ECB
:1055E000F11EA601415051095A83498357E0C5165F
:1055F000D10409F44DC089819A81829F4001839F23
:10560000900C929F900C1124800E911E99E2C91665
:10561000D10408F485C0C60143E0969587954A9564
:10562000E1F7829F5001839FB00C929FB00C112430
:105630001501220C331CA801420D531DB8016A0D3F
:105640007B1D9301C8010E946E2A8B839D83A70155
:105650004A0D5B1DB194A194B1089301B701C70134
:105660008A0D9B1D0E946E2A7C01B4016A0D7B1D70
:105670009301A401C401821993090E946E2A4C016E
:105680009301A401B7018B819D810E946E2A7C0148
:1056900049855A85B701C8010E94622A29813A8149
:1056A00049855A85249FF001259FF00D349FF00D08
:1056B0001124FE83ED837F01E00EF11E4A01840C6C
:1056C000951C17015A8249821C821B8254018985CC
:1056D0009A85A81AB90AEA14FB0408F4C5C0B801EF
:1056E000C501F3010995181619067CF1892B99F467
:1056F00049855A85B50189819A810E94622A8981EA
:105700009A81E985FA858E0F9F1F9A83898321E00C
:1057100030E03C832B8349855A85840E951ED6CF75
:105720000B831D83ADCF892B71F449855A85B10157
:10573000C7010E94622A29853A85221A330A41E06C
:1057400050E05C834B83EF80F884EA14FB0408F498
:105750008BC0B801C701F3010995970149855A85A6
:10576000241B350B38872F8397FFDDCF49855A855A
:10577000B701C5010E94622AEF80F88481E090E0C1
:105780009C838B83C8CF5701E985FA85AE1ABF0A7F
:10579000B701C501F30109951816190654F4498596
:1057A0005A85B501C7010E94622A75010E151F05B1
:1057B00050F389859A85480E591E4C145D0408F0F3
:1057C00065C07201F3CF8D809E8029853A85820E57
:1057D000931E800E911E650149815A81C41AD50A13
:1057E000401B510BC416D5060CF4A6011416150661
:1057F00034F4B501641B750BC8010E94622AC10113
:105800008E199F097C01A40142195309E985FA8583
:105810004E1B5F0B8417950708F4AC011416150690
:1058200034F4B401641B750BC5010E94622A2985FA
:105830003A852C153D0550F4C601B9010E94042992
:10584000930149855A85C8010E94A32A49855A8532
:105850004E155F05D8F484010E191F09C701BA015E
:105860000E9404296B017ACEEB81FC81EF2B09F0B9
:10587000AACF29853A85C29EC001C39E900DD29EB3
:10588000900D11246801C80ED91E97CF2A96E2E127
:105890000C944931662777270C94C72EFC01882782
:1058A0009927E89421912032E9F3293010F02E3025
:1058B000C8F32B3241F02D3239F4689404C00E94B1
:1058C000202D820F911D219120532A30C0F31EF408
:1058D000909581959F4F08951F93FC0199278827E4
:1058E000BC01E89411911032E9F3193010F01E3028
:1058F000C8F31B3251F01D3249F4689406C00E946F
:105900000B2D610F711D811D911D119110531A30C6
:10591000B0F33EF490958095709561957F4F8F4FD1
:105920009F4F1F91089591110C94EC30803219F023
:1059300089508550C8F7089542EC53E00E94CA2C64
:105940000895FB01DC010D900020E9F7119701900B
:105950000D920020E1F70895FB01DC018D9101908B
:1059600080190110D9F3990B0895FB01DC01019016
:105970000D920020E1F70895FB01DC0141505040F9
:1059800030F08D910190801919F40020B9F7881B2F
:10599000990B0895FA01A191B081009719F410971D
:1059A000E1F0CD01DC01CD010D90002011F4C0012A
:1059B00013C0FB012191222319F02015D9F7F3CF51
:1059C000FB012191201519F41E92119606C0222385
:1059D000C1F70D900020A1F7D001FA01A193B08387
:1059E0000895BB274A3031F4992322F4BDE2909503
:1059F00081959F4F0C944B2DBB272A3051F499234E
:105A000042F4BDE290958095709561957F4F8F4FE0
:105A10009F4F0C94292D592F482F372F262F660F73
:105A2000771F881F991F660F771F881F991F620FA6
:105A3000731F841F951F660F771F881F991F089576
:105A40007AE0979F902D879F802D910D11240895C6
:105A5000BB27FA01A62F6217710581059105330B4B
:105A600030FB66F0AA27660F771F881F991FAA1FB1
:105A7000A21710F0A21B63953850A9F7A05DAA33B6
:105A800008F0A95DA19336F7B111B1931082CA0154
:105A90000C940731BB27FB015527AA27880F991FB4
:105AA000AA1FA41710F0A41B83955051B9F7A05D4D
:105AB000AA3308F0A95DA193009779F7B111B193CA
:105AC0001192CB010C940731A9E0B0E0EAE6FDE2C7
:105AD0000C9433316A01F22EB02E2BE3201708F418
