:100000000C946D010C9434220C945B220C94950199
:100010000C9495010C9495010C9403150C94950186
:100020000C9495010C9495010C9495010C94AC0DD5
:100030000C9495010C9495010C9495010C949501E8
:100040000C9482220C9495010C9460250C949225BA
:100050000C9495010C9495010C9495010C949501C8
:100060000C9495010C949501746D722057616B6529
:10007000642C206275742077656E7420746F207311
:100080006C65657020616761696E20616674657278
:10009000203120686F757200746D7220536875741A
:1000A000206F666600706964203020302030203078
:1000B00000746D722053687574206F6666206475D5
:1000C0006520746F20696E61637469766974790064
:1000D000706964203020302030203000746D722030
:1000E00057616B656420757000696E6620506F778C
:1000F0006572206C6F737400574454206669726592
:100100006400706964203020302030203000706935
:100110006420302030203020300070696420363573
:100120003533352030203020300070696420302095
:100130003020302030007069642036353533362069
:1001400030203020300000000008000201000003D1
:100150000407000000000000000001020408102055
:100160004080010204081020010204081020040449
:10017000040404040404020202020202030303034F
:1001800003030000000023002600290000000000F7
:10019000250028002B0000000000240027002A0072
:1001A0004E414E494E495459494E46CDCCCC3D0A5C
:1001B000D7233C17B7D13877CC2B329595E6241F3F
:1001C000B14F0A000020410000C84200401C4620F8
:1001D000BCBE4CCA1B0E5AAEC59D7400407A10F3CB
:1001E0005A00A0724E18090010A5D4E80000E87665
:1001F00048170000E40B54020000CA9A3B000000BC
:10020000E1F505000080969800000040420F0000D4
:1002100000A08601000000102700000000E8030095
:100220000000006400000000000A0000000000015F
:1002300000000000002C76D888DC674F0823DFC15F
:10024000DFAE59E1B1B796E5E3E453C63AE651991A
:100250007696E8E6C28426EB898C9B62ED407C6F43
:10026000FCEFBC9C9F40F2BAA56FA5F490055A2AFA
:10027000F75C936B6CF9676DC11BFCE0E40D47FE06
:10028000F520E6B500D0ED902E03009435770500FB
:1002900080841E080000204E0A000000C80C333382
:1002A00033330F986E12831141EF8D2114893BE691
:1002B0005516CFFEE6DB18D1844B381BF77C1D901A
:1002C0001DA4BBE424203284725E228100C9F12483
:1002D000ECA1E53D2700F118C22511241FBECFEF88
:1002E000D8E0DEBFCDBF13E0A0E0B1E0E0EDF4E682
:1002F00002C005900D92A43CB107D9F728E0A4EC08
:10030000B3E001C01D92AE31B207E1F711E0CDE6D6
:10031000D1E004C02197FE010E941A2ACB36D107F2
:10032000C9F70E9430270C9466320C9400000496A2
:10033000089584E008958AE208950496089582E07D
:1003400008958AE208950496089582E008958AE265
:1003500008951F93CF93DF93C1E2E4E0F0E0C093F0
:100360005700D491E2E0F0E0C09357001491E0E030
:10037000F0E0C0935700C4916BE771E08BE797E022
:100380000E94512666E871E08BE797E00E945126B3
:1003900064E871E08BE797E00E9451264AE050E064
:1003A0006C2F8BE797E00E94102764E871E08BE7E1
:1003B00097E00E9451264AE050E0612F8BE797E0DA
:1003C0000E94102764E871E08BE797E00E945126B5
:1003D0004AE050E06D2F8BE797E00E94102781E004
:1003E000DF91CF911F910895CF93DF93C091A7061E
:1003F000D091A8066DE871E08BE797E00E94512646
:100400004AE050E0BE018BE797E00E9417276AEAB6
:1004100071E08BE797E00E9451268BE797E0DF9130
:10042000CF910C945A2660912004709121044AE0E7
:1004300050E08BE797E00E9417278BE797E00E9438
:100440005A2681E008950F931F93CF93DF93EC0119
:1004500080E1ECE3F7E0DF011D928A95E9F76A8518
:100460007B8587E991E00E94AE2D892B61F46C8138
:100470007D818E819F810E945C280CE317E022E041
:1004800046E00E94202A6A857B858AE991E00E94E5
:10049000AE2D892B39F44AE06CE377E08C819D81A5
:1004A0000E94F32D6A857B858DE991E00E94AE2D37
:1004B000892B49F46C817D818E819F812AE04CE3F8
:1004C00057E00E94FE2D8CE397E0DF91CF911F91C2
:1004D0000F9108950F931F93CF93DF93EC0180E169
:1004E000ECE3F7E0DF011D928A95E9F768857985ED
:1004F00087E991E00E94AE2D892B71F46C817D819A
:10050000072E000C880B990B0E945E280CE317E065
:1005100022E046E00E94202A688579858AE991E0F8
:100520000E94AE2D892B39F44AE06CE377E08C8190
:100530009D810E94F32D688579858DE991E00E9467
:10054000AE2D892B59F46C817D81072E000C880B10
:10055000990B2AE04CE357E00E94FE2D8CE397E0D4
:10056000DF91CF911F910F9108950F931F93CF9318
:10057000DF93EC0180E1ECE3F7E0DF011D928A9567
:10058000E9F76885798587E991E00E94AE2D892B8E
:1005900061F46C817D8180E090E00E945C280CE336
:1005A00017E022E046E00E94202A688579858AE9E2
:1005B00091E00E94AE2D892B39F44AE06CE377E09C
:1005C0008C819D810E94F32D688579858DE991E06C
:1005D0000E94AE2D892B49F46C817D8180E090E0F2
:1005E0002AE04CE357E00E94FE2D8CE397E0DF9178
:1005F000CF911F910F9108950F931F93CF93DF9386
:10060000C091D203D091D30300911106109112062C
:100610008BE797E00E945A2661EA71E08BE797E04A
:100620000E9451264AE050E0B8018BE797E00E9413
:10063000FC2664E871E08BE797E00E9451264AE0CF
:1006400050E0BE018BE797E00E94172768EA71E04F
:100650008BE797E00E9451268BE797E0DF91CF91DF
:100660001F910F910C945A26FC01808191810E9468
:10067000502D8093140480E00895CF92DF92EF9282
:10068000FF92CF93DF93C0912004D0912104C090BA
:10069000AD04D090AE04E090AF04F090B0046EEAE8
:1006A00071E08BE797E00E94512664E871E08BE7E8
:1006B00097E00E9451262AE030E0B701A6018BE7BF
:1006C00097E00E94032764E871E08BE797E00E94BF
:1006D00051269E01A3ECB0E00E94E52928E436E013
:1006E00040E050E00E94C629CA01B9014AE050E04A
:1006F0008BE797E00E9417278BE797E00E945A2626
:1007000081E0DF91CF91FF90EF90DF90CF9008953F
:100710008F929F92AF92BF92CF92DF92EF92FF9211
:10072000C090DA03D090DB03E090DC03F090DD03AF
:100730008091DE039091DF03A091E003B091E1038B
:10074000C81AD90AEA0AFB0A8090AD049090AE0458
:10075000A090AF04B090B00463EB71E08BE797E03A
:100760000E94512664E871E08BE797E00E945126D1
:100770002AE030E0B501A4018BE797E00E9403274F
:1007800064E871E08BE797E00E9451262AE030E0B0
:10079000B701A6018BE797E00E9403276AEA71E0A0
:1007A0008BE797E00E9451268BE797E0FF90EF9050
:1007B000DF90CF90BF90AF909F908F900C945A266F
:1007C0004F925F926F927F928F929F92AF92BF9261
:1007D000CF92DF92EF92FF921F93CF93DF9380919E
:1007E00014048111A6C0EDE0F6E084809580C091EC
:1007F000D003D09166001091CF03E0902004F090D8
:100800002104C090BB04D090BC04A090BD04B09063
:10081000BE044090AD045090AE046090AF04709060
:10082000B00467EB71E08BE797E00E94512664E823
:1008300071E08BE797E00E9451262AE030E0B30197
:10084000A2018BE797E00E94032764E871E08BE741
:1008500097E00E9451264AE050E0B4018BE797E010
:100860000E94172764E871E08BE797E00E94512609
:100870004AE050E0B5018BE797E00E94FC2664E86F
:1008800071E08BE797E00E9451264AE050E0B60104
:100890008BE797E00E94FC266BEB71E08BE797E01B
:1008A0000E9451264AE050E0B7018BE797E00E9492
:1008B000172764E871E08BE797E00E9451264AE031
:1008C00050E0612F8BE797E00E94102764E871E009
:1008D0008BE797E00E9451264AE050E06D2F8BE7AE
:1008E00097E00E94102764E871E08BE797E00E9490
:1008F00051264AE050E06C2F8BE797E00E941027CA
:100900006AEA71E08BE797E00E9451268BE797E057
:10091000DF91CF911F91FF90EF90DF90CF90BF902C
:10092000AF909F908F907F906F905F904F900C94BE
:100930005A26E3E0F6E059CF8F929F92AF92BF9292
:10094000CF92DF92EF92FF92C0901106D0901206E4
:100950000D2C000CEE08FF088091BD049091BE04A0
:10096000092E000CAA0BBB0BA7019601281B390B03
:100970004A0B5B0BA4ECB9E00E94FB29A70196018E
:100980000E94A42924523A4F4F4F5F4FA5E0B0E098
:100990000E94FB296B017C016093C2047093C30425
:1009A0008093C4049093C5048090AD049090AE04ED
:1009B000A090AF04B090B0046FEB71E08BE797E0CC
:1009C0000E94512664E871E08BE797E00E9451266F
:1009D0002AE030E0B501A4018BE797E00E940327ED
:1009E00064E871E08BE797E00E9451262AE030E04E
:1009F000B701A6018BE797E00E94B2268BE797E04C
:100A00000E945A2681E0FF90EF90DF90CF90BF9038
:100A1000AF909F908F9008954F925F926F927F92C8
:100A20008F929F92AF92BF92CF92DF92EF92FF92FE
:100A3000CF93DF9300D000D0CDB7DEB722EC34E007
:100A4000D9015E968D919D910D90BC91A02D8983C9
:100A50009A83AB83BC83F901C28CD38CE48CF58C74
:100A600086889788A08CB18C428853886488758862
:100A700063EC71E08BE797E00E9451262AE030E0BA
:100A8000B301A2018BE797E00E94B22664E871E00F
:100A90008BE797E00E9451262AE030E0B501A401DF
:100AA0008BE797E00E94B22664E871E08BE797E05D
:100AB0000E9451262AE030E0B701A6018BE797E0BB
:100AC0000E94B22664E871E08BE797E00E9451260D
:100AD0002AE030E049815A816B817C818BE797E085
:100AE0000E94B2266AEA71E08BE797E00E945126E5
:100AF0008BE797E00F900F900F900F90DF91CF91C1
:100B0000FF90EF90DF90CF90BF90AF909F908F902D
:100B10007F906F905F904F900C945A26CF93C0E2D5
:100B2000C15078F0EC2FF0E0EE0FFF1FED59FB4FB6
:100B3000608171814AE050E08BE797E00E941D27B9
:100B4000EFCF81E0CF9108958091270790912807FA
:100B5000A0912907B0912A0780930C0490930D046B
:100B6000A0930E04B0930F0480911E0490911F0473
:100B70008436910508F4A7C0809112048F5F80939A
:100B800012048091200490912104892B41F48091DA
:100B90001E0490911F04909321048093200480915F
:100BA00020049091210420911E0430911F04820F93
:100BB000931F9695879590932104809320048091AC
:100BC0001104809310041092110410921F041092CB
:100BD0001E048091E406882309F456C08091E10642
:100BE0008093E5068091E906882309F44FC080913F
:100BF000E6068093EA068091DF06882309F448C060
:100C00008091DC068093E00685B1897F85B95B9889
:100C10008091160490911704A0911804B0911904C2
:100C2000892B8A2B8B2B21F080911504811132C0E6
:100C300080910B048F5F80930B0490916001891366
:100C400042C010920B0480911A0490911B04A09151
:100C50001C04B0911D040196A11DB11D80931A04BE
:100C600090931B04A0931C04B0931D0481389145FC
:100C7000A140B10540F110921A0410921B04109289
:100C80001C0410921D04089580E0AACF80E0B1CF2B
:100C900080E0B8CF8091160490911704A0911804B9
:100CA000B091190480931A0490931B04A0931C0420
:100CB000B0931D0410921604109217041092180499
:100CC00010921904B5CF089542E050E068EC71E04D
:100CD000FC01808191810E94BE2D61E0892B81F40D
:100CE00080E10E949B2360E080E10E94D72360E0C6
:100CF00080E10E949B2381E08093E80381E00895D6
:100D000080E10E949B2361E080E10E94D723109242
:100D1000E803F4CFEF92FF921F93CF93DF937C0110
:100D2000EB01DC018D919C91DC01ED91FC91048043
:100D3000F581E02D0995182FF70180819181BE0181
:100D40006F5F7F4FDC01ED91FC910480F581E02D18
:100D50000995212F30E0F901F82BCF01DF91CF91D8
:100D60001F91FF90EF900895FC0140815181FB019C
:100D7000208131814217530738F081E090E0241739
:100D8000350720F080E008958FEF9FEF0895CF930F
:100D900080E090E00E941932C82F6BEC71E08BE785
:100DA00097E00E9451266C2F70E04AE050E08BE7FC
:100DB00097E00E94FC266AEA71E08BE797E00E94C8
:100DC00051268BE797E0CF910C945A260F931F93EF
:100DD000CF93DF938C01FC01C081D18143E050E0CF
:100DE0006DE273E0CE010E94BE2D892BB1F4F801B3
:100DF000828193810E946E2D609316047093170474
:100E0000809318049093190481E08093150481E085
:100E1000DF91CF911F910F91089543E050E069ED6C
:100E200071E0CE010E94BE2D892B79F440911A0405
:100E300050911B0460911C0470911D042AE030E065
:100E40008BE797E00E940327E2CF43E050E06DED8F
:100E500071E0CE010E94BE2D892B91F4F8018281B0
:100E600093810E94502D092E000CAA0BBB0B80937E
:100E7000610190936201A0936301B0936401C7CFB5
:100E800043E050E062EE71E0CE010E94BE2D892B5E
:100E900009F0BDCF40916101509162016091630101
:100EA00070916401CBCFEF92FF920F931F93CF937A
:100EB000DF93EC01F62E88819981DC01ED91FC91A4
:100EC0000680F781E02D462F61E070E0099588816A
:100ED0009981DC01ED91FC910680F781E02D4F2D89
:100EE00062E070E00995888199818E010E5A1F4F4A
:100EF000F8016081718161507109DC01ED91FC9113
:100F00000680F781E02D4F2D099588819981F801A0
:100F10006081718162507109DC01ED91FC91068064
:100F2000F781E02D4F2D099588819981DC01ED91A4
:100F3000FC910680F781E02D47E063E070E00995C1
:100F400088819981DC01ED91FC910680F781E02D8B
:100F500040E064E070E0099588819981F801408162
:100F60004350DC01ED91FC910680F781E02D65E0B6
:100F700070E0099588819981F801208131812350A1
:100F80003109DC01ED91FC910680F781E02D432FC2
:100F900066E070E0099587E0E82EF12CF801808189
:100FA00091810297E816F90678F488819981DC012D
:100FB000ED91FC910680F781E02D40E0B7010995A5
:100FC000BFEFEB1AFB0AEACFDF91CF911F910F9190
:100FD000FF90EF900895CF92DF92EF92FF921F93D0
:100FE000CF93DF93EC01CB01122F798368837E01CD
:100FF00022E5E20EF11CD7014D935C93FE01EC5A01
:10100000FF4F118210826E01B6E5CB0ED11CF601A6
:101010001082DB01ED91FC910480F581E02D61E00F
:1010200070E0099518132DC088819981DC01ED913C
:10103000FC910480F581E02D62E070E009951813C1
:1010400020C088819981F7016081718161507109A7
:10105000DC01ED91FC910480F581E02D09951813D8
:1010600010C088819981F701608171816250710996
:10107000DC01ED91FC910480F581E02D09951817B4
:1010800039F0612FCE010E94530781E0F601808381
:10109000DF91CF911F91FF90EF90DF90CF90089557
:1010A0003F924F925F926F927F928F929F92AF92F8
:1010B000BF92CF92DF92EF92FF920F931F93CF9345
:1010C000DF93CDB7DEB72A970FB6F894DEBF0FBE19
:1010D000CDBF6C014B01DC018D919C91DC01ED9148
:1010E000FC910480F581E02D63E070E00995482EC5
:1010F000F60180819181DC01ED91FC910480F58104
:10110000E02D64E070E00995512C582A07E010E0CA
:101110008AE0382EFE0131965F01041515052CF585
:10112000D501E32D1D92EA95E9F73501D6018D91A0
:101130009C917801BFEFEB1AFB0ADC01ED91FC9169
:101140000480F581E02DB8010995F30181933F01F9
:10115000811109C0B501C4010E94AE2D892B39F05F
:101160000B5F1F4FDACF8701E1CFE12CF12CC701D4
:101170002A960FB6F894DEBF0FBECDBFDF91CF9198
:101180001F910F91FF90EF90DF90CF90BF90AF90A5
:101190009F908F907F906F905F904F903F900895B9
:1011A0006F927F928F929F92AF92BF92CF92DF9277
:1011B000EF92FF920F931F93CF93DF93EC015B01AC
:1011C0007A0188819981DC01ED91FC910480F5819F
:1011D000E02D63E070E00995C82E88819981DC01DB
:1011E000ED91FC910480F581E02D64E070E00995BB
:1011F000D12CD82A860188819981DC01ED91FC915E
:101200000480F581E02D65E070E00995682E888105
:101210009981DC01ED91FC910480F581E02D66E07F
:1012200070E00995712C782A202F2C1930E0F501F7
:1012300001900020E9F73197EA19FB09C8010196EE
:101240004C01E217F30780F0888199812A0D3B1D3C
:10125000DC01ED91FC910680F781E02DD9014C91E4
:10126000B80109958401E0CFD701ED91FC9102808E
:10127000F381E02DC701099590E00197681A790A7A
:1012800088819981DC01ED91FC910680F781E02D48
:10129000462DB801099588819981DC01ED91FC9179
:1012A0000680F781E02D472DB4010995B1E06B1A56
:1012B000710888819981DC01ED91FC910680F781AC
:1012C000E02D462D65E070E0099588819981DC016B
:1012D000ED91FC910680F781E02D472D66E070E0EE
:1012E0000995E881F9810190F081E02DC680D780D1
:1012F000D701ED91FC910280F381E02DC7010995A2
:10130000B8016E5F7F4F482F88819981F60109955A
:10131000E881F9810190F081E02DC680D780D70166
:10132000ED91FC910480F581E02DC70109957801CC
:10133000B4E0EB0EF11CB8016D5F7F4F482F888140
:101340009981F601099588819981DC01ED91FC91E3
:101350000680F781E02D4E2D63E070E009958881CD
:101360009981DC01ED91FC910680F781E02D4F2DF4
:1013700064E070E00995C801DF91CF911F910F9152
:10138000FF90EF90DF90CF90BF90AF909F908F90A5
:101390007F906F9008957F928F929F92AF92BF92AD
:1013A000CF92DF92EF92FF920F931F93CF93DF9331
:1013B0008C016B017A01C0E0D0E05A0182E0A80EF6
:1013C000B11CD8018D919C91DC01ED91FC910480C0
:1013D000F581E02DB501099590E0C817D9071CF5F6
:1013E000D801ED91FC910190F081E02D86809780ED
:1013F000D601ED91FC910190F081E02DC601099597
:101400008C0F9D1FFC017080B701C8010E948A06E5
:10141000BE01680F791F472DD8018D919C91F40171
:1014200009952196CECFDF91CF911F910F91FF901B
:10143000EF90DF90CF90BF90AF909F908F907F9074
:101440000895CF93DF93EC01CB010E944C2D0E94B5
:101450002D286C837D838E839F8348855985BE01AB
:1014600083E596E0DF91CF910C94CB09CF93DF9386
:10147000EC01CB010E944C2D0E9426287D836C83B9
:101480004E815F81BE0183E596E0DF91CF910C94A0
:10149000CB09CF93DF93EC01CB010E944C2D0E942E
:1014A0002D287D836C834E815F81BE0183E596E0AC
:1014B000DF91CF910C94CB096F927F928F929F9284
:1014C000AF92BF92CF92DF92EF92FF920F931F9352
:1014D000CF93DF93EC017B016A010E9450088C01DD
:1014E000892B59F4A601B701CE010E94D0088C01C6
:1014F000AC01B601CE010E94CB09FE01EC5AFF4FB0
:1015000080819181019691838083880F991FFE01CC
:10151000E80FF91FD182C082E12CF12C480182E052
:10152000880E911C88819981DC01ED91FC910480E9
:10153000F581E02DB401099590E0E816F9061CF557
:10154000D601ED91FC910190F081E02DC601099545
:101550003C016E0C7F1CE881F9810190F081E02D47
:10156000A480B580B801CE010E948A06B701680F39
:10157000791F88819981F5010995D3018C93BFEF7B
:10158000EB1AFB0ACFCFC801DF91CF911F910F91CA
:10159000FF90EF90DF90CF90BF90AF909F908F9093
:1015A0007F906F900895AF92BF92CF92DF92EF92AB
:1015B000FF920F931F93CF93DF936B01FC01EC5AC3
:1015C000FF4FE080F180EC012296A12CB12CAE14EB
:1015D000BF0471F009911991F80162817381C6010C
:1015E0000E94AE2D892B31F0FFEFAF1ABF0AEFCF6B
:1015F00000E010E0C801DF91CF911F910F91FF90A3
:10160000EF90DF90CF90BF90AF9008950F931F930E
:10161000CF93DF93EC010881198146E050E067EE3B
:1016200071E0C8010E94BE2D892B99F48091B90404
:101630009091BA04009739F00E944A1FBC018BE7D1
:1016400097E00E94512681E0DF91CF911F910F9189
:101650000895B80183E596E00E94D30A0097B1F09F
:10166000DC01ED91FC910680F781E02D09958C015C
:10167000688179818BE797E00E94512664E871E0E8
:101680008BE797E00E945126B801D9CF80E0DCCFEC
:101690000F931F93CF93DF93EC018B018881998186
:1016A000892BF1F08A819B81892BE9F08C819D81C6
:1016B000892BE1F482E090E0880F991FFE01E80F8A
:1016C000F91F118300836E81C8010E9476206F810B
:1016D0007885C801DF91CF911F910F910C947920EB
:1016E00080E090E0E9CF81E090E0E6CFDF91CF911C
:1016F0001F910F910895EF92FF920F931F93CF9335
:10170000DF93EC016E838C017C0186E0E80EF11C16
:10171000F801819191918F01009719F06E810E94DB
:1017200076200E151F05A1F7DF91CF911F910F9124
:10173000FF90EF900895EF92FF920F931F93CF9336
:10174000DF93EC0178876F838C017C0186E0E80EE3
:10175000F11CF801819191918F01009721F06F8127
:1017600078850E9479200E151F0599F7DF91CF919A
:101770001F910F91FF90EF900895EF92FF921F93AA
:10178000CF93DF93162FFC016187EC017C01F6E01B
:10179000EF0EF11C89919991009719F0612F0E9429
:1017A0007320CE15DF05B1F7DF91CF911F91FF9028
:1017B000EF900895CF93DF93FC01C081D18167E65C
:1017C00072E0CE010E94AE2D892B49F461E082EDDA
:1017D00096E00E94BD0B81E0DF91CF9108956DE608
:1017E00072E0CE010E94AE2D892B11F460E0EFCFA4
:1017F000CE010E94502DBC0182ED96E00E949B0B11
:10180000EACFCF93DF93FC01808191810E94502D1C
:10181000EC01DD27BE018EEB96E00E949B0B61E0A0
:10182000CF3FD1050CF060E08EEB96E00E94BD0B3F
:1018300081E0DF91CF91089561E088EC96E00E940D
:10184000BD0B61E08EEB96E00E94BD0B60ED77E092
:1018500080E090E00E94FD2260E088EC96E00E942B
:10186000BD0B60E08EEB96E00E94BD0B81E0089519
:10187000CF93DF93E82FF0E0EE0FFF1FE159FE4F0B
:10188000C081D1816936D1F140F4623679F0673692
:10189000E9F180E0DF91CF910895603739F1663743
:1018A000E9F06E36B1F780E090E007C0BE0182ED4E
:1018B00096E00E94480B82ED96E0A5E6B1E020E0BC
:1018C000009761F14D915C9111978417950731F55F
:1018D0002F5F12962530A1F781E0DCCFBE0188ECA6
:1018E00096E00E94480B88EC96E0E7CFBE018EEBB5
:1018F00096E00E94480B8EEB96E0DFCFBE0184EBB2
:1019000096E00E94480B84EB96E0D7CFBE018AEAAE
:1019100096E00E94480B8AEA96E0CFCFED91FC91C9
:101920001197AF014A5F5F4F60817181C617D7077A
:1019300011F4118210823296E417F507A9F7C8CF87
:101940000F931F93CF93DF93EC010881198146E039
:1019500050E067EE71E0C8010E94BE2D892B81F432
:101960008091B9049091BA04009721F06A817B813B
:101970000E944C2081E0DF91CF911F910F9108953B
:10198000D8018C918F3669F411961C9110531A303E
:1019900040F48A819B810E94502D682F812F0E94E4
:1019A000380C6881798183E596E00E94D30A8C0126
:1019B000009761F16A817B81DC01ED91FC910084EB
:1019C000F185E02D0995D801ED91FC910680F78114
:1019D000E02DC80109958C010990D881C02D6EEECB
:1019E00071E08BE797E00E945126BE018BE797E0FC
:1019F0000E94512664E871E08BE797E00E9451262F
:101A0000B8018BE797E00E945126B4CF80E0B3CFB6
:101A10004F925F926F927F928F929F92AF92BF92FE
:101A2000CF92DF92EF92FF920F931F93CF93DF93AA
:101A3000EC01FB0100911B0610911C06E0902506AD
:101A4000F09026068090430690904406A12CB12C7D
:101A50009B01241B350BD801AE19BF090E94E52953
:101A60009F0140E050E00E94A4292E0D3F1D411D22
:101A7000511DA4E6B0E00E94FB29A50194010E943B
:101A8000A42929013A019701A4E6B0E00E94E529C2
:101A9000A50194010E94C62962017301C216D306F2
:101AA000E406F50614F469017A019801A4E6B0E0B1
:101AB0000E94E529A50194010E94C6292C153D0527
:101AC0004E055F0514F469017A01C882D982EA8261
:101AD000FB82DF91CF911F910F91FF90EF90DF90EC
:101AE000CF90BF90AF909F908F907F906F905F90BE
:101AF0004F90089580917C00E0912204209178001D
:101B00009091790080FF1BC0AE2FB0E01196AF71AD
:101B1000BB27AA0FBB1FAD59BB4F30E0392B2D930C
:101B20003C93EF5FE09322042091F5043091F6049A
:101B3000232B21F0887F846080937C000895EF71CF
:101B4000F0E0EE0FFF1FED5DFB4F30E0392B3183EE
:101B50002083887F8360F0CF1F920F920FB60F9281
:101B600011242F933F934F935F938F939F932091D3
:101B70001E0430911F042F5F3F4F30931F042093AA
:101B80001E048091E506882339F08091E206909149
:101B9000E3062817390768F58091EA06882339F0AB
:101BA0008091E7069091E8062817390760F580E0F4
:101BB0009091E006992339F04091DD065091DE06C0
:101BC0002417350738F595B1892785B980910A041E
:101BD000811104C08091120480FD23C09F918F91D8
:101BE0005F914F913F912F910F900FBE0F901F90DB
:101BF00018958BB198E089278BB98091E5068150C3
:101C00008093E506C9CF8091EA0681508093EA0669
:101C100084E0CECF82609091E00691509093E006F0
:101C2000D2CF81E080930A0480917A00806480930F
:101C30007A00D4CF8F929F92AF92BF92CF92DF92D1
:101C4000EF92FF920F931F93CF93DF93EC010091DC
:101C50002004109121044C01A12CB12CC501B40128
:101C60000E945C282EEA37E449E555E40E941329D6
:101C70000E942D286B017C018AE0F694E794D794AA
:101C8000C7948A95D1F70D2C000CEE08FF089E0131
:101C9000DE010E94E5299B01AC01AFEFB8E00E9494
:101CA000FB2924E196958795779567952A95D1F735
:101CB000C61AD70AE80AF90AA70196012C55394035
:101CC00041095109C501B4010E94802920E034E096
:101CD00040E050E00E94C62926573A4F4F4F5F4FD1
:101CE000D8010E94FB2928E436E040E050E00E9441
:101CF000C629C901DF91CF911F910F91FF90EF90FD
:101D0000DF90CF90BF90AF909F908F900895E0911B
:101D1000EB032E2F30E046E0E49FF0011124E45164
:101D2000FC4F9583848311821082C901019665E07E
:101D300070E00E9490298093EB03089580EB9EE071
:101D40000E94870E81E008956091660080E090E037
:101D50000E94213287EC96E00E94870E81E0089570
:101D60000F931F93CF93DF93E091E903F0E0EE0F21
:101D7000FF1FEB5AF94F80819181DC01ED91FC91BD
:101D80000680F781E02D0995EC01E091E903F0E090
:101D9000EE0FFF1FEB5AF94F0190F081E02D028109
:101DA000138161EF71E08BE797E00E945126B80143
:101DB0008BE797E00E94512664E871E08BE797E09B
:101DC0000E945126BE018BE797E00E9451266AEAE5
:101DD00071E08BE797E00E9451268BE797E00E9425
:101DE0005A268091E9038F5F8093E90390E0209168
:101DF000A7063091A8068217930751F41092E903C1
:101E000084EF91E0DF91CF911F910F910C94870E99
:101E100080EB9EE0F7CF4091270750912807609113
:101E2000290770912A074093D5035093D6036093F6
:101E3000D7037093D803882309F44EC01092D903B6
:101E40000E94CC226093C8047093C9048093CA0492
:101E50009093CB041092CC041092CD041092CE0437
:101E60001092CF042091950530919605AFEFBFEF0A
:101E70000E94E5290E945E2820E030E048EC52E410
:101E80000E94B4270E9426286093E0047093E10426
:101E90008093E2049093E3048091270790912807B0
:101EA000A0912907B0912A078093DA039093DB036E
:101EB000A093DC03B093DD038093DE039093DF03F4
:101EC000A093E003B093E1038091140481114DC00D
:101ED00088E893E00C94870E60E08EEB96E00E9419
:101EE000BD0B60E088EC96E00E94BD0B8091C804B9
:101EF0009091C904A091CA04B091CB04892B8A2B7C
:101F00008B2BD1F00E94CC226093CC047093CD0433
:101F10008093CE049093CF0420912F063091300609
:101F2000A8EEB3E00E94E5296093D0047093D10439
:101F30008093D2049093D3041092E0041092E104B1
:101F40001092E2041092E3048091270790912807F1
:101F5000A0912907B0912A078093DA039093DB03BD
:101F6000A093DC03B093DD03AFCF08950F931F93CD
:101F7000CF93DF93AB01BC018091FD059091FE05ED
:101F8000892BD1F080917705909178058C0120E024
:101F900030E0041715072607370770F420916D0508
:101FA00030916E05820F931FA0E0B0E0D1E048179A
:101FB00059076A077B0708F0D0E02091C1053091EE
:101FC000C2052115310581F0E8EEF3E02E9FC00136
:101FD0002F9F900D3E9F900D1124A0E0B0E084173C
:101FE0009507A607B70728F1C0E0C093D903D11120
:101FF0001CC061E06C278EEB96E00E94BD0BDD23D8
:1020000031F08091F3059091F405892B81F4809152
:10201000140481110CC061E06C2788EC96E0DF911C
:10202000CF911F910F910C94BD0B60E0E4CF60E065
:10203000F4CF8091D903813019F080E00E940B0F1A
:10204000C1E0D3CFE091EB032E2F30E046E0E49FD8
:10205000F0011124E451FC4F158214829383828392
:10206000C901019665E070E00E9490298093EB031E
:102070000895409127075091280760912907709192
:102080002A074093D5035093D6036093D7037093E8
:10209000D80380931404882321F08AE191E00C9402
:1020A0002210109213048EE091E0F9CF409127079F
:1020B000509128076091290770912A074093D50312
:1020C0005093D6036093D7037093D8032091B7053C
:1020D0003091B805232B39F081112EC081E0909109
:1020E000A404911180E08093A4048091A404811140
:1020F00004C082E091E00C9422101092A50410928A
:10210000A6041092A7041092A8041092A904109299
:10211000AA041092AB041092AC0460911106709165
:1021200012064091BD045091BE044617570724F48F
:1021300082EC94E00C94080D0895CF93A091EA03EB
:10214000C6E0CA9FD0011124A451BC4F1496ED9152
:10215000FC9115973097B9F009958091EA0390E0CA
:10216000C89FF001C99FF00D1124E451FC4F158266
:102170001482019665E070E00E9490298093EA0342
:1021800081E0CF9108956D917C9111976115710552
:10219000D9F08BE797E00E9451266AEA71E08BE75D
:1021A00097E00E9451268BE797E00E945A26809183
:1021B000EA0390E0C89FF001C99FF00D1124E4519B
:1021C000FC4F11821082D5CF12966D917C9113979E
:1021D00061157105D9F08BE797E00E942D266AEA18
:1021E00071E08BE797E00E9451268BE797E00E9411
:1021F0005A268091EA0390E0C89FF001C99FF00D34
:102200001124E451FC4F13821282B3CF80E0B9CF86
:102210008091EF04882339F02F9A8091F00488236D
:1022200021F05F9A08952F98F8CF5F9808950E9443
:102230001A0E8035910510F480E090E0BC0182ED2B
:1022400096E00C949B0BEF92FF920F931F93CF930A
:10225000DF938B017A01C82FD0E0C151DB4F888119
:10226000811112C065397A4278F081E088830E943A
:102270000811F70121E2215039F080819181969572
:10228000879581939193F7CF8881882389F00C3CBF
:10229000194270F418820E940811F70121E22150BE
:1022A00039F080819181880F991F81939193F7CFA5
:1022B000DF91CF911F910F91FF90EF900895CF92F2
:1022C000DF92EF92FF920F931F93CF93DF93D82F5C
:1022D000E82FF0E0E151FB4FC1E080818111C0E0C7
:1022E000DD2309F461C003E214E024EB36E042E0B0
:1022F00050E060E270E0C8010E94A52BF8017096E2
:1023000088E020E030E041915191240F351F8F5F2C
:102310008831C9F7C25FD1110DC0F8018081918168
:102320009093E7038093E60386AD97AD9093E50322
:102330008093E403A0EFB5E50E94E5296B017C01E1
:102340000C2E04C0F694E794D794C7940A94D2F75D
:10235000C15004C09695879577956795CA95D2F731
:1023600060FF05C0FFEFCF1ADF0AEF0AFF0A809176
:10237000A304811105C0A801B6018D2F0E9423116D
:10238000C114D104E104F10429F082E0C80ED11C8B
:10239000E11CF11CC601DF91CF911F910F91FF90BD
:1023A000EF90DF90CF90089503E614E09ECF4F9218
:1023B0005F926F927F928F929F92AF92BF92CF92D5
:1023C000DF92EF92FF92CF93DF93E090BD04F09005
:1023D000BE0424E6E216F1049CF460E082ED96E08F
:1023E000DF91CF91FF90EF90DF90CF90BF90AF90B3
:1023F0009F908F907F906F905F904F900C94BD0B4B
:1024000080911404882319F18091130481111FC055
:10241000C0900706D0900806C1E0EC14FD040CF053
:10242000C0E060E070E082ED96E00E949B0B80913E
:10243000DB06C81739F0EC14FD0434F486E391E0B0
:102440000E9422106C2FCACF8AE291E0F9CF84EE6D
:1024500094E00E94B721882309F448C1C091BD04CB
:10246000D091BE048091140481114AC2EDE0F6E0DF
:10247000E480F580D701AC1BBD0B2D010B2E000CA9
:102480006608770820914D0630914E060E94F42987
:102490006093D4047093D5048093D6049093D704AA
:1024A0008091C8049091C904A091CA04B091CB0452
:1024B000892B8A2B8B2B89F18091CC049091CD04B0
:1024C000A091CE04B091CF040097A105B10509F405
:1024D00072C08090D0049090D104A090D204B090AB
:1024E000D304880E991EAA1EBB1E0E94CC2268151A
:1024F00079058A059B0508F45EC01092CC04109201
:10250000CD041092CE041092CF041092C804109201
:10251000C9041092CA041092CB04C70124E0969516
:1025200087952A95E1F7E81AF90AEC16FD0608F0F6
:1025300042C08090430690904406A12CB12C20917B
:10254000250630912606A4E6B0E00E94E529A50103
:1025500094010E94C6298091C2049091C304A09165
:10256000C404B091C504840D951DA61DB71D690155
:102570007A01C816D906EA06FB0614F46C017D013F
:1025800020911B0630911C06A4E6B0E00E94E529CC
:10259000A50194010E94C6292C153D054E055F0535
:1025A00014F469017A01C092C204D092C304E0928B
:1025B000C404F092C504A0914306B0914406209152
:1025C000C2043091C3044091C4045091C5040E94D8
:1025D000FB2924E630E040E050E00E94C629490192
:1025E0005A012093D8043093D9044093DA045093CD
:1025F000DB04E091C604F091C704EC1BFD0B2091B5
:10260000390630913A06DF010E94F4299B01AC01A2
:102610008091C8049091C904A091CA04B091CB04E0
:10262000892B8A2B8B2B09F46EC18F2F881F88274B
:10263000881F682F70E080E090E06F5F7F4F8F4FC2
:102640009F4F0E9480296093DC047093DD04809387
:10265000DE049093DF04D093C704C093C604C090F7
:10266000D404D090D504E090D604F090D704C80CE0
:10267000D91CEA1CFB1CC60ED71EE81EF91E809052
:10268000E0049090E104A090E204B090E304C80C50
:10269000D91CEA1CFB1CF7FC3BC1C114D10481E02E
:1026A000E806F1042CF0CC24CA94DC2CE12CF12CAB
:1026B00056E0F594E794D794C7945A95D1F7D09201
:1026C000E303C092E2038CE095E00E94870E8091C4
:1026D000E9059091EA05892B09F41EC1C6010E9403
:1026E000171161E082ED96E00E94BD0B8091E90533
:1026F0009091EA05892B09F46DC020916304309113
:10270000640440E050E08091EF0481110CC168EF57
:102710007AE280E090E00E9480294AE096958795D1
:10272000779567954A95D1F720911404211100C13E
:10273000EDE0F6E0A481B581A61BB70B20914D0614
:1027400030914E060E94F4296093D4047093D5040E
:102750008093D6049093D704C090D804D090D90425
:10276000E090DA04F090DB04DC01CB018C0D9D1DC0
:10277000AE1DBF1D4091DC045091DD046091DE046C
:102780007091DF04840F951FA61FB71F4091E004CE
:102790005091E1046091E2047091E304840F951F6D
:1027A000A61FB71FB7FDC7C0009721E0A207B1055C
:1027B00024F08FEF9FEFA0E0B0E036E0B595A7954D
:1027C000979587953A95D1F79093E3038093E20329
:1027D0000E9417118091E9059091EA05892B99F4DF
:1027E0008091E2039091E30325E0289FB001299FA7
:1027F000700D112484EE94E00E94E921682F82ED8F
:1028000096E00E94BD0B83E197E00E94271E88237B
:1028100009F498C0C0915905D0915A0560914F05AF
:10282000709150056C1B7D0B072E000C880B990BCB
:102830000E945E286B017C0183E197E00E94ED1EFF
:102840000E945C284B015C01609145057091460532
:1028500080E090E00E945C2820E030E04AE754E409
:102860000E9413299B01AC01C501B4010E94B42749
:10287000A70196010E9413296B017C01BE01DD0FA7
:10288000880B990B0E945E289B01AC01C701B60121
:102890000E9443270E942D2880E090E00E945C283F
:1028A00020E030E040E854E40E94132920E030E0CA
:1028B00048EC52E40E94B4276B017C0120E030EC2C
:1028C0004FE754E40E940E291816CCF1C701B60157
:1028D0000E942D28CB010E941A0EBC018EEB96E0BF
:1028E000DF91CF91FF90EF90DF90CF90BF90AF90AE
:1028F0009F908F907F906F905F904F900C949B0B68
:10290000E3E0F6E0B5CD61E070E080E090E099CEE4
:10291000C12CD12C7601D3CE60E070E082ED96E040
:102920000E949B0BE3CE60EF75E580E090E0F3CE74
:10293000E3E0F6E0FFCE80E090E0DC0145CF8FEFF2
:1029400093E0C9CFDF91CF91FF90EF90DF90CF90D0
:10295000BF90AF909F908F907F906F905F904F90BF
:102960000895CF92DF92EF92FF926B017C01AB0151
:10297000BC0183E197E00E94601EB701A6018BEEC7
:1029800096E0FF90EF90DF90CF900C94601EF8944B
:10299000A0E8B0E01C92E1E8F0E01082109285001F
:1029A00010928400B0938900A09388008081886091
:1029B000808382E080936F0080818160808378943F
:1029C0000895ACE7B0E083EC8C93EAE7F0E0808117
:1029D0008460808380818260808380818160808345
:1029E000808180688083808180648083279A2F988B
:1029F0008C918B7F83608C93808180648083279A05
:102A00002F980C9408111F920F920FB60F92112459
:102A10002F933F934F935F936F937F938F939F93E6
:102A2000AF93BF93EF93FF9360E082ED96E00E9437
:102A3000BD0B60E08EEB96E00E94BD0B60E088EC81
:102A400096E00E94BD0B60E081EE96E00E9473204C
:102A500060E086EE96E00E94732060E08CED96E0E8
:102A60000E9473208AE28093D403FF91EF91BF917B
:102A7000AF919F918F917F916F915F914F913F9116
:102A80002F910F900FBE0F901F9018950F931F93CB
:102A9000CF930E94CC2260932707709328078093DE
:102AA000290790932A072091CC0321111DC0009182
:102AB0000C0410910D0420910E0430910F040115A7
:102AC00011052105310581F0601B710B820B930B01
:102AD000653671058105910538F081E08093CC035E
:102AE00089EE90E00E94221080910A04882321F050
:102AF00080917A0086FF55C24091270750912807A0
:102B00006091290770912A078FEF96E00E94601E5E
:102B100084EE94E00E948C218091A404882351F0DB
:102B200060912707709128078091290790912A07C3
:102B30000E94B1148091B5049091B604A091B7049D
:102B4000B091B8040196A11DB11D8093B504909376
:102B5000B604A093B704B093B80468EE73E084EEB3
:102B600094E00E94BA21C82F882309F4C4C0F894C5
:102B7000809112048093CF03109212047894809174
:102B8000AD0480FFF0C1409A80E00E945F119093F5
:102B9000BE048093BD048091F5049091F604892BC6
:102BA00039F081E00E945F119093BC048093BB04D4
:102BB0008091AD049091AE04A091AF04B091B004A7
:102BC0000297A105B10560F460911106709112069B
:102BD0004091BD045091BE04461757070CF4E6C15E
:102BE0008091B5049091B6049093CE038093CD0369
:102BF0001092B5041092B6041092B7041092B80463
:102C00000E94CC226093B1047093B2048093B30409
:102C10009093B4048091AD049091AE04A091AF0460
:102C2000B091B0040196A11DB11D8093AD049093A5
:102C3000AE04A093AF04B093B00487709927AA277D
:102C4000BB27892B8A2B8B2B09F055C08091CF0392
:102C500090E0893691050CF488C1843791050CF415
:102C60004AC028E74091C6035091C70320936001F2
:102C70002091600130E0821793073CF49A012150C3
:102C800031093093C7032093C6032091600130E0DF
:102C9000281739074CF48091C6039091C703019619
:102CA0009093C7038093C6038091C6039091C70396
:102CB000099734F088E090E09093C7038093C603AF
:102CC0008091C6039091C703883F9F4F34F488EFEB
:102CD0009FEF9093C7038093C6032091C603309162
:102CE000C7034217530739F08091D003820F87FF43
:102CF00080E880936600809115048823E1F180913B
:102D0000A404882361F08091A9049091AA04A09161
:102D1000AB04B091AC04892B8A2B8B2B61F1809191
:102D2000DF059091E005892B31F18091A504909108
:102D3000A604A091A704B091A804892B8A2B8B2B01
:102D4000D1F48091AB059091AC05A091AD05B09107
:102D5000AE050097A105B10571F040911A0450919C
:102D60001B0460911C0470911D04481759076A07E1
:102D70007B0709F420C18091270590912805892BB4
:102D800089F120911D0530911E052115310551F164
:102D90008091A9049091AA04A091AB04B091AC04D5
:102DA000892B8A2B8B2BF1F4A0E6BAEE0E94E52941
:102DB0000091D5031091D6032091D7033091D80309
:102DC000600F711F821F931F009127071091280722
:102DD0002091290730912A0760177107820793070E
:102DE00008F40BC1809115048823E1F18091A404BB
:102DF00081110CC08091A5049091A604A091A70414
:102E0000B091A804892B8A2B8B2B61F18091D50579
:102E10009091D605892B31F18091A9049091AA0453
:102E2000A091AB04B091AC04892B8A2B8B2BD1F4ED
:102E300080919F059091A005A091A105B091A20558
:102E40000097A105B10571F040911A0450911B043F
:102E500060911C0470911D0484179507A607B7079D
:102E600009F4FBC04091A5045091A6046091A70409
:102E70007091A8044115510561057105B1F080916B
:102E8000A404811112C080911A0490911B04A09196
:102E90001C04B0911D04841B950BA60BB70B80314D
:102EA0009E40A105B10508F0FEC08091A4048111E7
:102EB0000DC08091A5049091A604A091A704B091A3
:102EC000A804892B8A2B8B2B09F451C08091A9046B
:102ED0009091AA04A091AB04B091AC04892B8A2BE9
:102EE0008B2B09F044C00E94D711CC2321F080EE37
:102EF00093E00E94870E8091E80381112DC04091DC
:102F00002707509128076091290770912A0780911F
:102F1000C8039091C903A091CA03B091CB03841751
:102F20009507A607B707C0F40E949D108823A1F05B
:102F30008091270790912807A0912907B0912A072F
:102F40008C599F4FAF4FBF4F8093C8039093C903D5
:102F5000A093CA03B093CB038FEB94E0CF911F9162
:102F60000F910C94182140980FCE24E67BCE60E0A0
:102F700082ED96E00E94BD0B60E088EC96E00E9436
:102F8000BD0B60E08EEB96E00E94BD0B60E084EB31
:102F900096E00E94BD0B60E08AEA96E00E94BD0BBD
:102FA000A4CF0E947A0D10920A04A6CD82EC94E080
:102FB0000E94080D15CE80911A0490911B04A091D7
:102FC0001C04B0911D048093A5049093A604A093C3
:102FD000A704B093A8041092A9041092AA04109216
:102FE000AB041092AC0461E082ED96E00E94BD0B50
:102FF0008CED90E00E942210BECE1092D50310926C
:10300000D6031092D7031092D80380911A0490919E
:103010001B04A0911C04B0911D048093A9049093FB
:10302000AA04A093AB04B093AC041092A504109230
:10303000A6041092A7041092A8041092A40460E0C1
:1030400082ED96E00E94BD0B80ED90E00E94221080
:1030500081EB90E00E942210C5CE80911A049091DD
:103060001B04A0911C04B0911D048093A9049093AB
:10307000AA04A093AB04B093AC041092A5041092E0
:10308000A6041092A7041092A80460E082ED96E0D6
:103090000E94BD0B85EA90E00E94221088E990E032
:1030A0000E942210DFCE1092A5041092A604109266
:1030B000A7041092A80460E082ED96E00E94BD0B88
:1030C00088E690E00E942210F0CEAF92BF92CF929D
:1030D000DF92EF92FF920F931F93CF93DF93EC0158
:1030E0005A018FEE92E0998388835D834C837B83C2
:1030F0006A8339872887AE01C8010E945C0A9F83D2
:103100008E832C813D81F701408151812417350741
:1031100030F0F601408151814217530788F4BD8297
:10312000AC82AC01BE01C801DF91CF911F910F911C
:10313000FF90EF90DF90CF90BF90AF900C94CB09B1
:10314000DF91CF911F910F91FF90EF90DF90CF9083
:10315000BF90AF900895AF92BF92CF92DF92EF925F
:10316000FF920F931F93CF93DF93EC015A018DEFE2
:1031700092E0998388835D834C837B836A8339875C
:103180002887AE01C8010E945C0A9F838E832C8130
:103190003D81F701408151812417350734F0F60154
:1031A00040815181421753078CF4BD82AC82AC013F
:1031B000BE01C801DF91CF911F910F91FF90EF9059
:1031C000DF90CF90BF90AF900C94CB09DF91CF915F
:1031D0001F910F91FF90EF90DF90CF90BF90AF9035
:1031E0000895AF92BF92CF92DF92EF92FF920F932A
:1031F0001F93CF93DF9300D000D0CDB7DEB741E06F
:1032000068E083E197E00E94451E41E064E08FEFB3
:1032100096E00E94451E41E065E08BEE96E00E943C
:10322000451E6AE086EE96E00E94632063E081EE30
:1032300096E00E94632069E08CED96E00E94632096
:103240001092D7061092D6061092D5061092D40688
:103250001092D3061092D2061092DB061092CD0681
:103260001092CC061092CB061092CA061092C90694
:103270001092C8061092D1061092C3061092C20690
:103280001092C1061092C0061092BF061092BE06A0
:103290001092C7061092B9061092B8061092B7069F
:1032A0001092B6061092B5061092B4061092BD06A2
:1032B0001092AF061092AE061092AD061092AC06B8
:1032C0001092AB061092AA061092B30628E540E0D1
:1032D00054E065E771E083E596E00E94EB07A12CDE
:1032E0009DE7B92EBC82AB821A821982CE01039669
:1032F0006C0102977C0103E516E02AE931E044E124
:1033000050E06AEF71E089E496E00E946518BC82A3
:10331000AB821A8219822AE931E04EE150E06FEF68
:1033200071E08FE396E00E946518BC82AB821A823E
:1033300019822AE931E040E850E064E072E085E378
:1033400096E00E946518BC82AB821A8219822AE933
:1033500031E048E750E069E072E08BE296E00E94DD
:103360006518BC82AB821A8219822AE931E048EEE4
:1033700053E060E172E081E296E00E946518BC8251
:10338000AB821A8219822AE931E043E353E367E111
:1033900072E087E196E00E946518BC82AB821A82D7
:1033A00019822AE931E044E757E26EE172E08DE0EC
:1033B00096E00E94AB18BC82AB821A8219822AE97D
:1033C00031E044ED50E364E272E083E096E00E9475
:1033D000AB18BC82AB821A8219822AE931E040E044
:1033E00050E06BE272E089EF95E00E946518BC82C4
:1033F000AB821A8219822AE931E040E050E061E3B1
:1034000072E08FEE95E00E946518BC82AB821A8252
:1034100019822AE931E041E050E067E372E085EE8D
:1034200095E00E946518BC82AB821A8219822AE953
:1034300031E040E050E060E472E08BED95E00E9406
:103440006518BC82AB821A8219822AE931E040E019
:1034500050E068E472E081ED95E00E946518BC825E
:10346000AB821A8219822AE931E040E050E060E53F
:1034700072E087EC95E00E946518BC82AB821A82EC
:1034800019822AE931E040E050E067E572E08DEB17
:1034900095E00E946518BC82AB821A8219822AE9E3
:1034A00031E040E050E06DE572E083EB95E00E9492
:1034B00065188BE093E09093A8058093A705109280
:1034C000AB051092AC051092AD051092AE0584E6E6
:1034D00092E09093AA058093A9058DE991E09093DD
:1034E000B2058093B10547EA55E064E672E0C80191
:1034F0000E945C0A9093B0058093AF054091AB05A4
:103500005091AC056091AD057091AE0541385145C3
:103510006140710570F01092AB051092AC051092ED
:10352000AD051092AE05AC0167EA75E0C8010E94D6
:10353000CB098BE093E090939C0580939B051092C0
:103540009F051092A0051092A1051092A2058AE68F
:1035500092E090939E0580939D058DE991E0909374
:10356000A6058093A5054BE955E06AE672E083E580
:1035700096E00E945C0A9093A4058093A305409175
:103580009F055091A0056091A1057091A205413859
:1035900051456140710578F010929F051092A00589
:1035A0001092A1051092A205AC016BE975E083E5CC
:1035B00096E00E94CB09A12C8DE7B82EBC82AB828D
:1035C0001A821982CE0103966C0102977C0103E5F1
:1035D00016E02AE931E041E250E061E772E081E97A
:1035E00095E00E946518BC82AB821A8219822AE992
:1035F00031E040E050E068E772E087E895E00E9443
:103600006518BC82AB821A8219822AE931E040E057
:1036100050E061E872E08DE795E00E946518BC8299
:10362000AB821A8219822AE931E048EB5BE067E855
:1036300072E083E795E00E946518BC82AB821A8233
:1036400019822AE931E048EB5BE06EE872E089E636
:1036500095E00E946518BC82AB821A8219822AE921
:1036600031E048EE53E064E972E08FE595E00E94B6
:103670006518BC82AB821A8219822AE931E044E6DD
:1036800050E069E972E085E595E00E946518BC822A
:10369000AB821A8219822AE931E044E650E06DE9F2
:1036A00072E08BE495E00E946518BC82AB821A82BE
:1036B00019822AE931E049E150E061EA72E081E4EF
:1036C00095E00E946518BC82AB821A8219822AE9B1
:1036D00031E040E050E065EA72E087E395E00E9467
:1036E000AB18BC82AB821A8219822AE931E048EE1B
:1036F00053E06AEA72E08DE295E00E946518BC82B0
:10370000AB821A8219822AE931E040E050E060EB96
:1037100072E083E295E00E946518BC82AB821A8257
:1037200019822AE931E04CE350E06AEB72E089E16A
:1037300095E00E946518BC82AB821A8219822AE940
:1037400031E040E750E061EC72E08FE095E00E94EC
:103750006518BC82AB821A8219822AE931E042E6FE
:1037600050E064EC72E085E095E00E946518BC8250
:10377000AB821A8219822AE931E046E750E067EC11
:1037800072E08BEF94E00E946518BC82AB821A82D3
:1037900019822AE931E040E050E06AEC72E081EF02
:1037A00094E00E9465186DE275E084EE94E00E945A
:1037B00065211092DC041092DD041092DE04109258
:1037C000DF048CE49DE1A0E0B0E08093C20490931C
:1037D000C304A093C404B093C50480ED97E0909314
:1037E000C7048093C6041092C8041092C9041092B2
:1037F000CA041092CB041092CC041092CD04109203
:10380000CE041092CF041092E0041092E1041092C2
:10381000E2041092E3040F900F900F900F90DF914D
:10382000CF911F910F91FF90EF90DF90CF90BF90BD
:10383000AF9008958F929F92AF92BF92EF92FF92B6
:103840000F931F93CF93DF93CDB7DEB760970FB67B
:10385000F894DEBF0FBECDBF88E090E00E943F2706
:103860007C0100E011EE20E030E043E150E06FE049
:1038700070E00E94101FF092BA04E092B90468EE62
:1038800073E080E090E00E94FD228091B904909165
:10389000BA040E94EA1F882301F18AE290E0909323
:1038A00082058093810540918305509184056DE7E1
:1038B00075E083E596E060960FB6F894DEBF0FBE24
:1038C000CDBFDF91CF911F910F91FF90EF90BF90EF
:1038D000AF909F908F900C94CB0926E040E855E282
:1038E00060E070E08BE797E00E94042500E068EE5E
:1038F00073E080E090E00E94FD226FEC72E08BE7C5
:1039000097E00E9451268BE797E00E949B2464E693
:1039100070E080E090E00E94FD226FED72E08BE7A6
:1039200097E00E9451268BE797E00E949B2464E673
:1039300070E080E090E00E94FD228BE797E00E941B
:103940002E24892B29F08BE797E00E944824F5CF9D
:1039500062EE72E08BE797E00E9451268BE797E0DA
:103960000E949B2464E670E080E090E00E94FD22CB
:103970000E94CC224B015C0110E0E12EF12C0E9450
:10398000CC22681979098A099B096C3D754081052B
:103990009105C8F48BE797E00E942E24892B79F3D8
:1039A0008EE0E816F1045CF78BE797E00E9448246C
:1039B000E1E0F0E0EC0FFD1FEE0DFF1D808388239A
:1039C000E1F21F5FDACF812F90E0E1E0F0E0EC0F51
:1039D000FD1FE80FF91F108202979CF142E050E0B2
:1039E0006BEA71E0CE0101960E94BE2D892B49F54C
:1039F0008AE290E09093820580938105409183054F
:103A0000509184056DE775E083E596E00E94CB094F
:103A100026E040E051EE60E070E08BE797E06096D2
:103A20000FB6F894DEBF0FBECDBFDF91CF911F91CF
:103A30000F91FF90EF90BF90AF909F908F900C945C
:103A400004250111E5CF26E040E051EE60E070E092
:103A50008BE797E00E94042501E049CF61E080E117
:103A60000E949B2361E080E10E94D72326E040E092
:103A700051EE60E070E08BE797E00E9404250E9421
:103A8000E114E4E0F0E081E280935700E49181E00A
:103A9000E43109F080E08093A3048093EF048093E5
:103AA000F004389A409A809166008093D00380E0B9
:103AB00090E00E9419328093D1038091810590910A
:103AC00082058A9711F00E941A1C60E082E00E9431
:103AD0009B2341E050E064EA75E080E00E941422FC
:103AE00064E182ED96E00E947B0B60E070E082ED85
:103AF00096E00E949B0B68EC88EC96E00E947B0BA2
:103B000060E070E088EC96E00E949B0B68EC8EEB26
:103B100096E00E947B0B60E070E08EEB96E00E94E6
:103B20009B0B6091130580E00E94380C60910905A1
:103B300081E00E94380C6091FF0482E00E94380C02
:103B40000E94C7144FE066E071E08FEB94E00E94A2
:103B50007D2084EE94E00E947C2183E197E00E9426
:103B6000351E8BEE96E00E94351E8FEF96E00E9488
:103B7000351E66E570E18FEF96E00E941F1E6BE038
:103B80007FE083E197E00E941F1E66EB7FE083E108
:103B900097E00E94231E69E370E18BEE96E00E949D
:103BA0001F1E1092A5041092A6041092A704109252
:103BB000A8041092A9041092AA041092AB041092C7
:103BC000AC048091CB059091CC0521E0009709F0E1
:103BD00020E02093A404892B11F40E94D711809136
:103BE000D4038A3221F488EF90E00E9422101092D0
:103BF000D40380917A0086FDFCCF0E947A0D20913B
:103C000065043091660480E2815048F0E82FF0E0CE
:103C1000EE0FFF1FED59FB4F31832083F5CF8091CD
:103C20007A00806480937A0080E00E945F11909314
:103C3000D3038093D2038CEF92E00C94870EFC01A7
:103C4000758364830895FC01778366830895FC017E
:103C5000208130E02330310534F0218130E081E0F3
:103C6000233031050CF480E00895FC0111821082AC
:103C7000108A118A128A138A148615861686178668
:103C8000108611861286138608951F93CF93DF93B3
:103C9000EC01862F142F6A8360E00E949B2311237E
:103CA00021F061E08A810E94D7231B821D821C8241
:103CB0001F821E82CE01DF91CF911F910C94351E81
:103CC000AF92BF92CF92DF92EF92FF920F931F932A
:103CD000CF93DF93EC016A017B018A810E94052466
:103CE0005C0181E0A114B10409F480E09B81082FFC
:103CF00010E0891332C088899989AA89BB89009705
:103D0000A105B105F1F0A7019601281B390B4A0B5B
:103D10005B0B233331054105510598F0CE010E941C
:103D2000271EB82ECE010E94351EBB2051F0EC811B
:103D3000FD81309711F080E00995CC86DD86EE8616
:103D4000FF86C801DF91CF911F910F91FF90EF90F7
:103D5000DF90CF90BF90AF900895C88AD98AEA8A41
:103D6000FB8A8B83CE010E94271E882391F08885D1
:103D70009985AA85BB85892B8A2B8B2B51F4EC81E5
:103D8000FD81309711F081E00995C886D986EA86D1
:103D9000FB86AB28E1F088818F3F11F08F5F88832D
:103DA000CE010E94271E882361F2EE81FF813097A9
:103DB00041F288859985AA85BB85A7019601281BB4
:103DC000390B4A0B5B0BCA01B9010995BACF89813E
:103DD0008F3F31F38F5F8983E3CF0F931F93CF938F
:103DE000DF93EC010E94271E088519852A853B85F3
:103DF00081110DC06C857D858E859F85601B710B43
:103E0000820B930BDF91CF911F910F9108956091D9
:103E10002707709128078091290790912A07EECFF4
:103E20000F931F93CF93DF93EC01842F79836883E3
:103E30004A835B830C831D832E833F8361E00E9452
:103E40009B2360E08A810E94D72361E088810E94E1
:103E50009B2361E08881DF91CF911F910F910C949A
:103E6000D723CF93DF93EC0160E088810E94D723B2
:103E700062E370E080E090E00E94FD2261E08881D2
:103E80000E94D72364EF71E080E090E0DF91CF9152
:103E90000C94FD228BE297E008951F93CF93DF935C
:103EA000EC01162F8BE797E00E949B2461E0111133
:103EB00001C060E08A810E94D723CE010E94311F99
:103EC000111112C04C815D816E817F8126E08BE7EC
:103ED00097E00E94042564E670E080E090E0DF91C6
:103EE000CF911F910C94FD2240E056E960E070E014
:103EF000EDCFCF93DF93EB0165E573E08BE797E0C0
:103F00000E945126BE018BE797E00E94512667E987
:103F100073E08BE797E00E9451268BE797E00E94C1
:103F20009B2464E670E080E090E0DF91CF910C94F8
:103F3000FD228BE797E00E942E24181619062CF418
:103F40008BE797E00E944824F4CF0895CF92DF9248
:103F5000EF92FF92CF93DF930E94CC226B017C0102
:103F600010923B070E94CC226C197D098E099F0993
:103F70006C3D75408105910500F58BE797E00E9447
:103F80002E24892B79F3C0913B07D0E0CF30D105A7
:103F90004CF78BE797E00E944824C55DD84F888393
:103FA00080913B07E82FF0E0E55DF84F9081992381
:103FB000C9F28F5F80933B07D5CFE0913B07F0E0DC
:103FC000E55DF84F1082DF91CF91FF90EF90DF9089
:103FD000CF900895CF93DF93EC0161E00E944D1FD5
:103FE00069E573E08BE297E00E94B72D6C817D81DB
:103FF0008E819F812AE040E357E00E94FE2D6FE50D
:1040000073E08BE297E00E94A32D6BE277E0CE0194
:104010000E94791F64E673E0CE010E94791F6BE66F
:1040200073E0CE010E94791F63E773E0CE010E9426
:10403000791F6DE773E0CE010E94791F6BE873E092
:10404000CE010E94791FCE010E94991F65E973E09D
:104050008BE797E00E9451268BE797E00E949B2414
:10406000CE010E94A61F60E0CE010E944D1F8091EC
:104070003B0790E002975CF042E050E06BEA71E0B1
:104080008BE297E00E94BE2D21E0892B09F020E011
:10409000822FDF91CF910895CF93DF93EC0161E000
:1040A0000E944D1FCE010E94A61F60E0CE01DF914D
:1040B000CF910C944D1F0895CB010C941932CB0174
:1040C000642F0C942132CF93FC01C62F13821282ED
:1040D0001182108261E08C2F0E949B2360E08C2F64
:1040E000CF910C94D723FC0163830895FC01608376
:1040F0000895FC01728361830895FC0171836083DC
:10410000428308956F927F928F929F92AF92BF9257
:10411000CF92DF92EF92FF920F931F93CF93DF9393
:10412000CDB7DEB72A970FB6F894DEBF0FBECDBF6E
:104130006C01CB0164E871E00E949E2D5C018E0150
:104140000F5F1F4F702E612E64E871E080E090E0F9
:104150000E949E2DD8018D939D938D01892BA1F7EF
:10416000F6018280912C00E010E0E12CF12CE814A3
:10417000F9040CF040C0D601ED91FC91E00FF11F65
:1041800060817181C5010E94AE2D98012A5F3F4F69
:10419000892B09F048C06CEA73E08BE797E00E9436
:1041A0005126B5018BE797E00E94512664E871E043
:1041B0008BE797E00E945126F60180819181080FDC
:1041C000191FD8011496ED91FC911597872D962D06
:1041D0000995811125C066EA73E08BE797E00E949C
:1041E00051266BEA71E08BE797E00E9451268BE73E
:1041F00097E00E945A262A960FB6F894DEBF0FBEAB
:10420000CDBFDF91CF911F910F91FF90EF90DF9085
:10421000CF90BF90AF909F908F907F906F900895B8
:1042200064E871E0DACFBFEFEB1AFB0A89019FCF98
:10423000FF920F931F93CF93DF93EC010EE417E0EF
:1042400080E2F82E8BE797E00E942E24892BB9F1AB
:104250008BE797E00E9448248823A1F320914C0724
:1042600030914D078A30E1F4243031057CF044E090
:1042700050E06CEA73E08EE497E00E94BE2D892B3B
:1042800029F462E577E0CE010E948220F8018F2DAB
:1042900011928A95E9F710924D0710924C07D2CFF0
:1042A0002F3131057CF6A9014F5F5F4F50934D07C9
:1042B00040934C07225B384FF9018083C3CFDF91D5
:1042C000CF911F910F91FF900895FC01718360833E
:1042D000168217821086118612821382148215822A
:1042E00012860E94CC2260936E0770936F078093B2
:1042F0007007909371070895CF93DF93EC010E94AC
:10430000CC226E837F83888799876A837B838C83A3
:104310009D83DF91CF9108950F931F93CF93DF93E8
:10432000EC010E94CC220E811F8128853985AB01CA
:10433000BC01401B510B620B730BE881F981848136
:104340009581A0E0B0E084179507A607B70768F449
:1043500081E08A870E94CC226E837F838887998739
:10436000DF91CF911F910F9108951A86F9CFFC012B
:10437000828508950F931F93CF93DF93EB010E94E3
:10438000CC2200916E0710916F0720917007309139
:104390007107AB01BC01401B510B620B730BCE01CB
:1043A000A0E0B0E0481759076A077B0780F00E9439
:1043B000CC2260936E0770936F0780937007909381
:1043C000710781E0DF91CF911F910F91089580E0F7
:1043D000F9CFCF92DF92EF92FF920F931F93CF937B
:1043E000DF938C01EB010E94CC22F801068117813A
:1043F000208531856B017C01C01AD10AE20AF30ADB
:10440000AE0160E070E081E0C416D506E606F7066E
:1044100008F080E0DF91CF911F910F91FF90EF9016
:10442000DF90CF90089508958230E8F4E82FF0E00F
:10443000EE0FFF1FE958FE4F71836083813041F01A
:10444000809169008C7F482B40936900E89A089519
:1044500080916900837F440F551F440F551F482BDF
:1044600040936900E99A08951F920F920FB60F9238
:1044700011242F933F934F935F936F937F938F9369
:104480009F93AF93BF93EF93FF93E0917701F091E8
:1044900078010995FF91EF91BF91AF919F918F9115
:1044A0007F916F915F914F913F912F910F900FBE30
:1044B0000F901F9018951F920F920FB60F92112414
:1044C0002F933F934F935F936F937F938F939F931C
:1044D000AF93BF93EF93FF93E0917901F0917A014D
:1044E0000995FF91EF91BF91AF919F918F917F912E
:1044F0006F915F914F913F912F910F900FBE0F9051
:104500001F9018951F920F920FB60F9211242F93A0
:104510003F938F939F93AF93BF9380917307909135
:104520007407A0917507B09176073091720726E065
:10453000230F2D3758F50296A11DB11D2093720748
:104540008093730790937407A0937507B0937607D1
:104550008091770790917807A0917907B0917A07B9
:104560000196A11DB11D8093770790937807A093C2
:104570007907B0937A07BF91AF919F918F913F9147
:104580002F910F900FBE0F901F90189529E8230FC1
:104590000396A11DB11DD2CF2FB7F8946091730778
:1045A0007091740780917507909176072FBF0895D9
:1045B0003FB7F8948091770790917807A091790799
:1045C000B0917A0726B5A89B05C02F3F19F0019638
:1045D000A11DB11D3FBFBA2FA92F982F8827BC015D
:1045E000CD01620F711D811D911D43E0660F771F84
:1045F000881F991F4A95D1F708958F929F92AF9285
:10460000BF92CF92DF92EF92FF926B017C010E94EA
:10461000D8224B015C01C114D104E104F10449F436
:10462000FF90EF90DF90CF90BF90AF909F908F90D2
:1046300008950E9441270E94D822681979098A09A1
:104640009B09683E73408105910528F321E0C21A59
:10465000D108E108F10888EE880E83E0981EA11CBD
:10466000B11CC114D104E104F10429F7D4CF78942A
:1046700084B5826084BD84B5816084BD85B5826067
:1046800085BD85B5816085BDEEE6F0E08081816005
:104690008083E1E8F0E01082808182608083808105
:1046A00081608083E0E8F0E0808181608083E1EBDD
:1046B000F0E0808184608083E0EBF0E080818160C5
:1046C0008083EAE7F0E0808184608083808182607B
:1046D000808380818E7F8083808180688083109238
:1046E000C1000895833081F028F4813099F0823040
:1046F000A9F008958730A9F08830C9F08430B1F46A
:10470000809180008F7D03C0809180008F7780939F
:104710008000089584B58F7784BD089584B58F7D1A
:10472000FBCF8091B0008F778093B0000895809187
:10473000B0008F7DF9CFCF93DF9390E0FC01E65A74
:10474000FE4F249182599E4FFC0184918823C9F029
:1047500090E0880F991FFC01EA56FE4FA591B49195
:10476000FC01E457FE4FC591D49161110DC09FB774
:10477000F8948C91209582238C9388812823288318
:104780009FBFDF91CF910895623051F49FB7F894A5
:104790003C91822F809583238C93E8812E2BEFCF41
:1047A0008FB7F894EC912E2B2C938FBFEACF1F93E9
:1047B000CF93DF93162F282F30E0F901EA5BFE4FED
:1047C0008491F901E65AFE4FD491F901E259FE4F66
:1047D000C491CC23A1F081110E947223EC2FF0E050
:1047E000EE0FFF1FE457FE4FA591B4918FB7F894D9
:1047F000EC91111108C0D095DE23DC938FBFDF91BF
:10480000CF911F910895DE2BF8CFCF93DF93282F00
:1048100030E0F901EA5BFE4F8491F901E65AFE4F60
:10482000D491F901E259FE4FC491CC23A1F081113A
:104830000E947223EC2FF0E0EE0FFF1FEE57FE4FA9
:10484000A591B491EC91ED2381E090E009F480E032
:10485000DF91CF91089580E090E0FACFFC01918D37
:10486000228D892F90E0805C9F4F821B91098F736E
:1048700099270895FC01918D828D981731F0828DD2
:10488000E80FF11D858D90E008958FEF9FEF08955B
:10489000FC01918D828D981761F0828DDF01A80F48
:1048A000B11D5D968C91928D9F5F9F73928F90E06A
:1048B00008958FEF9FEF0895FC01238D848D30E0E4
:1048C00090E02817390724F0821B930BCF960895A8
:1048D000821B930B0197089588EB95E2892B49F091
:1048E00080E090E0892B29F00E94B82581110C947A
:1048F00000000895FC01848DDF01A80FB11DA35AAB
:10490000BF4F2C91848D90E001968F739927848FEF
:10491000A689B7892C93A089B1898C9180648C93E6
:10492000938D848D981306C00288F389E02D8081D1
:104930008F7D80830895CF93DF93EC01888D88234A
:1049400051F0EA89FB89808185FD08C0A889B98971
:104950008C9186FF03C0DF91CF9108950FB607FCBD
:10496000F2CF808185FFEFCFA889B9898C9185FF2F
:10497000EACFCE010E947A24E4CFEF92FF920F9308
:104980001F93CF93DF93EC01F62E81E0888F9B8DF0
:104990008C8D981305C0E889F989808185FD2CC02C
:1049A0000B8D10E00F5F1F4F0F731127E02E8C8DC2
:1049B000E8120CC00FB607FCFACFE889F9898081AC
:1049C00085FFF5CFCE010E947A24F1CF8B8DFE01B9
:1049D000E80FF11DE35AFF4FF0820B8FEA89FB8944
:1049E00080818062808381E090E0DF91CF911F9190
:1049F0000F91FF90EF900895EE89FF896083E88919
:104A0000F98980818064EECFCF92DF92EF92FF929E
:104A10001F93CF93DF93EC016A017B01122F60E8B3
:104A200074E88EE190E0A70196010E94A42921502C
:104A30003109410951095695479537952795E889D8
:104A4000F98982E08083211580E1380798F0E889B0
:104A5000F989108260E472E48FE090E0A70196018A
:104A60000E94A429215031094109510956954795C1
:104A700037952795EC85FD853083EE85FF8520836E
:104A8000188EEC89FD891083EA89FB898081806119
:104A90008083EA89FB89808188608083EA89FB8939
:104AA000808180688083EA89FB8980818F7D808313
:104AB000DF91CF911F91FF90EF90DF90CF900895FD
:104AC0001F920F920FB60F9211242F938F939F93E3
:104AD000EF93FF93E0918B07F0918C078081E09139
:104AE0009107F091920782FD1BC0908180919407FD
:104AF0008F5F8F7320919507821741F0E0919407A3
:104B0000F0E0E558F84F958F80939407FF91EF916F
:104B10009F918F912F910F900FBE0F901F9018951E
:104B20008081F4CF1F920F920FB60F9211242F9312
:104B30003F934F935F936F937F938F939F93AF9325
:104B4000BF93EF93FF938BE797E00E947A24FF9146
:104B5000EF91BF91AF919F918F917F916F915F91F5
:104B60004F913F912F910F900FBE0F901F9018956E
:104B70008BE797E00E942E2421E0892B09F420E0A6
:104B8000822F0895EBE7F7E01382128288EE93E01C
:104B9000A0E0B0E084839583A683B78385EB93E0A0
:104BA0009183808385EC90E09587848784EC90E006
:104BB0009787868780EC90E0918B808B81EC90E0EA
:104BC000938B828B82EC90E0958B848B86EC90E0CB
:104BD000978B868B118E128E138E148E0895CF9222
:104BE000DF92EF92FF920F931F93CF93DF937C019D
:104BF0006A018B01C0E0D0E0CC15DD0579F0D80169
:104C00006D918D01D701ED91FC910190F081E02D26
:104C1000C7010995892B11F02196EECFCE01DF91C6
:104C2000CF911F910F91FF90EF90DF90CF9008955B
:104C30006115710579F0FB0101900020E9F73197CA
:104C4000AF01461B570BDC01ED91FC910280F38113
:104C5000E02D099480E090E00895EF92FF920F9389
:104C60001F93CF93DF938C017B01C0E0D0E0F7016D
:104C7000EC0FFD1F6491662361F0D801ED91FC916A
:104C80000190F081E02DC8010995892B11F0219642
:104C9000EECFCE01DF91CF911F910F91FF90EF905A
:104CA00008950C941826DC01ED91FC910190F0819F
:104CB000E02D099467E973E00C9418268F929F9277
:104CC000AF92BF92CF92DF92EF92FF920F931F931A
:104CD000CF93DF93CDB7DEB7A1970FB6F894DEBFC1
:104CE0000FBECDBF7C01D42EC52EDB0119A2822FB1
:104CF00090E002970CF42AE08E010F5D1F4F822E88
:104D0000912CA12CB12C6D2D7C2DCD01A5019401F0
:104D10000E94A429D22EC32EDA01015011096A3053
:104D20007105F4F4605DF8016083232B242B252B9F
:104D300051F7B801C7010E941826A1960FB6F89442
:104D4000DEBF0FBECDBFDF91CF911F910F91FF90BE
:104D5000EF90DF90CF90BF90AF909F908F9008958D
:104D6000695CE1CFCF92DF92EF92FF920F931F9396
:104D7000CF93DF93EC016A017B012115310579F4B2
:104D8000E881F9810190F081E02D642FDF91CF91CE
:104D90001F910F91FF90EF90DF90CF9009942A30F0
:104DA0003105E9F477FF1AC06DE20E9453268C01A9
:104DB00044275527BA014C195D096E097F092AE07D
:104DC000CE010E945E26800F911FDF91CF911F912F
:104DD0000F91FF90EF90DF90CF9008952AE0B701F8
:104DE000A601CE01DF91CF911F910F91FF90EF901F
:104DF000DF90CF900C945E269A01AB01770F660B83
:104E0000770B0C94B2262115310541F4DC01ED91AC
:104E1000FC910190F081E02D642F09940C945E26A2
:104E20009A01462F50E060E070E00C9403279A014D
:104E3000AB0160E070E00C9403270F931F93CF93B6
:104E4000DF93EC010E9417278C01CE010E945A26A5
:104E5000800F911FDF91CF911F910F9108950895B9
:104E60000E9437230E942F270E942E1DCCE6D4E2F9
:104E70000E9446152097E1F30E946C24F9CF0C9410
:104E8000402A08955058BB27AA270E945A270C94FD
:104E9000D4280E94C62838F00E94CD2820F039F48A
:104EA0009F3F19F426F40C94C3280EF4E095E7FB19
:104EB0000C94BD28E92F0E94E52858F3BA17620721
:104EC00073078407950720F079F4A6F50C94072959
:104ED0000EF4E0950B2EBA2FA02D0B01B901900115
:104EE0000C01CA01A0011124FF27591B99F0593F59
:104EF00050F4503E68F11A16F040A22F232F342FA1
:104F00004427585FF3CF469537952795A795F040EE
:104F10005395C9F77EF41F16BA0B620B730B840B03
:104F2000BAF09150A1F0FF0FBB1F661F771F881FBB
:104F3000C2F70EC0BA0F621F731F841F48F4879513
:104F400077956795B795F7959E3F08F0B0CF939505
:104F5000880F08F09927EE0F9795879508950E947E
:104F6000992808F481E008950E94C8270C94D42859
:104F70000E94CD2858F00E94C62840F029F45F3FD7
:104F800029F00C94BD2851110C9408290C94C328C5
:104F90000E94E52868F39923B1F3552391F3951BFB
:104FA000550BBB27AA2762177307840738F09F5F4A
:104FB0005F4F220F331F441FAA1FA9F335D00E2EB7
:104FC0003AF0E0E832D091505040E695001CCAF724
:104FD0002BD0FE2F29D0660F771F881FBB1F2617E7
:104FE00037074807AB07B0E809F0BB0B802DBF01BE
:104FF000FF2793585F4F3AF09E3F510578F00C948D
:10500000BD280C9408295F3FE4F3983ED4F38695BD
:1050100077956795B795F7959F5FC9F7880F911DAD
:105020009695879597F90895E1E0660F771F881F99
:10503000BB1F621773078407BA0720F0621B730B4C
:10504000840BBA0BEE1F88F7E09508950E942D2877
:105050006894B1110C94082908950E94ED2888F0F5
:105060009F5798F0B92F9927B751B0F0E1F0660F2C
:10507000771F881F991F1AF0BA95C9F714C0B1306D
:1050800091F00E940729B1E008950C940729672F39
:10509000782F8827B85F39F0B93FCCF3869577959C
:1050A0006795B395D9F73EF4909580957095619585
:1050B0007F4F8F4F9F4F0895E89409C097FB3EF4B0
:1050C00090958095709561957F4F8F4F9F4F992355
:1050D000A9F0F92F96E9BB279395F69587957795D3
:1050E0006795B795F111F8CFFAF4BB0F11F460FF93
:1050F0001BC06F5F7F4F8F4F9F4F16C0882311F0EB
:1051000096E911C0772321F09EE8872F762F05C0FE
:10511000662371F096E8862F70E060E02AF09A9599
:10512000660F771F881FDAF7880F9695879597F98E
:105130000895990F0008550FAA0BE0E8FEEF161628
:105140001706E807F907C0F012161306E407F5077B
:1051500098F0621B730B840B950B39F40A2661F0EF
:10516000232B242B252B21F408950A2609F4A14092
:10517000A6958FEF811D811D089597F99F6780E89F
:1051800070E060E008959FEF80EC089500240A9499
:105190001616170618060906089500240A94121612
:1051A0001306140605060895092E0394000C11F445
:1051B000882352F0BB0F40F4BF2B11F460FF04C0F2
:1051C0006F5F7F4F8F4F9F4F089557FD9058440F4B
:1051D000551F59F05F3F71F04795880F97FB991F56
:1051E00061F09F3F79F08795089512161306140613
:1051F000551FF2CF4695F1DF08C0161617061806A0
:10520000991FF1CF86957105610508940895E8947A
:10521000BB2766277727CB0197F908950E94992825
:1052200008F48FEF08950E9426290C94D4280E9438
:10523000C62838F00E94CD2820F0952311F00C9458
:10524000BD280C94C32811240C9408290E94E52839
:1052500070F3959FC1F3950F50E0551F629FF001C9
:10526000729FBB27F00DB11D639FAA27F00DB11DE2
:10527000AA1F649F6627B00DA11D661F829F22276B
:10528000B00DA11D621F739FB00DA11D621F839FF2
:10529000A00D611D221F749F3327A00D611D231FC8
:1052A000849F600D211D822F762F6A2F11249F5716
:1052B00050409AF0F1F088234AF0EE0FFF1FBB1F19
:1052C000661F771F881F91505040A9F79E3F5105D8
:1052D00080F00C94BD280C9408295F3FE4F3983EBD
:1052E000D4F3869577956795B795F795E7959F5F82
:1052F000C1F7FE2B880F911D9695879597F9089514
:10530000DB018F939F930E94FB29BF91AF91A29FD6
:10531000800D911DA39F900DB29F900D11240895B3
:1053200097FB072E16F4009407D077FD09D00E9452
:10533000062A07FC05D03EF4909581959F4F08956D
:10534000709561957F4F0895A1E21A2EAA1BBB1B91
:10535000FD010DC0AA1FBB1FEE1FFF1FA217B30741
:10536000E407F50720F0A21BB30BE40BF50B661F57
:10537000771F881F991F1A9469F76095709580951B
:1053800090959B01AC01BD01CF010895052E97FBBF
:105390001EF400940E94DD2957FD07D00E94A42925
:1053A00007FC03D04EF40C94DD29509540953095C0
:1053B00021953F4F4F4F5F4F089590958095709581
:1053C00061957F4F8F4F9F4F0895A29FB001B39F6C
:1053D000C001A39F700D811D1124911DB29F700DFE
:1053E000811D1124911D08950E94E529B7FF08959C
:1053F000821B930B08950E94E529A59F900DB49FF1
:10540000900DA49F800D911D11240895AA1BBB1B14
:1054100051E107C0AA1FBB1FA617B70710F0A61BB4
:10542000B70B881F991F5A95A9F780959095BC01D5
:10543000CD010895EE0FFF1F0590F491E02D099422
:10544000EF920F931F93CF93DF93E80147FD16C0B0
:1054500034E0042E000C550B57FF03C051954195C5
:105460005109E32E022F242FAE010E94662ECE0199
:10547000DF91CF911F910F91EF90089534E1E9CF23
:105480000F931F93CF93DF938230910510F482E046
:1054900090E0E0911A08F0911B0820E030E0A0E0D5
:1054A000B0E0309799F42115310509F447C0281B65
:1054B000390B24303105C0F58A819B816115710556
:1054C00071F1FB0193838283FE0111C04081518100
:1054D0000281138148175907F8F04817590799F4C2
:1054E000109761F012960C93129713961C933296B4
:1054F000CF01DF91CF911F910F91089500931A086A
:1055000010931B08F4CF2115310519F042175307EA
:1055100018F49A01BD01EF01DF01F801C2CF9093A9
:105520001B0880931A08D0CFFE01E20FF31F81936E
:1055300091932250310939832883DACF20911808BA
:1055400030911908232B41F420910201309103017D
:10555000309319082093180820910001309101011F
:105560002115310541F42DB73EB74091040150910A
:105570000501241B350BE0911808F0911908E2177A
:10558000F307A0F42E1B3F0B2817390778F0AC0166
:105590004E5F5F4F2417350748F04E0F5F1F509343
:1055A00019084093180881939193A2CFE0E0F0E0AE
:1055B0009FCFCF93DF930097D1F0FC0132971382F6
:1055C0001282A0911A08B0911B08109799F42081BB
:1055D0003181820F931F20911808309119082817E4
:1055E000390709F066C0F0931908E0931808DF91B5
:1055F000CF910895ED0120E030E0CE17DF0708F0ED
:105600003FC04A815B819E0141155105B9F5E90111
:10561000FB83EA8349915991C40FD51FEC17FD070D
:1056200061F4808191810296840F951FE90199832D
:105630008883828193819B838A83E0E0F0E01296E5
:105640008D919C9113970097C9F52D913C911197DD
:10565000CD010296820F931F2091180830911908EE
:105660002817390721F6309761F510921B08109220
:105670001A08B0931908A0931808B9CFEA01BDCF52
:10568000D383C28340815181840F951FC817D907E6
:1056900061F44E5F5F4F88819981480F591F518394
:1056A00040838A819B81938382832115310509F090
:1056B000AECFF0931B08E0931A0899CFFD01DC01EF
:1056C000BECF13821282D5CFDC01FB018C91908179
:1056D0009D9381934150510914161506BCF308950A
:1056E000A0E0B0E0E6E7FBE20C9439326C01D62F83
:1056F000C72F8A017901F9010995B80197FF15C0F3
:105700008D2F9C2FF701099597FD08C0B801C601A0
:10571000F701099597FD16C0DC2DCD2D8D2F9C2FFF
:10572000CDB7DEB7E8E00C9455328D2F9C2FF701F2
:1057300009951816190694F3B801C601F7010995E1
:1057400097FDEACFD02FC12FE9CFAAE0B0E0EBEA76
:10575000FBE20C942F328C016B015A874987390187
:1057600049845A84400E511E27E0C216D10468F5C0
:1057700049855A85C49EC001C59E900DD49E900D4A
:1057800011246801C80ED91E4C145D0408F080C1B4
:10579000720113C05701E985FA85AE1ABF0AB70135
:1057A000C501F30109951816190654F449855A855F
:1057B000B501C7010E94642B75010E151F0550F33A
:1057C00089859A85480E591EDFCFC6019695879523
:1057D00029853A85829F7001839FF00C929FF00C7F
:1057E0001124E00EF11EA601415051095A8349834C
:1057F00057E0C516D10409F44DC089819A81829F72
:105800004001839F900C929F900C1124800E911E5A
:1058100099E2C916D10408F485C0C60143E0969503
:1058200087954A95E1F7829F5001839FB00C929F24
:10583000B00C11241501220C331CA801420D531D7C
:10584000B8016A0D7B1D9301C8010E94702B8B83E8
:105850009D83A7014A0D5B1DB194A194B1089301EA
:10586000B701C7018A0D9B1D0E94702B7C01B401FA
:105870006A0D7B1D9301A401C401821993090E9442
:10588000702B4C019301A401B7018B819D810E9473
:10589000702B7C0149855A85B701C8010E94642B91
:1058A00029813A8149855A85249FF001259FF00D71
:1058B000349FF00D1124FE83ED837F01E00EF11E75
:1058C0004A01840C951C17015A8249821C821B8252
:1058D000540189859A85A81AB90AEA14FB0408F4C8
:1058E000C5C0B801C501F3010995181619067CF168
:1058F000892B99F449855A85B50189819A810E943D
:10590000642B89819A81E985FA858E0F9F1F9A837E
:10591000898321E030E03C832B8349855A85840EBE
:10592000951ED6CF0B831D83ADCF892B71F449858E
:105930005A85B101C7010E94642B29853A85221A34
:10594000330A41E050E05C834B83EF80F884EA1433
:10595000FB0408F48BC0B801C701F3010995970156
:1059600049855A85241B350B38872F8397FFDDCF58
:1059700049855A85B701C5010E94642BEF80F884E0
:1059800081E090E09C838B83C8CF5701E985FA853D
:10599000AE1ABF0AB701C501F30109951816190619
:1059A00054F449855A85B501C7010E94642B7501DD
:1059B0000E151F0550F389859A85480E591E4C1403
:1059C0005D0408F065C07201F3CF8D809E8029854B
:1059D0003A85820E931E800E911E650149815A817F
:1059E000C41AD50A401B510BC416D5060CF4A601E7
:1059F0001416150634F4B501641B750BC8010E941A
:105A0000642BC1018E199F097C01A401421953091D
:105A1000E985FA854E1B5F0B8417950708F4AC01E6
:105A20001416150634F4B401641B750BC5010E94ED
:105A3000642B29853A852C153D0550F4C601B90122
:105A40000E94062A930149855A85C8010E94A52B08
:105A500049855A854E155F05D8F484010E191F0932
:105A6000C701BA010E94062A6B017ACEEB81FC8144
:105A7000EF2B09F0AACF29853A85C29EC001C39EAB
:105A8000900DD29E900D11246801C80ED91E97CF9B
:105A90002A96E2E10C944B32662777270C94C92FA3
:105AA000FC0188279927E89421912032E9F32930D5
:105AB00010F02E30C8F32B3241F02D3239F46894B7
:105AC00004C00E94222E820F911D219120532A3062
:105AD000C0F31EF4909581959F4F08951F93FC018C
